{
	"jaquer.sol": {
		"Jaquer": {
			"abi": [
				{
					"inputs": [
						{
							"internalType": "address",
							"name": "graderAddress",
							"type": "address"
						}
					],
					"stateMutability": "payable",
					"type": "constructor"
				},
				{
					"inputs": [
						{
							"internalType": "string",
							"name": "name",
							"type": "string"
						}
					],
					"name": "attack",
					"outputs": [],
					"stateMutability": "payable",
					"type": "function"
				},
				{
					"inputs": [],
					"name": "grader",
					"outputs": [
						{
							"internalType": "contract IGrader5",
							"name": "",
							"type": "address"
						}
					],
					"stateMutability": "view",
					"type": "function"
				},
				{
					"inputs": [],
					"name": "withdraw",
					"outputs": [],
					"stateMutability": "nonpayable",
					"type": "function"
				},
				{
					"stateMutability": "payable",
					"type": "receive"
				}
			],
			"devdoc": {
				"kind": "dev",
				"methods": {},
				"version": 1
			},
			"evm": {
				"assembly": "    /* \"jaquer.sol\":249:1248  contract Jaquer {... */\n  mstore(0x40, 0x80)\n    /* \"jaquer.sol\":307:401  constructor(address graderAddress) payable {... */\n  mload(0x40)\n  sub(codesize, bytecodeSize)\n  dup1\n  bytecodeSize\n  dup4\n  codecopy\n  dup2\n  dup2\n  add\n  0x40\n  mstore\n  dup2\n  add\n  swap1\n  tag_1\n  swap2\n  swap1\n  tag_2\n  jump\t// in\ntag_1:\n    /* \"jaquer.sol\":379:392  graderAddress */\n  dup1\n    /* \"jaquer.sol\":361:367  grader */\n  0x00\n  0x00\n    /* \"jaquer.sol\":361:393  grader = IGrader5(graderAddress) */\n  0x0100\n  exp\n  dup2\n  sload\n  dup2\n  0xffffffffffffffffffffffffffffffffffffffff\n  mul\n  not\n  and\n  swap1\n  dup4\n  0xffffffffffffffffffffffffffffffffffffffff\n  and\n  mul\n  or\n  swap1\n  sstore\n  pop\n    /* \"jaquer.sol\":307:401  constructor(address graderAddress) payable {... */\n  pop\n    /* \"jaquer.sol\":249:1248  contract Jaquer {... */\n  jump(tag_5)\n    /* \"#utility.yul\":88:205   */\ntag_7:\n    /* \"#utility.yul\":197:198   */\n  0x00\n    /* \"#utility.yul\":194:195   */\n  0x00\n    /* \"#utility.yul\":187:199   */\n  revert\n    /* \"#utility.yul\":334:460   */\ntag_9:\n    /* \"#utility.yul\":371:378   */\n  0x00\n    /* \"#utility.yul\":411:453   */\n  0xffffffffffffffffffffffffffffffffffffffff\n    /* \"#utility.yul\":404:409   */\n  dup3\n    /* \"#utility.yul\":400:454   */\n  and\n    /* \"#utility.yul\":389:454   */\n  swap1\n  pop\n    /* \"#utility.yul\":334:460   */\n  swap2\n  swap1\n  pop\n  jump\t// out\n    /* \"#utility.yul\":466:562   */\ntag_10:\n    /* \"#utility.yul\":503:510   */\n  0x00\n    /* \"#utility.yul\":532:556   */\n  tag_19\n    /* \"#utility.yul\":550:555   */\n  dup3\n    /* \"#utility.yul\":532:556   */\n  tag_9\n  jump\t// in\ntag_19:\n    /* \"#utility.yul\":521:556   */\n  swap1\n  pop\n    /* \"#utility.yul\":466:562   */\n  swap2\n  swap1\n  pop\n  jump\t// out\n    /* \"#utility.yul\":568:690   */\ntag_11:\n    /* \"#utility.yul\":641:665   */\n  tag_21\n    /* \"#utility.yul\":659:664   */\n  dup2\n    /* \"#utility.yul\":641:665   */\n  tag_10\n  jump\t// in\ntag_21:\n    /* \"#utility.yul\":634:639   */\n  dup2\n    /* \"#utility.yul\":631:666   */\n  eq\n    /* \"#utility.yul\":621:684   */\n  tag_22\n  jumpi\n    /* \"#utility.yul\":680:681   */\n  0x00\n    /* \"#utility.yul\":677:678   */\n  0x00\n    /* \"#utility.yul\":670:682   */\n  revert\n    /* \"#utility.yul\":621:684   */\ntag_22:\n    /* \"#utility.yul\":568:690   */\n  pop\n  jump\t// out\n    /* \"#utility.yul\":696:839   */\ntag_12:\n    /* \"#utility.yul\":753:758   */\n  0x00\n    /* \"#utility.yul\":784:790   */\n  dup2\n    /* \"#utility.yul\":778:791   */\n  mload\n    /* \"#utility.yul\":769:791   */\n  swap1\n  pop\n    /* \"#utility.yul\":800:833   */\n  tag_24\n    /* \"#utility.yul\":827:832   */\n  dup2\n    /* \"#utility.yul\":800:833   */\n  tag_11\n  jump\t// in\ntag_24:\n    /* \"#utility.yul\":696:839   */\n  swap3\n  swap2\n  pop\n  pop\n  jump\t// out\n    /* \"#utility.yul\":845:1196   */\ntag_2:\n    /* \"#utility.yul\":915:921   */\n  0x00\n    /* \"#utility.yul\":964:966   */\n  0x20\n    /* \"#utility.yul\":952:961   */\n  dup3\n    /* \"#utility.yul\":943:950   */\n  dup5\n    /* \"#utility.yul\":939:962   */\n  sub\n    /* \"#utility.yul\":935:967   */\n  slt\n    /* \"#utility.yul\":932:1051   */\n  iszero\n  tag_26\n  jumpi\n    /* \"#utility.yul\":970:1049   */\n  tag_27\n  tag_7\n  jump\t// in\ntag_27:\n    /* \"#utility.yul\":932:1051   */\ntag_26:\n    /* \"#utility.yul\":1090:1091   */\n  0x00\n    /* \"#utility.yul\":1115:1179   */\n  tag_28\n    /* \"#utility.yul\":1171:1178   */\n  dup5\n    /* \"#utility.yul\":1162:1168   */\n  dup3\n    /* \"#utility.yul\":1151:1160   */\n  dup6\n    /* \"#utility.yul\":1147:1169   */\n  add\n    /* \"#utility.yul\":1115:1179   */\n  tag_12\n  jump\t// in\ntag_28:\n    /* \"#utility.yul\":1105:1179   */\n  swap2\n  pop\n    /* \"#utility.yul\":1061:1189   */\n  pop\n    /* \"#utility.yul\":845:1196   */\n  swap3\n  swap2\n  pop\n  pop\n  jump\t// out\n    /* \"jaquer.sol\":249:1248  contract Jaquer {... */\ntag_5:\n  dataSize(sub_0)\n  dup1\n  dataOffset(sub_0)\n  0x00\n  codecopy\n  0x00\n  return\nstop\n\nsub_0: assembly {\n        /* \"jaquer.sol\":249:1248  contract Jaquer {... */\n      mstore(0x40, 0x80)\n      jumpi(tag_1, lt(calldatasize, 0x04))\n      shr(0xe0, calldataload(0x00))\n      dup1\n      0x3ccfd60b\n      eq\n      tag_3\n      jumpi\n      dup1\n      0x5bc05526\n      eq\n      tag_4\n      jumpi\n      dup1\n      0xaabb7554\n      eq\n      tag_5\n      jumpi\n      jump(tag_2)\n    tag_1:\n      jumpi(tag_2, calldatasize)\n      stop\n    tag_2:\n      revert(0x00, 0x00)\n        /* \"jaquer.sol\":1146:1245  function withdraw() external {... */\n    tag_3:\n      callvalue\n      dup1\n      iszero\n      tag_8\n      jumpi\n      revert(0x00, 0x00)\n    tag_8:\n      pop\n      tag_9\n      tag_10\n      jump\t// in\n    tag_9:\n      stop\n        /* \"jaquer.sol\":272:294  IGrader5 public grader */\n    tag_4:\n      callvalue\n      dup1\n      iszero\n      tag_11\n      jumpi\n      revert(0x00, 0x00)\n    tag_11:\n      pop\n      tag_12\n      tag_13\n      jump\t// in\n    tag_12:\n      mload(0x40)\n      tag_14\n      swap2\n      swap1\n      tag_15\n      jump\t// in\n    tag_14:\n      mload(0x40)\n      dup1\n      swap2\n      sub\n      swap1\n      return\n        /* \"jaquer.sol\":413:963  function attack(string calldata name) external payable {... */\n    tag_5:\n      tag_16\n      0x04\n      dup1\n      calldatasize\n      sub\n      dup2\n      add\n      swap1\n      tag_17\n      swap2\n      swap1\n      tag_18\n      jump\t// in\n    tag_17:\n      tag_19\n      jump\t// in\n    tag_16:\n      stop\n        /* \"jaquer.sol\":1146:1245  function withdraw() external {... */\n    tag_10:\n        /* \"jaquer.sol\":1194:1204  msg.sender */\n      caller\n        /* \"jaquer.sol\":1186:1214  payable(msg.sender).transfer */\n      0xffffffffffffffffffffffffffffffffffffffff\n      and\n        /* \"jaquer.sol\":1186:1237  payable(msg.sender).transfer(address(this).balance) */\n      0x08fc\n        /* \"jaquer.sol\":1215:1236  address(this).balance */\n      selfbalance\n        /* \"jaquer.sol\":1186:1237  payable(msg.sender).transfer(address(this).balance) */\n      swap1\n      dup2\n      iszero\n      mul\n      swap1\n      mload(0x40)\n      0x00\n      mload(0x40)\n      dup1\n      dup4\n      sub\n      dup2\n      dup6\n      dup9\n      dup9\n      call\n      swap4\n      pop\n      pop\n      pop\n      pop\n      iszero\n      dup1\n      iszero\n      tag_22\n      jumpi\n      returndatacopy(0x00, 0x00, returndatasize)\n      revert(0x00, returndatasize)\n    tag_22:\n      pop\n        /* \"jaquer.sol\":1146:1245  function withdraw() external {... */\n      jump\t// out\n        /* \"jaquer.sol\":272:294  IGrader5 public grader */\n    tag_13:\n      0x00\n      0x00\n      swap1\n      sload\n      swap1\n      0x0100\n      exp\n      swap1\n      div\n      0xffffffffffffffffffffffffffffffffffffffff\n      and\n      dup2\n      jump\t// out\n        /* \"jaquer.sol\":413:963  function attack(string calldata name) external payable {... */\n    tag_19:\n        /* \"jaquer.sol\":646:652  uint i */\n      0x00\n        /* \"jaquer.sol\":655:656  0 */\n      0x00\n        /* \"jaquer.sol\":646:656  uint i = 0 */\n      swap1\n      pop\n        /* \"jaquer.sol\":641:724  for (uint i = 0; i < 2; i++) {... */\n    tag_24:\n        /* \"jaquer.sol\":662:663  2 */\n      0x02\n        /* \"jaquer.sol\":658:659  i */\n      dup2\n        /* \"jaquer.sol\":658:663  i < 2 */\n      lt\n        /* \"jaquer.sol\":641:724  for (uint i = 0; i < 2; i++) {... */\n      iszero\n      tag_25\n      jumpi\n        /* \"jaquer.sol\":685:691  grader */\n      0x00\n      0x00\n      swap1\n      sload\n      swap1\n      0x0100\n      exp\n      swap1\n      div\n      0xffffffffffffffffffffffffffffffffffffffff\n      and\n        /* \"jaquer.sol\":685:700  grader.retrieve */\n      0xffffffffffffffffffffffffffffffffffffffff\n      and\n      0x2e64cec1\n        /* \"jaquer.sol\":708:709  4 */\n      0x04\n        /* \"jaquer.sol\":685:712  grader.retrieve{value: 4}() */\n      mload(0x40)\n      dup3\n      0xffffffff\n      and\n      0xe0\n      shl\n      dup2\n      mstore\n      0x04\n      add\n      0x00\n      mload(0x40)\n      dup1\n      dup4\n      sub\n      dup2\n      dup6\n      dup9\n      dup1\n      extcodesize\n      iszero\n      dup1\n      iszero\n      tag_27\n      jumpi\n      revert(0x00, 0x00)\n    tag_27:\n      pop\n      gas\n      call\n      iszero\n      dup1\n      iszero\n      tag_29\n      jumpi\n      returndatacopy(0x00, 0x00, returndatasize)\n      revert(0x00, returndatasize)\n    tag_29:\n      pop\n      pop\n      pop\n      pop\n      pop\n        /* \"jaquer.sol\":665:668  i++ */\n      dup1\n      dup1\n      0x01\n      add\n      swap2\n      pop\n      pop\n        /* \"jaquer.sol\":641:724  for (uint i = 0; i < 2; i++) {... */\n      jump(tag_24)\n    tag_25:\n      pop\n        /* \"jaquer.sol\":824:825  1 */\n      0x01\n        /* \"jaquer.sol\":792:798  grader */\n      0x00\n      0x00\n      swap1\n      sload\n      swap1\n      0x0100\n      exp\n      swap1\n      div\n      0xffffffffffffffffffffffffffffffffffffffff\n      and\n        /* \"jaquer.sol\":792:806  grader.counter */\n      0xffffffffffffffffffffffffffffffffffffffff\n      and\n      0xc12327b8\n        /* \"jaquer.sol\":815:819  this */\n      address\n        /* \"jaquer.sol\":792:821  grader.counter(address(this)) */\n      mload(0x40)\n      dup3\n      0xffffffff\n      and\n      0xe0\n      shl\n      dup2\n      mstore\n      0x04\n      add\n      tag_30\n      swap2\n      swap1\n      tag_31\n      jump\t// in\n    tag_30:\n      0x20\n      mload(0x40)\n      dup1\n      dup4\n      sub\n      dup2\n      dup7\n      gas\n      staticcall\n      iszero\n      dup1\n      iszero\n      tag_33\n      jumpi\n      returndatacopy(0x00, 0x00, returndatasize)\n      revert(0x00, returndatasize)\n    tag_33:\n      pop\n      pop\n      pop\n      pop\n      mload(0x40)\n      returndatasize\n      not(0x1f)\n      0x1f\n      dup3\n      add\n      and\n      dup3\n      add\n      dup1\n      0x40\n      mstore\n      pop\n      dup2\n      add\n      swap1\n      tag_34\n      swap2\n      swap1\n      tag_35\n      jump\t// in\n    tag_34:\n        /* \"jaquer.sol\":792:825  grader.counter(address(this)) > 1 */\n      gt\n        /* \"jaquer.sol\":784:855  require(grader.counter(address(this)) > 1, \"Counter not set correctly\") */\n      tag_36\n      jumpi\n      mload(0x40)\n      0x08c379a000000000000000000000000000000000000000000000000000000000\n      dup2\n      mstore\n      0x04\n      add\n      tag_37\n      swap1\n      tag_38\n      jump\t// in\n    tag_37:\n      mload(0x40)\n      dup1\n      swap2\n      sub\n      swap1\n      revert\n    tag_36:\n        /* \"jaquer.sol\":935:941  grader */\n      0x00\n      0x00\n      swap1\n      sload\n      swap1\n      0x0100\n      exp\n      swap1\n      div\n      0xffffffffffffffffffffffffffffffffffffffff\n      and\n        /* \"jaquer.sol\":935:949  grader.gradeMe */\n      0xffffffffffffffffffffffffffffffffffffffff\n      and\n      0x1d86b167\n        /* \"jaquer.sol\":950:954  name */\n      dup4\n      dup4\n        /* \"jaquer.sol\":935:955  grader.gradeMe(name) */\n      mload(0x40)\n      dup4\n      0xffffffff\n      and\n      0xe0\n      shl\n      dup2\n      mstore\n      0x04\n      add\n      tag_39\n      swap3\n      swap2\n      swap1\n      tag_40\n      jump\t// in\n    tag_39:\n      0x00\n      mload(0x40)\n      dup1\n      dup4\n      sub\n      dup2\n      0x00\n      dup8\n      dup1\n      extcodesize\n      iszero\n      dup1\n      iszero\n      tag_41\n      jumpi\n      revert(0x00, 0x00)\n    tag_41:\n      pop\n      gas\n      call\n      iszero\n      dup1\n      iszero\n      tag_43\n      jumpi\n      returndatacopy(0x00, 0x00, returndatasize)\n      revert(0x00, returndatasize)\n    tag_43:\n      pop\n      pop\n      pop\n      pop\n        /* \"jaquer.sol\":413:963  function attack(string calldata name) external payable {... */\n      pop\n      pop\n      jump\t// out\n        /* \"#utility.yul\":7:133   */\n    tag_44:\n        /* \"#utility.yul\":44:51   */\n      0x00\n        /* \"#utility.yul\":84:126   */\n      0xffffffffffffffffffffffffffffffffffffffff\n        /* \"#utility.yul\":77:82   */\n      dup3\n        /* \"#utility.yul\":73:127   */\n      and\n        /* \"#utility.yul\":62:127   */\n      swap1\n      pop\n        /* \"#utility.yul\":7:133   */\n      swap2\n      swap1\n      pop\n      jump\t// out\n        /* \"#utility.yul\":139:199   */\n    tag_45:\n        /* \"#utility.yul\":167:170   */\n      0x00\n        /* \"#utility.yul\":188:193   */\n      dup2\n        /* \"#utility.yul\":181:193   */\n      swap1\n      pop\n        /* \"#utility.yul\":139:199   */\n      swap2\n      swap1\n      pop\n      jump\t// out\n        /* \"#utility.yul\":205:347   */\n    tag_46:\n        /* \"#utility.yul\":255:264   */\n      0x00\n        /* \"#utility.yul\":288:341   */\n      tag_72\n        /* \"#utility.yul\":306:340   */\n      tag_73\n        /* \"#utility.yul\":315:339   */\n      tag_74\n        /* \"#utility.yul\":333:338   */\n      dup5\n        /* \"#utility.yul\":315:339   */\n      tag_44\n      jump\t// in\n    tag_74:\n        /* \"#utility.yul\":306:340   */\n      tag_45\n      jump\t// in\n    tag_73:\n        /* \"#utility.yul\":288:341   */\n      tag_44\n      jump\t// in\n    tag_72:\n        /* \"#utility.yul\":275:341   */\n      swap1\n      pop\n        /* \"#utility.yul\":205:347   */\n      swap2\n      swap1\n      pop\n      jump\t// out\n        /* \"#utility.yul\":353:479   */\n    tag_47:\n        /* \"#utility.yul\":403:412   */\n      0x00\n        /* \"#utility.yul\":436:473   */\n      tag_76\n        /* \"#utility.yul\":467:472   */\n      dup3\n        /* \"#utility.yul\":436:473   */\n      tag_46\n      jump\t// in\n    tag_76:\n        /* \"#utility.yul\":423:473   */\n      swap1\n      pop\n        /* \"#utility.yul\":353:479   */\n      swap2\n      swap1\n      pop\n      jump\t// out\n        /* \"#utility.yul\":485:626   */\n    tag_48:\n        /* \"#utility.yul\":550:559   */\n      0x00\n        /* \"#utility.yul\":583:620   */\n      tag_78\n        /* \"#utility.yul\":614:619   */\n      dup3\n        /* \"#utility.yul\":583:620   */\n      tag_47\n      jump\t// in\n    tag_78:\n        /* \"#utility.yul\":570:620   */\n      swap1\n      pop\n        /* \"#utility.yul\":485:626   */\n      swap2\n      swap1\n      pop\n      jump\t// out\n        /* \"#utility.yul\":632:793   */\n    tag_49:\n        /* \"#utility.yul\":734:786   */\n      tag_80\n        /* \"#utility.yul\":780:785   */\n      dup2\n        /* \"#utility.yul\":734:786   */\n      tag_48\n      jump\t// in\n    tag_80:\n        /* \"#utility.yul\":729:732   */\n      dup3\n        /* \"#utility.yul\":722:787   */\n      mstore\n        /* \"#utility.yul\":632:793   */\n      pop\n      pop\n      jump\t// out\n        /* \"#utility.yul\":799:1051   */\n    tag_15:\n        /* \"#utility.yul\":907:911   */\n      0x00\n        /* \"#utility.yul\":945:947   */\n      0x20\n        /* \"#utility.yul\":934:943   */\n      dup3\n        /* \"#utility.yul\":930:948   */\n      add\n        /* \"#utility.yul\":922:948   */\n      swap1\n      pop\n        /* \"#utility.yul\":958:1044   */\n      tag_82\n        /* \"#utility.yul\":1041:1042   */\n      0x00\n        /* \"#utility.yul\":1030:1039   */\n      dup4\n        /* \"#utility.yul\":1026:1043   */\n      add\n        /* \"#utility.yul\":1017:1023   */\n      dup5\n        /* \"#utility.yul\":958:1044   */\n      tag_49\n      jump\t// in\n    tag_82:\n        /* \"#utility.yul\":799:1051   */\n      swap3\n      swap2\n      pop\n      pop\n      jump\t// out\n        /* \"#utility.yul\":1138:1255   */\n    tag_51:\n        /* \"#utility.yul\":1247:1248   */\n      0x00\n        /* \"#utility.yul\":1244:1245   */\n      0x00\n        /* \"#utility.yul\":1237:1249   */\n      revert\n        /* \"#utility.yul\":1261:1378   */\n    tag_52:\n        /* \"#utility.yul\":1370:1371   */\n      0x00\n        /* \"#utility.yul\":1367:1368   */\n      0x00\n        /* \"#utility.yul\":1360:1372   */\n      revert\n        /* \"#utility.yul\":1384:1501   */\n    tag_53:\n        /* \"#utility.yul\":1493:1494   */\n      0x00\n        /* \"#utility.yul\":1490:1491   */\n      0x00\n        /* \"#utility.yul\":1483:1495   */\n      revert\n        /* \"#utility.yul\":1507:1624   */\n    tag_54:\n        /* \"#utility.yul\":1616:1617   */\n      0x00\n        /* \"#utility.yul\":1613:1614   */\n      0x00\n        /* \"#utility.yul\":1606:1618   */\n      revert\n        /* \"#utility.yul\":1630:1747   */\n    tag_55:\n        /* \"#utility.yul\":1739:1740   */\n      0x00\n        /* \"#utility.yul\":1736:1737   */\n      0x00\n        /* \"#utility.yul\":1729:1741   */\n      revert\n        /* \"#utility.yul\":1767:2320   */\n    tag_56:\n        /* \"#utility.yul\":1825:1833   */\n      0x00\n        /* \"#utility.yul\":1835:1841   */\n      0x00\n        /* \"#utility.yul\":1885:1888   */\n      dup4\n        /* \"#utility.yul\":1878:1882   */\n      0x1f\n        /* \"#utility.yul\":1870:1876   */\n      dup5\n        /* \"#utility.yul\":1866:1883   */\n      add\n        /* \"#utility.yul\":1862:1889   */\n      slt\n        /* \"#utility.yul\":1852:1974   */\n      tag_90\n      jumpi\n        /* \"#utility.yul\":1893:1972   */\n      tag_91\n      tag_53\n      jump\t// in\n    tag_91:\n        /* \"#utility.yul\":1852:1974   */\n    tag_90:\n        /* \"#utility.yul\":2006:2012   */\n      dup3\n        /* \"#utility.yul\":1993:2013   */\n      calldataload\n        /* \"#utility.yul\":1983:2013   */\n      swap1\n      pop\n        /* \"#utility.yul\":2036:2054   */\n      0xffffffffffffffff\n        /* \"#utility.yul\":2028:2034   */\n      dup2\n        /* \"#utility.yul\":2025:2055   */\n      gt\n        /* \"#utility.yul\":2022:2139   */\n      iszero\n      tag_92\n      jumpi\n        /* \"#utility.yul\":2058:2137   */\n      tag_93\n      tag_54\n      jump\t// in\n    tag_93:\n        /* \"#utility.yul\":2022:2139   */\n    tag_92:\n        /* \"#utility.yul\":2172:2176   */\n      0x20\n        /* \"#utility.yul\":2164:2170   */\n      dup4\n        /* \"#utility.yul\":2160:2177   */\n      add\n        /* \"#utility.yul\":2148:2177   */\n      swap2\n      pop\n        /* \"#utility.yul\":2226:2229   */\n      dup4\n        /* \"#utility.yul\":2218:2222   */\n      0x01\n        /* \"#utility.yul\":2210:2216   */\n      dup3\n        /* \"#utility.yul\":2206:2223   */\n      mul\n        /* \"#utility.yul\":2196:2204   */\n      dup4\n        /* \"#utility.yul\":2192:2224   */\n      add\n        /* \"#utility.yul\":2189:2230   */\n      gt\n        /* \"#utility.yul\":2186:2314   */\n      iszero\n      tag_94\n      jumpi\n        /* \"#utility.yul\":2233:2312   */\n      tag_95\n      tag_55\n      jump\t// in\n    tag_95:\n        /* \"#utility.yul\":2186:2314   */\n    tag_94:\n        /* \"#utility.yul\":1767:2320   */\n      swap3\n      pop\n      swap3\n      swap1\n      pop\n      jump\t// out\n        /* \"#utility.yul\":2326:2855   */\n    tag_18:\n        /* \"#utility.yul\":2397:2403   */\n      0x00\n        /* \"#utility.yul\":2405:2411   */\n      0x00\n        /* \"#utility.yul\":2454:2456   */\n      0x20\n        /* \"#utility.yul\":2442:2451   */\n      dup4\n        /* \"#utility.yul\":2433:2440   */\n      dup6\n        /* \"#utility.yul\":2429:2452   */\n      sub\n        /* \"#utility.yul\":2425:2457   */\n      slt\n        /* \"#utility.yul\":2422:2541   */\n      iszero\n      tag_97\n      jumpi\n        /* \"#utility.yul\":2460:2539   */\n      tag_98\n      tag_51\n      jump\t// in\n    tag_98:\n        /* \"#utility.yul\":2422:2541   */\n    tag_97:\n        /* \"#utility.yul\":2608:2609   */\n      0x00\n        /* \"#utility.yul\":2597:2606   */\n      dup4\n        /* \"#utility.yul\":2593:2610   */\n      add\n        /* \"#utility.yul\":2580:2611   */\n      calldataload\n        /* \"#utility.yul\":2638:2656   */\n      0xffffffffffffffff\n        /* \"#utility.yul\":2630:2636   */\n      dup2\n        /* \"#utility.yul\":2627:2657   */\n      gt\n        /* \"#utility.yul\":2624:2741   */\n      iszero\n      tag_99\n      jumpi\n        /* \"#utility.yul\":2660:2739   */\n      tag_100\n      tag_52\n      jump\t// in\n    tag_100:\n        /* \"#utility.yul\":2624:2741   */\n    tag_99:\n        /* \"#utility.yul\":2773:2838   */\n      tag_101\n        /* \"#utility.yul\":2830:2837   */\n      dup6\n        /* \"#utility.yul\":2821:2827   */\n      dup3\n        /* \"#utility.yul\":2810:2819   */\n      dup7\n        /* \"#utility.yul\":2806:2828   */\n      add\n        /* \"#utility.yul\":2773:2838   */\n      tag_56\n      jump\t// in\n    tag_101:\n        /* \"#utility.yul\":2755:2838   */\n      swap3\n      pop\n      swap3\n      pop\n        /* \"#utility.yul\":2551:2848   */\n      pop\n        /* \"#utility.yul\":2326:2855   */\n      swap3\n      pop\n      swap3\n      swap1\n      pop\n      jump\t// out\n        /* \"#utility.yul\":2861:2957   */\n    tag_57:\n        /* \"#utility.yul\":2898:2905   */\n      0x00\n        /* \"#utility.yul\":2927:2951   */\n      tag_103\n        /* \"#utility.yul\":2945:2950   */\n      dup3\n        /* \"#utility.yul\":2927:2951   */\n      tag_44\n      jump\t// in\n    tag_103:\n        /* \"#utility.yul\":2916:2951   */\n      swap1\n      pop\n        /* \"#utility.yul\":2861:2957   */\n      swap2\n      swap1\n      pop\n      jump\t// out\n        /* \"#utility.yul\":2963:3081   */\n    tag_58:\n        /* \"#utility.yul\":3050:3074   */\n      tag_105\n        /* \"#utility.yul\":3068:3073   */\n      dup2\n        /* \"#utility.yul\":3050:3074   */\n      tag_57\n      jump\t// in\n    tag_105:\n        /* \"#utility.yul\":3045:3048   */\n      dup3\n        /* \"#utility.yul\":3038:3075   */\n      mstore\n        /* \"#utility.yul\":2963:3081   */\n      pop\n      pop\n      jump\t// out\n        /* \"#utility.yul\":3087:3309   */\n    tag_31:\n        /* \"#utility.yul\":3180:3184   */\n      0x00\n        /* \"#utility.yul\":3218:3220   */\n      0x20\n        /* \"#utility.yul\":3207:3216   */\n      dup3\n        /* \"#utility.yul\":3203:3221   */\n      add\n        /* \"#utility.yul\":3195:3221   */\n      swap1\n      pop\n        /* \"#utility.yul\":3231:3302   */\n      tag_107\n        /* \"#utility.yul\":3299:3300   */\n      0x00\n        /* \"#utility.yul\":3288:3297   */\n      dup4\n        /* \"#utility.yul\":3284:3301   */\n      add\n        /* \"#utility.yul\":3275:3281   */\n      dup5\n        /* \"#utility.yul\":3231:3302   */\n      tag_58\n      jump\t// in\n    tag_107:\n        /* \"#utility.yul\":3087:3309   */\n      swap3\n      swap2\n      pop\n      pop\n      jump\t// out\n        /* \"#utility.yul\":3315:3392   */\n    tag_59:\n        /* \"#utility.yul\":3352:3359   */\n      0x00\n        /* \"#utility.yul\":3381:3386   */\n      dup2\n        /* \"#utility.yul\":3370:3386   */\n      swap1\n      pop\n        /* \"#utility.yul\":3315:3392   */\n      swap2\n      swap1\n      pop\n      jump\t// out\n        /* \"#utility.yul\":3398:3520   */\n    tag_60:\n        /* \"#utility.yul\":3471:3495   */\n      tag_110\n        /* \"#utility.yul\":3489:3494   */\n      dup2\n        /* \"#utility.yul\":3471:3495   */\n      tag_59\n      jump\t// in\n    tag_110:\n        /* \"#utility.yul\":3464:3469   */\n      dup2\n        /* \"#utility.yul\":3461:3496   */\n      eq\n        /* \"#utility.yul\":3451:3514   */\n      tag_111\n      jumpi\n        /* \"#utility.yul\":3510:3511   */\n      0x00\n        /* \"#utility.yul\":3507:3508   */\n      0x00\n        /* \"#utility.yul\":3500:3512   */\n      revert\n        /* \"#utility.yul\":3451:3514   */\n    tag_111:\n        /* \"#utility.yul\":3398:3520   */\n      pop\n      jump\t// out\n        /* \"#utility.yul\":3526:3669   */\n    tag_61:\n        /* \"#utility.yul\":3583:3588   */\n      0x00\n        /* \"#utility.yul\":3614:3620   */\n      dup2\n        /* \"#utility.yul\":3608:3621   */\n      mload\n        /* \"#utility.yul\":3599:3621   */\n      swap1\n      pop\n        /* \"#utility.yul\":3630:3663   */\n      tag_113\n        /* \"#utility.yul\":3657:3662   */\n      dup2\n        /* \"#utility.yul\":3630:3663   */\n      tag_60\n      jump\t// in\n    tag_113:\n        /* \"#utility.yul\":3526:3669   */\n      swap3\n      swap2\n      pop\n      pop\n      jump\t// out\n        /* \"#utility.yul\":3675:4026   */\n    tag_35:\n        /* \"#utility.yul\":3745:3751   */\n      0x00\n        /* \"#utility.yul\":3794:3796   */\n      0x20\n        /* \"#utility.yul\":3782:3791   */\n      dup3\n        /* \"#utility.yul\":3773:3780   */\n      dup5\n        /* \"#utility.yul\":3769:3792   */\n      sub\n        /* \"#utility.yul\":3765:3797   */\n      slt\n        /* \"#utility.yul\":3762:3881   */\n      iszero\n      tag_115\n      jumpi\n        /* \"#utility.yul\":3800:3879   */\n      tag_116\n      tag_51\n      jump\t// in\n    tag_116:\n        /* \"#utility.yul\":3762:3881   */\n    tag_115:\n        /* \"#utility.yul\":3920:3921   */\n      0x00\n        /* \"#utility.yul\":3945:4009   */\n      tag_117\n        /* \"#utility.yul\":4001:4008   */\n      dup5\n        /* \"#utility.yul\":3992:3998   */\n      dup3\n        /* \"#utility.yul\":3981:3990   */\n      dup6\n        /* \"#utility.yul\":3977:3999   */\n      add\n        /* \"#utility.yul\":3945:4009   */\n      tag_61\n      jump\t// in\n    tag_117:\n        /* \"#utility.yul\":3935:4009   */\n      swap2\n      pop\n        /* \"#utility.yul\":3891:4019   */\n      pop\n        /* \"#utility.yul\":3675:4026   */\n      swap3\n      swap2\n      pop\n      pop\n      jump\t// out\n        /* \"#utility.yul\":4032:4201   */\n    tag_62:\n        /* \"#utility.yul\":4116:4127   */\n      0x00\n        /* \"#utility.yul\":4150:4156   */\n      dup3\n        /* \"#utility.yul\":4145:4148   */\n      dup3\n        /* \"#utility.yul\":4138:4157   */\n      mstore\n        /* \"#utility.yul\":4190:4194   */\n      0x20\n        /* \"#utility.yul\":4185:4188   */\n      dup3\n        /* \"#utility.yul\":4181:4195   */\n      add\n        /* \"#utility.yul\":4166:4195   */\n      swap1\n      pop\n        /* \"#utility.yul\":4032:4201   */\n      swap3\n      swap2\n      pop\n      pop\n      jump\t// out\n        /* \"#utility.yul\":4207:4382   */\n    tag_63:\n        /* \"#utility.yul\":4347:4374   */\n      0x436f756e746572206e6f742073657420636f72726563746c7900000000000000\n        /* \"#utility.yul\":4343:4344   */\n      0x00\n        /* \"#utility.yul\":4335:4341   */\n      dup3\n        /* \"#utility.yul\":4331:4345   */\n      add\n        /* \"#utility.yul\":4324:4375   */\n      mstore\n        /* \"#utility.yul\":4207:4382   */\n      pop\n      jump\t// out\n        /* \"#utility.yul\":4388:4754   */\n    tag_64:\n        /* \"#utility.yul\":4530:4533   */\n      0x00\n        /* \"#utility.yul\":4551:4618   */\n      tag_121\n        /* \"#utility.yul\":4615:4617   */\n      0x19\n        /* \"#utility.yul\":4610:4613   */\n      dup4\n        /* \"#utility.yul\":4551:4618   */\n      tag_62\n      jump\t// in\n    tag_121:\n        /* \"#utility.yul\":4544:4618   */\n      swap2\n      pop\n        /* \"#utility.yul\":4627:4720   */\n      tag_122\n        /* \"#utility.yul\":4716:4719   */\n      dup3\n        /* \"#utility.yul\":4627:4720   */\n      tag_63\n      jump\t// in\n    tag_122:\n        /* \"#utility.yul\":4745:4747   */\n      0x20\n        /* \"#utility.yul\":4740:4743   */\n      dup3\n        /* \"#utility.yul\":4736:4748   */\n      add\n        /* \"#utility.yul\":4729:4748   */\n      swap1\n      pop\n        /* \"#utility.yul\":4388:4754   */\n      swap2\n      swap1\n      pop\n      jump\t// out\n        /* \"#utility.yul\":4760:5179   */\n    tag_38:\n        /* \"#utility.yul\":4926:4930   */\n      0x00\n        /* \"#utility.yul\":4964:4966   */\n      0x20\n        /* \"#utility.yul\":4953:4962   */\n      dup3\n        /* \"#utility.yul\":4949:4967   */\n      add\n        /* \"#utility.yul\":4941:4967   */\n      swap1\n      pop\n        /* \"#utility.yul\":5013:5022   */\n      dup2\n        /* \"#utility.yul\":5007:5011   */\n      dup2\n        /* \"#utility.yul\":5003:5023   */\n      sub\n        /* \"#utility.yul\":4999:5000   */\n      0x00\n        /* \"#utility.yul\":4988:4997   */\n      dup4\n        /* \"#utility.yul\":4984:5001   */\n      add\n        /* \"#utility.yul\":4977:5024   */\n      mstore\n        /* \"#utility.yul\":5041:5172   */\n      tag_124\n        /* \"#utility.yul\":5167:5171   */\n      dup2\n        /* \"#utility.yul\":5041:5172   */\n      tag_64\n      jump\t// in\n    tag_124:\n        /* \"#utility.yul\":5033:5172   */\n      swap1\n      pop\n        /* \"#utility.yul\":4760:5179   */\n      swap2\n      swap1\n      pop\n      jump\t// out\n        /* \"#utility.yul\":5185:5333   */\n    tag_65:\n        /* \"#utility.yul\":5283:5289   */\n      dup3\n        /* \"#utility.yul\":5278:5281   */\n      dup2\n        /* \"#utility.yul\":5273:5276   */\n      dup4\n        /* \"#utility.yul\":5260:5290   */\n      calldatacopy\n        /* \"#utility.yul\":5324:5325   */\n      0x00\n        /* \"#utility.yul\":5315:5321   */\n      dup4\n        /* \"#utility.yul\":5310:5313   */\n      dup4\n        /* \"#utility.yul\":5306:5322   */\n      add\n        /* \"#utility.yul\":5299:5326   */\n      mstore\n        /* \"#utility.yul\":5185:5333   */\n      pop\n      pop\n      pop\n      jump\t// out\n        /* \"#utility.yul\":5339:5441   */\n    tag_66:\n        /* \"#utility.yul\":5380:5386   */\n      0x00\n        /* \"#utility.yul\":5431:5433   */\n      0x1f\n        /* \"#utility.yul\":5427:5434   */\n      not\n        /* \"#utility.yul\":5422:5424   */\n      0x1f\n        /* \"#utility.yul\":5415:5420   */\n      dup4\n        /* \"#utility.yul\":5411:5425   */\n      add\n        /* \"#utility.yul\":5407:5435   */\n      and\n        /* \"#utility.yul\":5397:5435   */\n      swap1\n      pop\n        /* \"#utility.yul\":5339:5441   */\n      swap2\n      swap1\n      pop\n      jump\t// out\n        /* \"#utility.yul\":5471:5788   */\n    tag_67:\n        /* \"#utility.yul\":5569:5572   */\n      0x00\n        /* \"#utility.yul\":5590:5661   */\n      tag_128\n        /* \"#utility.yul\":5654:5660   */\n      dup4\n        /* \"#utility.yul\":5649:5652   */\n      dup6\n        /* \"#utility.yul\":5590:5661   */\n      tag_62\n      jump\t// in\n    tag_128:\n        /* \"#utility.yul\":5583:5661   */\n      swap4\n      pop\n        /* \"#utility.yul\":5671:5727   */\n      tag_129\n        /* \"#utility.yul\":5720:5726   */\n      dup4\n        /* \"#utility.yul\":5715:5718   */\n      dup6\n        /* \"#utility.yul\":5708:5713   */\n      dup5\n        /* \"#utility.yul\":5671:5727   */\n      tag_65\n      jump\t// in\n    tag_129:\n        /* \"#utility.yul\":5752:5781   */\n      tag_130\n        /* \"#utility.yul\":5774:5780   */\n      dup4\n        /* \"#utility.yul\":5752:5781   */\n      tag_66\n      jump\t// in\n    tag_130:\n        /* \"#utility.yul\":5747:5750   */\n      dup5\n        /* \"#utility.yul\":5743:5782   */\n      add\n        /* \"#utility.yul\":5736:5782   */\n      swap1\n      pop\n        /* \"#utility.yul\":5471:5788   */\n      swap4\n      swap3\n      pop\n      pop\n      pop\n      jump\t// out\n        /* \"#utility.yul\":5794:6127   */\n    tag_40:\n        /* \"#utility.yul\":5917:5921   */\n      0x00\n        /* \"#utility.yul\":5955:5957   */\n      0x20\n        /* \"#utility.yul\":5944:5953   */\n      dup3\n        /* \"#utility.yul\":5940:5958   */\n      add\n        /* \"#utility.yul\":5932:5958   */\n      swap1\n      pop\n        /* \"#utility.yul\":6004:6013   */\n      dup2\n        /* \"#utility.yul\":5998:6002   */\n      dup2\n        /* \"#utility.yul\":5994:6014   */\n      sub\n        /* \"#utility.yul\":5990:5991   */\n      0x00\n        /* \"#utility.yul\":5979:5988   */\n      dup4\n        /* \"#utility.yul\":5975:5992   */\n      add\n        /* \"#utility.yul\":5968:6015   */\n      mstore\n        /* \"#utility.yul\":6032:6120   */\n      tag_132\n        /* \"#utility.yul\":6115:6119   */\n      dup2\n        /* \"#utility.yul\":6106:6112   */\n      dup5\n        /* \"#utility.yul\":6098:6104   */\n      dup7\n        /* \"#utility.yul\":6032:6120   */\n      tag_67\n      jump\t// in\n    tag_132:\n        /* \"#utility.yul\":6024:6120   */\n      swap1\n      pop\n        /* \"#utility.yul\":5794:6127   */\n      swap4\n      swap3\n      pop\n      pop\n      pop\n      jump\t// out\n\n    auxdata: 0xa264697066735822122096a748c7619f0e1bb0b93f2ac98d42fa3e8bb0ac48222a0f40fdb8c05a0a98e064736f6c634300081e0033\n}\n",
				"bytecode": {
					"linkReferences": {},
					"object": "6080604052604051610700380380610700833981810160405281019061002591906100c8565b805f5f6101000a81548173ffffffffffffffffffffffffffffffffffffffff021916908373ffffffffffffffffffffffffffffffffffffffff160217905550506100f3565b5f5ffd5b5f73ffffffffffffffffffffffffffffffffffffffff82169050919050565b5f6100978261006e565b9050919050565b6100a78161008d565b81146100b1575f5ffd5b50565b5f815190506100c28161009e565b92915050565b5f602082840312156100dd576100dc61006a565b5b5f6100ea848285016100b4565b91505092915050565b610600806101005f395ff3fe608060405260043610610037575f3560e01c80633ccfd60b146100425780635bc0552614610058578063aabb7554146100825761003e565b3661003e57005b5f5ffd5b34801561004d575f5ffd5b5061005661009e565b005b348015610063575f5ffd5b5061006c6100e4565b6040516100799190610382565b60405180910390f35b61009c60048036038101906100979190610404565b610108565b005b3373ffffffffffffffffffffffffffffffffffffffff166108fc4790811502906040515f60405180830381858888f193505050501580156100e1573d5f5f3e3d5ffd5b50565b5f5f9054906101000a900473ffffffffffffffffffffffffffffffffffffffff1681565b5f5f90505b60028110156101a1575f5f9054906101000a900473ffffffffffffffffffffffffffffffffffffffff1673ffffffffffffffffffffffffffffffffffffffff16632e64cec160046040518263ffffffff1660e01b81526004015f604051808303818588803b15801561017d575f5ffd5b505af115801561018f573d5f5f3e3d5ffd5b5050505050808060010191505061010d565b5060015f5f9054906101000a900473ffffffffffffffffffffffffffffffffffffffff1673ffffffffffffffffffffffffffffffffffffffff1663c12327b8306040518263ffffffff1660e01b81526004016101fd919061046f565b602060405180830381865afa158015610218573d5f5f3e3d5ffd5b505050506040513d601f19601f8201168201806040525081019061023c91906104bb565b1161027c576040517f08c379a000000000000000000000000000000000000000000000000000000000815260040161027390610540565b60405180910390fd5b5f5f9054906101000a900473ffffffffffffffffffffffffffffffffffffffff1673ffffffffffffffffffffffffffffffffffffffff16631d86b16783836040518363ffffffff1660e01b81526004016102d79291906105a8565b5f604051808303815f87803b1580156102ee575f5ffd5b505af1158015610300573d5f5f3e3d5ffd5b505050505050565b5f73ffffffffffffffffffffffffffffffffffffffff82169050919050565b5f819050919050565b5f61034a61034561034084610308565b610327565b610308565b9050919050565b5f61035b82610330565b9050919050565b5f61036c82610351565b9050919050565b61037c81610362565b82525050565b5f6020820190506103955f830184610373565b92915050565b5f5ffd5b5f5ffd5b5f5ffd5b5f5ffd5b5f5ffd5b5f5f83601f8401126103c4576103c36103a3565b5b8235905067ffffffffffffffff8111156103e1576103e06103a7565b5b6020830191508360018202830111156103fd576103fc6103ab565b5b9250929050565b5f5f6020838503121561041a5761041961039b565b5b5f83013567ffffffffffffffff8111156104375761043661039f565b5b610443858286016103af565b92509250509250929050565b5f61045982610308565b9050919050565b6104698161044f565b82525050565b5f6020820190506104825f830184610460565b92915050565b5f819050919050565b61049a81610488565b81146104a4575f5ffd5b50565b5f815190506104b581610491565b92915050565b5f602082840312156104d0576104cf61039b565b5b5f6104dd848285016104a7565b91505092915050565b5f82825260208201905092915050565b7f436f756e746572206e6f742073657420636f72726563746c79000000000000005f82015250565b5f61052a6019836104e6565b9150610535826104f6565b602082019050919050565b5f6020820190508181035f8301526105578161051e565b9050919050565b828183375f83830152505050565b5f601f19601f8301169050919050565b5f61058783856104e6565b935061059483858461055e565b61059d8361056c565b840190509392505050565b5f6020820190508181035f8301526105c181848661057c565b9050939250505056fea264697066735822122096a748c7619f0e1bb0b93f2ac98d42fa3e8bb0ac48222a0f40fdb8c05a0a98e064736f6c634300081e0033",
					"opcodes": "PUSH1 0x80 PUSH1 0x40 MSTORE PUSH1 0x40 MLOAD PUSH2 0x700 CODESIZE SUB DUP1 PUSH2 0x700 DUP4 CODECOPY DUP2 DUP2 ADD PUSH1 0x40 MSTORE DUP2 ADD SWAP1 PUSH2 0x25 SWAP2 SWAP1 PUSH2 0xC8 JUMP JUMPDEST DUP1 PUSH0 PUSH0 PUSH2 0x100 EXP DUP2 SLOAD DUP2 PUSH20 0xFFFFFFFFFFFFFFFFFFFFFFFFFFFFFFFFFFFFFFFF MUL NOT AND SWAP1 DUP4 PUSH20 0xFFFFFFFFFFFFFFFFFFFFFFFFFFFFFFFFFFFFFFFF AND MUL OR SWAP1 SSTORE POP POP PUSH2 0xF3 JUMP JUMPDEST PUSH0 PUSH0 REVERT JUMPDEST PUSH0 PUSH20 0xFFFFFFFFFFFFFFFFFFFFFFFFFFFFFFFFFFFFFFFF DUP3 AND SWAP1 POP SWAP2 SWAP1 POP JUMP JUMPDEST PUSH0 PUSH2 0x97 DUP3 PUSH2 0x6E JUMP JUMPDEST SWAP1 POP SWAP2 SWAP1 POP JUMP JUMPDEST PUSH2 0xA7 DUP2 PUSH2 0x8D JUMP JUMPDEST DUP2 EQ PUSH2 0xB1 JUMPI PUSH0 PUSH0 REVERT JUMPDEST POP JUMP JUMPDEST PUSH0 DUP2 MLOAD SWAP1 POP PUSH2 0xC2 DUP2 PUSH2 0x9E JUMP JUMPDEST SWAP3 SWAP2 POP POP JUMP JUMPDEST PUSH0 PUSH1 0x20 DUP3 DUP5 SUB SLT ISZERO PUSH2 0xDD JUMPI PUSH2 0xDC PUSH2 0x6A JUMP JUMPDEST JUMPDEST PUSH0 PUSH2 0xEA DUP5 DUP3 DUP6 ADD PUSH2 0xB4 JUMP JUMPDEST SWAP2 POP POP SWAP3 SWAP2 POP POP JUMP JUMPDEST PUSH2 0x600 DUP1 PUSH2 0x100 PUSH0 CODECOPY PUSH0 RETURN INVALID PUSH1 0x80 PUSH1 0x40 MSTORE PUSH1 0x4 CALLDATASIZE LT PUSH2 0x37 JUMPI PUSH0 CALLDATALOAD PUSH1 0xE0 SHR DUP1 PUSH4 0x3CCFD60B EQ PUSH2 0x42 JUMPI DUP1 PUSH4 0x5BC05526 EQ PUSH2 0x58 JUMPI DUP1 PUSH4 0xAABB7554 EQ PUSH2 0x82 JUMPI PUSH2 0x3E JUMP JUMPDEST CALLDATASIZE PUSH2 0x3E JUMPI STOP JUMPDEST PUSH0 PUSH0 REVERT JUMPDEST CALLVALUE DUP1 ISZERO PUSH2 0x4D JUMPI PUSH0 PUSH0 REVERT JUMPDEST POP PUSH2 0x56 PUSH2 0x9E JUMP JUMPDEST STOP JUMPDEST CALLVALUE DUP1 ISZERO PUSH2 0x63 JUMPI PUSH0 PUSH0 REVERT JUMPDEST POP PUSH2 0x6C PUSH2 0xE4 JUMP JUMPDEST PUSH1 0x40 MLOAD PUSH2 0x79 SWAP2 SWAP1 PUSH2 0x382 JUMP JUMPDEST PUSH1 0x40 MLOAD DUP1 SWAP2 SUB SWAP1 RETURN JUMPDEST PUSH2 0x9C PUSH1 0x4 DUP1 CALLDATASIZE SUB DUP2 ADD SWAP1 PUSH2 0x97 SWAP2 SWAP1 PUSH2 0x404 JUMP JUMPDEST PUSH2 0x108 JUMP JUMPDEST STOP JUMPDEST CALLER PUSH20 0xFFFFFFFFFFFFFFFFFFFFFFFFFFFFFFFFFFFFFFFF AND PUSH2 0x8FC SELFBALANCE SWAP1 DUP2 ISZERO MUL SWAP1 PUSH1 0x40 MLOAD PUSH0 PUSH1 0x40 MLOAD DUP1 DUP4 SUB DUP2 DUP6 DUP9 DUP9 CALL SWAP4 POP POP POP POP ISZERO DUP1 ISZERO PUSH2 0xE1 JUMPI RETURNDATASIZE PUSH0 PUSH0 RETURNDATACOPY RETURNDATASIZE PUSH0 REVERT JUMPDEST POP JUMP JUMPDEST PUSH0 PUSH0 SWAP1 SLOAD SWAP1 PUSH2 0x100 EXP SWAP1 DIV PUSH20 0xFFFFFFFFFFFFFFFFFFFFFFFFFFFFFFFFFFFFFFFF AND DUP2 JUMP JUMPDEST PUSH0 PUSH0 SWAP1 POP JUMPDEST PUSH1 0x2 DUP2 LT ISZERO PUSH2 0x1A1 JUMPI PUSH0 PUSH0 SWAP1 SLOAD SWAP1 PUSH2 0x100 EXP SWAP1 DIV PUSH20 0xFFFFFFFFFFFFFFFFFFFFFFFFFFFFFFFFFFFFFFFF AND PUSH20 0xFFFFFFFFFFFFFFFFFFFFFFFFFFFFFFFFFFFFFFFF AND PUSH4 0x2E64CEC1 PUSH1 0x4 PUSH1 0x40 MLOAD DUP3 PUSH4 0xFFFFFFFF AND PUSH1 0xE0 SHL DUP2 MSTORE PUSH1 0x4 ADD PUSH0 PUSH1 0x40 MLOAD DUP1 DUP4 SUB DUP2 DUP6 DUP9 DUP1 EXTCODESIZE ISZERO DUP1 ISZERO PUSH2 0x17D JUMPI PUSH0 PUSH0 REVERT JUMPDEST POP GAS CALL ISZERO DUP1 ISZERO PUSH2 0x18F JUMPI RETURNDATASIZE PUSH0 PUSH0 RETURNDATACOPY RETURNDATASIZE PUSH0 REVERT JUMPDEST POP POP POP POP POP DUP1 DUP1 PUSH1 0x1 ADD SWAP2 POP POP PUSH2 0x10D JUMP JUMPDEST POP PUSH1 0x1 PUSH0 PUSH0 SWAP1 SLOAD SWAP1 PUSH2 0x100 EXP SWAP1 DIV PUSH20 0xFFFFFFFFFFFFFFFFFFFFFFFFFFFFFFFFFFFFFFFF AND PUSH20 0xFFFFFFFFFFFFFFFFFFFFFFFFFFFFFFFFFFFFFFFF AND PUSH4 0xC12327B8 ADDRESS PUSH1 0x40 MLOAD DUP3 PUSH4 0xFFFFFFFF AND PUSH1 0xE0 SHL DUP2 MSTORE PUSH1 0x4 ADD PUSH2 0x1FD SWAP2 SWAP1 PUSH2 0x46F JUMP JUMPDEST PUSH1 0x20 PUSH1 0x40 MLOAD DUP1 DUP4 SUB DUP2 DUP7 GAS STATICCALL ISZERO DUP1 ISZERO PUSH2 0x218 JUMPI RETURNDATASIZE PUSH0 PUSH0 RETURNDATACOPY RETURNDATASIZE PUSH0 REVERT JUMPDEST POP POP POP POP PUSH1 0x40 MLOAD RETURNDATASIZE PUSH1 0x1F NOT PUSH1 0x1F DUP3 ADD AND DUP3 ADD DUP1 PUSH1 0x40 MSTORE POP DUP2 ADD SWAP1 PUSH2 0x23C SWAP2 SWAP1 PUSH2 0x4BB JUMP JUMPDEST GT PUSH2 0x27C JUMPI PUSH1 0x40 MLOAD PUSH32 0x8C379A000000000000000000000000000000000000000000000000000000000 DUP2 MSTORE PUSH1 0x4 ADD PUSH2 0x273 SWAP1 PUSH2 0x540 JUMP JUMPDEST PUSH1 0x40 MLOAD DUP1 SWAP2 SUB SWAP1 REVERT JUMPDEST PUSH0 PUSH0 SWAP1 SLOAD SWAP1 PUSH2 0x100 EXP SWAP1 DIV PUSH20 0xFFFFFFFFFFFFFFFFFFFFFFFFFFFFFFFFFFFFFFFF AND PUSH20 0xFFFFFFFFFFFFFFFFFFFFFFFFFFFFFFFFFFFFFFFF AND PUSH4 0x1D86B167 DUP4 DUP4 PUSH1 0x40 MLOAD DUP4 PUSH4 0xFFFFFFFF AND PUSH1 0xE0 SHL DUP2 MSTORE PUSH1 0x4 ADD PUSH2 0x2D7 SWAP3 SWAP2 SWAP1 PUSH2 0x5A8 JUMP JUMPDEST PUSH0 PUSH1 0x40 MLOAD DUP1 DUP4 SUB DUP2 PUSH0 DUP8 DUP1 EXTCODESIZE ISZERO DUP1 ISZERO PUSH2 0x2EE JUMPI PUSH0 PUSH0 REVERT JUMPDEST POP GAS CALL ISZERO DUP1 ISZERO PUSH2 0x300 JUMPI RETURNDATASIZE PUSH0 PUSH0 RETURNDATACOPY RETURNDATASIZE PUSH0 REVERT JUMPDEST POP POP POP POP POP POP JUMP JUMPDEST PUSH0 PUSH20 0xFFFFFFFFFFFFFFFFFFFFFFFFFFFFFFFFFFFFFFFF DUP3 AND SWAP1 POP SWAP2 SWAP1 POP JUMP JUMPDEST PUSH0 DUP2 SWAP1 POP SWAP2 SWAP1 POP JUMP JUMPDEST PUSH0 PUSH2 0x34A PUSH2 0x345 PUSH2 0x340 DUP5 PUSH2 0x308 JUMP JUMPDEST PUSH2 0x327 JUMP JUMPDEST PUSH2 0x308 JUMP JUMPDEST SWAP1 POP SWAP2 SWAP1 POP JUMP JUMPDEST PUSH0 PUSH2 0x35B DUP3 PUSH2 0x330 JUMP JUMPDEST SWAP1 POP SWAP2 SWAP1 POP JUMP JUMPDEST PUSH0 PUSH2 0x36C DUP3 PUSH2 0x351 JUMP JUMPDEST SWAP1 POP SWAP2 SWAP1 POP JUMP JUMPDEST PUSH2 0x37C DUP2 PUSH2 0x362 JUMP JUMPDEST DUP3 MSTORE POP POP JUMP JUMPDEST PUSH0 PUSH1 0x20 DUP3 ADD SWAP1 POP PUSH2 0x395 PUSH0 DUP4 ADD DUP5 PUSH2 0x373 JUMP JUMPDEST SWAP3 SWAP2 POP POP JUMP JUMPDEST PUSH0 PUSH0 REVERT JUMPDEST PUSH0 PUSH0 REVERT JUMPDEST PUSH0 PUSH0 REVERT JUMPDEST PUSH0 PUSH0 REVERT JUMPDEST PUSH0 PUSH0 REVERT JUMPDEST PUSH0 PUSH0 DUP4 PUSH1 0x1F DUP5 ADD SLT PUSH2 0x3C4 JUMPI PUSH2 0x3C3 PUSH2 0x3A3 JUMP JUMPDEST JUMPDEST DUP3 CALLDATALOAD SWAP1 POP PUSH8 0xFFFFFFFFFFFFFFFF DUP2 GT ISZERO PUSH2 0x3E1 JUMPI PUSH2 0x3E0 PUSH2 0x3A7 JUMP JUMPDEST JUMPDEST PUSH1 0x20 DUP4 ADD SWAP2 POP DUP4 PUSH1 0x1 DUP3 MUL DUP4 ADD GT ISZERO PUSH2 0x3FD JUMPI PUSH2 0x3FC PUSH2 0x3AB JUMP JUMPDEST JUMPDEST SWAP3 POP SWAP3 SWAP1 POP JUMP JUMPDEST PUSH0 PUSH0 PUSH1 0x20 DUP4 DUP6 SUB SLT ISZERO PUSH2 0x41A JUMPI PUSH2 0x419 PUSH2 0x39B JUMP JUMPDEST JUMPDEST PUSH0 DUP4 ADD CALLDATALOAD PUSH8 0xFFFFFFFFFFFFFFFF DUP2 GT ISZERO PUSH2 0x437 JUMPI PUSH2 0x436 PUSH2 0x39F JUMP JUMPDEST JUMPDEST PUSH2 0x443 DUP6 DUP3 DUP7 ADD PUSH2 0x3AF JUMP JUMPDEST SWAP3 POP SWAP3 POP POP SWAP3 POP SWAP3 SWAP1 POP JUMP JUMPDEST PUSH0 PUSH2 0x459 DUP3 PUSH2 0x308 JUMP JUMPDEST SWAP1 POP SWAP2 SWAP1 POP JUMP JUMPDEST PUSH2 0x469 DUP2 PUSH2 0x44F JUMP JUMPDEST DUP3 MSTORE POP POP JUMP JUMPDEST PUSH0 PUSH1 0x20 DUP3 ADD SWAP1 POP PUSH2 0x482 PUSH0 DUP4 ADD DUP5 PUSH2 0x460 JUMP JUMPDEST SWAP3 SWAP2 POP POP JUMP JUMPDEST PUSH0 DUP2 SWAP1 POP SWAP2 SWAP1 POP JUMP JUMPDEST PUSH2 0x49A DUP2 PUSH2 0x488 JUMP JUMPDEST DUP2 EQ PUSH2 0x4A4 JUMPI PUSH0 PUSH0 REVERT JUMPDEST POP JUMP JUMPDEST PUSH0 DUP2 MLOAD SWAP1 POP PUSH2 0x4B5 DUP2 PUSH2 0x491 JUMP JUMPDEST SWAP3 SWAP2 POP POP JUMP JUMPDEST PUSH0 PUSH1 0x20 DUP3 DUP5 SUB SLT ISZERO PUSH2 0x4D0 JUMPI PUSH2 0x4CF PUSH2 0x39B JUMP JUMPDEST JUMPDEST PUSH0 PUSH2 0x4DD DUP5 DUP3 DUP6 ADD PUSH2 0x4A7 JUMP JUMPDEST SWAP2 POP POP SWAP3 SWAP2 POP POP JUMP JUMPDEST PUSH0 DUP3 DUP3 MSTORE PUSH1 0x20 DUP3 ADD SWAP1 POP SWAP3 SWAP2 POP POP JUMP JUMPDEST PUSH32 0x436F756E746572206E6F742073657420636F72726563746C7900000000000000 PUSH0 DUP3 ADD MSTORE POP JUMP JUMPDEST PUSH0 PUSH2 0x52A PUSH1 0x19 DUP4 PUSH2 0x4E6 JUMP JUMPDEST SWAP2 POP PUSH2 0x535 DUP3 PUSH2 0x4F6 JUMP JUMPDEST PUSH1 0x20 DUP3 ADD SWAP1 POP SWAP2 SWAP1 POP JUMP JUMPDEST PUSH0 PUSH1 0x20 DUP3 ADD SWAP1 POP DUP2 DUP2 SUB PUSH0 DUP4 ADD MSTORE PUSH2 0x557 DUP2 PUSH2 0x51E JUMP JUMPDEST SWAP1 POP SWAP2 SWAP1 POP JUMP JUMPDEST DUP3 DUP2 DUP4 CALLDATACOPY PUSH0 DUP4 DUP4 ADD MSTORE POP POP POP JUMP JUMPDEST PUSH0 PUSH1 0x1F NOT PUSH1 0x1F DUP4 ADD AND SWAP1 POP SWAP2 SWAP1 POP JUMP JUMPDEST PUSH0 PUSH2 0x587 DUP4 DUP6 PUSH2 0x4E6 JUMP JUMPDEST SWAP4 POP PUSH2 0x594 DUP4 DUP6 DUP5 PUSH2 0x55E JUMP JUMPDEST PUSH2 0x59D DUP4 PUSH2 0x56C JUMP JUMPDEST DUP5 ADD SWAP1 POP SWAP4 SWAP3 POP POP POP JUMP JUMPDEST PUSH0 PUSH1 0x20 DUP3 ADD SWAP1 POP DUP2 DUP2 SUB PUSH0 DUP4 ADD MSTORE PUSH2 0x5C1 DUP2 DUP5 DUP7 PUSH2 0x57C JUMP JUMPDEST SWAP1 POP SWAP4 SWAP3 POP POP POP JUMP INVALID LOG2 PUSH5 0x6970667358 0x22 SLT KECCAK256 SWAP7 0xA7 BASEFEE 0xC7 PUSH2 0x9F0E SHL 0xB0 0xB9 EXTCODEHASH 0x2A 0xC9 DUP14 TIMESTAMP STATICCALL RETURNDATACOPY DUP12 0xB0 0xAC BASEFEE 0x22 0x2A 0xF BLOCKHASH REVERT 0xB8 0xC0 GAS EXP SWAP9 RJUMP 0x6473 PUSH16 0x6C634300081E00330000000000000000 "
				},
				"gasEstimates": {
					"creation": {
						"codeDepositCost": "307200",
						"executionCost": "infinite",
						"totalCost": "infinite"
					},
					"external": {
						"attack(string)": "infinite",
						"grader()": "infinite",
						"withdraw()": "infinite"
					}
				},
				"methodIdentifiers": {
					"attack(string)": "aabb7554",
					"grader()": "5bc05526",
					"withdraw()": "3ccfd60b"
				}
			},
			"storageLayout": {
				"storage": [
					{
						"astId": 20,
						"contract": "jaquer.sol:Jaquer",
						"label": "grader",
						"offset": 0,
						"slot": "0",
						"type": "t_contract(IGrader5)17"
					}
				],
				"types": {
					"t_contract(IGrader5)17": {
						"encoding": "inplace",
						"label": "contract IGrader5",
						"numberOfBytes": "20"
					}
				}
			},
			"userdoc": {
				"kind": "user",
				"methods": {},
				"version": 1
			}
		}
	}
}