{
	"data": {
		"bytecode": {
			"linkReferences": {},
			"object": "6080604052604051610f38380380610f3883398181016040528101906100259190610108565b3360035f6101000a81548173ffffffffffffffffffffffffffffffffffffffff021916908373ffffffffffffffffffffffffffffffffffffffff160217905550805f5f6101000a81548173ffffffffffffffffffffffffffffffffffffffff021916908373ffffffffffffffffffffffffffffffffffffffff16021790555050610133565b5f5ffd5b5f73ffffffffffffffffffffffffffffffffffffffff82169050919050565b5f6100d7826100ae565b9050919050565b6100e7816100cd565b81146100f1575f5ffd5b50565b5f81519050610102816100de565b92915050565b5f6020828403121561011d5761011c6100aa565b5b5f61012a848285016100f4565b91505092915050565b610df8806101405f395ff3fe608060405260043610610058575f3560e01c80633ccfd60b146102315780635bc05526146102475780638da5cb5b14610271578063aabb75541461029b578063f2ceb75f146102b7578063fdfd5917146102e15761022d565b3661022d5760025f81548092919061006f9061065f565b919050555060015f5f9054906101000a900473ffffffffffffffffffffffffffffffffffffffff1673ffffffffffffffffffffffffffffffffffffffff1663c12327b8306040518263ffffffff1660e01b81526004016100cf91906106e5565b602060405180830381865afa1580156100ea573d5f5f3e3d5ffd5b505050506040513d601f19601f8201168201806040525081019061010e9190610730565b11156101a0575f5f9054906101000a900473ffffffffffffffffffffffffffffffffffffffff1673ffffffffffffffffffffffffffffffffffffffff16631d86b16760016040518263ffffffff1660e01b815260040161016e919061085b565b5f604051808303815f87803b158015610185575f5ffd5b505af1158015610197573d5f5f3e3d5ffd5b5050505061022b565b6003600254101561022a575f5f9054906101000a900473ffffffffffffffffffffffffffffffffffffffff1673ffffffffffffffffffffffffffffffffffffffff16632e64cec160046040518263ffffffff1660e01b81526004015f604051808303818588803b158015610212575f5ffd5b505af1158015610224573d5f5f3e3d5ffd5b50505050505b5b005b5f5ffd5b34801561023c575f5ffd5b5061024561030b565b005b348015610252575f5ffd5b5061025b6103e0565b60405161026891906108d6565b60405180910390f35b34801561027c575f5ffd5b50610285610404565b60405161029291906106e5565b60405180910390f35b6102b560048036038101906102b09190610950565b610429565b005b3480156102c2575f5ffd5b506102cb610597565b6040516102d891906109aa565b60405180910390f35b3480156102ec575f5ffd5b506102f561059d565b6040516103029190610a23565b60405180910390f35b3373ffffffffffffffffffffffffffffffffffffffff1660035f9054906101000a900473ffffffffffffffffffffffffffffffffffffffff1673ffffffffffffffffffffffffffffffffffffffff161461039a576040517f08c379a000000000000000000000000000000000000000000000000000000000815260040161039190610a8d565b60405180910390fd5b3373ffffffffffffffffffffffffffffffffffffffff166108fc4790811502906040515f60405180830381858888f193505050501580156103dd573d5f5f3e3d5ffd5b50565b5f5f9054906101000a900473ffffffffffffffffffffffffffffffffffffffff1681565b60035f9054906101000a900473ffffffffffffffffffffffffffffffffffffffff1681565b3373ffffffffffffffffffffffffffffffffffffffff1660035f9054906101000a900473ffffffffffffffffffffffffffffffffffffffff1673ffffffffffffffffffffffffffffffffffffffff16146104b8576040517f08c379a00000000000000000000000000000000000000000000000000000000081526004016104af90610a8d565b60405180910390fd5b600c3410156104fc576040517f08c379a00000000000000000000000000000000000000000000000000000000081526004016104f390610b1b565b60405180910390fd5b81816001918261050d929190610cf5565b505f6002819055505f5f9054906101000a900473ffffffffffffffffffffffffffffffffffffffff1673ffffffffffffffffffffffffffffffffffffffff16632e64cec160046040518263ffffffff1660e01b81526004015f604051808303818588803b15801561057c575f5ffd5b505af115801561058e573d5f5f3e3d5ffd5b50505050505050565b60025481565b600180546105aa90610788565b80601f01602080910402602001604051908101604052809291908181526020018280546105d690610788565b80156106215780601f106105f857610100808354040283529160200191610621565b820191905f5260205f20905b81548152906001019060200180831161060457829003601f168201915b505050505081565b7f4e487b71000000000000000000000000000000000000000000000000000000005f52601160045260245ffd5b5f819050919050565b5f61066982610656565b91507fffffffffffffffffffffffffffffffffffffffffffffffffffffffffffffffff820361069b5761069a610629565b5b600182019050919050565b5f73ffffffffffffffffffffffffffffffffffffffff82169050919050565b5f6106cf826106a6565b9050919050565b6106df816106c5565b82525050565b5f6020820190506106f85f8301846106d6565b92915050565b5f5ffd5b5f5ffd5b61070f81610656565b8114610719575f5ffd5b50565b5f8151905061072a81610706565b92915050565b5f60208284031215610745576107446106fe565b5b5f6107528482850161071c565b91505092915050565b7f4e487b71000000000000000000000000000000000000000000000000000000005f52602260045260245ffd5b5f600282049050600182168061079f57607f821691505b6020821081036107b2576107b161075b565b5b50919050565b5f82825260208201905092915050565b5f819050815f5260205f209050919050565b5f81546107e681610788565b6107f081866107b8565b9450600182165f811461080a576001811461082057610852565b60ff198316865281151560200286019350610852565b610829856107c8565b5f5b8381101561084a5781548189015260018201915060208101905061082b565b808801955050505b50505092915050565b5f6020820190508181035f83015261087381846107da565b905092915050565b5f819050919050565b5f61089e610899610894846106a6565b61087b565b6106a6565b9050919050565b5f6108af82610884565b9050919050565b5f6108c0826108a5565b9050919050565b6108d0816108b6565b82525050565b5f6020820190506108e95f8301846108c7565b92915050565b5f5ffd5b5f5ffd5b5f5ffd5b5f5f83601f8401126109105761090f6108ef565b5b8235905067ffffffffffffffff81111561092d5761092c6108f3565b5b602083019150836001820283011115610949576109486108f7565b5b9250929050565b5f5f60208385031215610966576109656106fe565b5b5f83013567ffffffffffffffff81111561098357610982610702565b5b61098f858286016108fb565b92509250509250929050565b6109a481610656565b82525050565b5f6020820190506109bd5f83018461099b565b92915050565b5f81519050919050565b8281835e5f83830152505050565b5f601f19601f8301169050919050565b5f6109f5826109c3565b6109ff81856107b8565b9350610a0f8185602086016109cd565b610a18816109db565b840191505092915050565b5f6020820190508181035f830152610a3b81846109eb565b905092915050565b7f43616c6c6572206973206e6f7420746865206f776e65720000000000000000005f82015250565b5f610a776017836107b8565b9150610a8282610a43565b602082019050919050565b5f6020820190508181035f830152610aa481610a6b565b9050919050565b7f496e73756666696369656e74204554483a204e656564206174206c65617374205f8201527f3132207765690000000000000000000000000000000000000000000000000000602082015250565b5f610b056026836107b8565b9150610b1082610aab565b604082019050919050565b5f6020820190508181035f830152610b3281610af9565b9050919050565b5f82905092915050565b7f4e487b71000000000000000000000000000000000000000000000000000000005f52604160045260245ffd5b5f6020601f8301049050919050565b5f82821b905092915050565b5f60088302610bba7fffffffffffffffffffffffffffffffffffffffffffffffffffffffffffffffff82610b7f565b610bc48683610b7f565b95508019841693508086168417925050509392505050565b5f610bf6610bf1610bec84610656565b61087b565b610656565b9050919050565b5f819050919050565b610c0f83610bdc565b610c23610c1b82610bfd565b848454610b8b565b825550505050565b5f5f905090565b610c3a610c2b565b610c45818484610c06565b505050565b5b81811015610c6857610c5d5f82610c32565b600181019050610c4b565b5050565b601f821115610cad57610c7e816107c8565b610c8784610b70565b81016020851015610c96578190505b610caa610ca285610b70565b830182610c4a565b50505b505050565b5f82821c905092915050565b5f610ccd5f1984600802610cb2565b1980831691505092915050565b5f610ce58383610cbe565b9150826002028217905092915050565b610cff8383610b39565b67ffffffffffffffff811115610d1857610d17610b43565b5b610d228254610788565b610d2d828285610c6c565b5f601f831160018114610d5a575f8415610d48578287013590505b610d528582610cda565b865550610db9565b601f198416610d68866107c8565b5f5b82811015610d8f57848901358255600182019150602085019450602081019050610d6a565b86831015610dac5784890135610da8601f891682610cbe565b8355505b6001600288020188555050505b5050505050505056fea26469706673582212208633c41724e068ea1ca734aca555a879174e269ac6b6f7ea93a957dab76c8ef664736f6c634300081e0033",
			"opcodes": "PUSH1 0x80 PUSH1 0x40 MSTORE PUSH1 0x40 MLOAD PUSH2 0xF38 CODESIZE SUB DUP1 PUSH2 0xF38 DUP4 CODECOPY DUP2 DUP2 ADD PUSH1 0x40 MSTORE DUP2 ADD SWAP1 PUSH2 0x25 SWAP2 SWAP1 PUSH2 0x108 JUMP JUMPDEST CALLER PUSH1 0x3 PUSH0 PUSH2 0x100 EXP DUP2 SLOAD DUP2 PUSH20 0xFFFFFFFFFFFFFFFFFFFFFFFFFFFFFFFFFFFFFFFF MUL NOT AND SWAP1 DUP4 PUSH20 0xFFFFFFFFFFFFFFFFFFFFFFFFFFFFFFFFFFFFFFFF AND MUL OR SWAP1 SSTORE POP DUP1 PUSH0 PUSH0 PUSH2 0x100 EXP DUP2 SLOAD DUP2 PUSH20 0xFFFFFFFFFFFFFFFFFFFFFFFFFFFFFFFFFFFFFFFF MUL NOT AND SWAP1 DUP4 PUSH20 0xFFFFFFFFFFFFFFFFFFFFFFFFFFFFFFFFFFFFFFFF AND MUL OR SWAP1 SSTORE POP POP PUSH2 0x133 JUMP JUMPDEST PUSH0 PUSH0 REVERT JUMPDEST PUSH0 PUSH20 0xFFFFFFFFFFFFFFFFFFFFFFFFFFFFFFFFFFFFFFFF DUP3 AND SWAP1 POP SWAP2 SWAP1 POP JUMP JUMPDEST PUSH0 PUSH2 0xD7 DUP3 PUSH2 0xAE JUMP JUMPDEST SWAP1 POP SWAP2 SWAP1 POP JUMP JUMPDEST PUSH2 0xE7 DUP2 PUSH2 0xCD JUMP JUMPDEST DUP2 EQ PUSH2 0xF1 JUMPI PUSH0 PUSH0 REVERT JUMPDEST POP JUMP JUMPDEST PUSH0 DUP2 MLOAD SWAP1 POP PUSH2 0x102 DUP2 PUSH2 0xDE JUMP JUMPDEST SWAP3 SWAP2 POP POP JUMP JUMPDEST PUSH0 PUSH1 0x20 DUP3 DUP5 SUB SLT ISZERO PUSH2 0x11D JUMPI PUSH2 0x11C PUSH2 0xAA JUMP JUMPDEST JUMPDEST PUSH0 PUSH2 0x12A DUP5 DUP3 DUP6 ADD PUSH2 0xF4 JUMP JUMPDEST SWAP2 POP POP SWAP3 SWAP2 POP POP JUMP JUMPDEST PUSH2 0xDF8 DUP1 PUSH2 0x140 PUSH0 CODECOPY PUSH0 RETURN INVALID PUSH1 0x80 PUSH1 0x40 MSTORE PUSH1 0x4 CALLDATASIZE LT PUSH2 0x58 JUMPI PUSH0 CALLDATALOAD PUSH1 0xE0 SHR DUP1 PUSH4 0x3CCFD60B EQ PUSH2 0x231 JUMPI DUP1 PUSH4 0x5BC05526 EQ PUSH2 0x247 JUMPI DUP1 PUSH4 0x8DA5CB5B EQ PUSH2 0x271 JUMPI DUP1 PUSH4 0xAABB7554 EQ PUSH2 0x29B JUMPI DUP1 PUSH4 0xF2CEB75F EQ PUSH2 0x2B7 JUMPI DUP1 PUSH4 0xFDFD5917 EQ PUSH2 0x2E1 JUMPI PUSH2 0x22D JUMP JUMPDEST CALLDATASIZE PUSH2 0x22D JUMPI PUSH1 0x2 PUSH0 DUP2 SLOAD DUP1 SWAP3 SWAP2 SWAP1 PUSH2 0x6F SWAP1 PUSH2 0x65F JUMP JUMPDEST SWAP2 SWAP1 POP SSTORE POP PUSH1 0x1 PUSH0 PUSH0 SWAP1 SLOAD SWAP1 PUSH2 0x100 EXP SWAP1 DIV PUSH20 0xFFFFFFFFFFFFFFFFFFFFFFFFFFFFFFFFFFFFFFFF AND PUSH20 0xFFFFFFFFFFFFFFFFFFFFFFFFFFFFFFFFFFFFFFFF AND PUSH4 0xC12327B8 ADDRESS PUSH1 0x40 MLOAD DUP3 PUSH4 0xFFFFFFFF AND PUSH1 0xE0 SHL DUP2 MSTORE PUSH1 0x4 ADD PUSH2 0xCF SWAP2 SWAP1 PUSH2 0x6E5 JUMP JUMPDEST PUSH1 0x20 PUSH1 0x40 MLOAD DUP1 DUP4 SUB DUP2 DUP7 GAS STATICCALL ISZERO DUP1 ISZERO PUSH2 0xEA JUMPI RETURNDATASIZE PUSH0 PUSH0 RETURNDATACOPY RETURNDATASIZE PUSH0 REVERT JUMPDEST POP POP POP POP PUSH1 0x40 MLOAD RETURNDATASIZE PUSH1 0x1F NOT PUSH1 0x1F DUP3 ADD AND DUP3 ADD DUP1 PUSH1 0x40 MSTORE POP DUP2 ADD SWAP1 PUSH2 0x10E SWAP2 SWAP1 PUSH2 0x730 JUMP JUMPDEST GT ISZERO PUSH2 0x1A0 JUMPI PUSH0 PUSH0 SWAP1 SLOAD SWAP1 PUSH2 0x100 EXP SWAP1 DIV PUSH20 0xFFFFFFFFFFFFFFFFFFFFFFFFFFFFFFFFFFFFFFFF AND PUSH20 0xFFFFFFFFFFFFFFFFFFFFFFFFFFFFFFFFFFFFFFFF AND PUSH4 0x1D86B167 PUSH1 0x1 PUSH1 0x40 MLOAD DUP3 PUSH4 0xFFFFFFFF AND PUSH1 0xE0 SHL DUP2 MSTORE PUSH1 0x4 ADD PUSH2 0x16E SWAP2 SWAP1 PUSH2 0x85B JUMP JUMPDEST PUSH0 PUSH1 0x40 MLOAD DUP1 DUP4 SUB DUP2 PUSH0 DUP8 DUP1 EXTCODESIZE ISZERO DUP1 ISZERO PUSH2 0x185 JUMPI PUSH0 PUSH0 REVERT JUMPDEST POP GAS CALL ISZERO DUP1 ISZERO PUSH2 0x197 JUMPI RETURNDATASIZE PUSH0 PUSH0 RETURNDATACOPY RETURNDATASIZE PUSH0 REVERT JUMPDEST POP POP POP POP PUSH2 0x22B JUMP JUMPDEST PUSH1 0x3 PUSH1 0x2 SLOAD LT ISZERO PUSH2 0x22A JUMPI PUSH0 PUSH0 SWAP1 SLOAD SWAP1 PUSH2 0x100 EXP SWAP1 DIV PUSH20 0xFFFFFFFFFFFFFFFFFFFFFFFFFFFFFFFFFFFFFFFF AND PUSH20 0xFFFFFFFFFFFFFFFFFFFFFFFFFFFFFFFFFFFFFFFF AND PUSH4 0x2E64CEC1 PUSH1 0x4 PUSH1 0x40 MLOAD DUP3 PUSH4 0xFFFFFFFF AND PUSH1 0xE0 SHL DUP2 MSTORE PUSH1 0x4 ADD PUSH0 PUSH1 0x40 MLOAD DUP1 DUP4 SUB DUP2 DUP6 DUP9 DUP1 EXTCODESIZE ISZERO DUP1 ISZERO PUSH2 0x212 JUMPI PUSH0 PUSH0 REVERT JUMPDEST POP GAS CALL ISZERO DUP1 ISZERO PUSH2 0x224 JUMPI RETURNDATASIZE PUSH0 PUSH0 RETURNDATACOPY RETURNDATASIZE PUSH0 REVERT JUMPDEST POP POP POP POP POP JUMPDEST JUMPDEST STOP JUMPDEST PUSH0 PUSH0 REVERT JUMPDEST CALLVALUE DUP1 ISZERO PUSH2 0x23C JUMPI PUSH0 PUSH0 REVERT JUMPDEST POP PUSH2 0x245 PUSH2 0x30B JUMP JUMPDEST STOP JUMPDEST CALLVALUE DUP1 ISZERO PUSH2 0x252 JUMPI PUSH0 PUSH0 REVERT JUMPDEST POP PUSH2 0x25B PUSH2 0x3E0 JUMP JUMPDEST PUSH1 0x40 MLOAD PUSH2 0x268 SWAP2 SWAP1 PUSH2 0x8D6 JUMP JUMPDEST PUSH1 0x40 MLOAD DUP1 SWAP2 SUB SWAP1 RETURN JUMPDEST CALLVALUE DUP1 ISZERO PUSH2 0x27C JUMPI PUSH0 PUSH0 REVERT JUMPDEST POP PUSH2 0x285 PUSH2 0x404 JUMP JUMPDEST PUSH1 0x40 MLOAD PUSH2 0x292 SWAP2 SWAP1 PUSH2 0x6E5 JUMP JUMPDEST PUSH1 0x40 MLOAD DUP1 SWAP2 SUB SWAP1 RETURN JUMPDEST PUSH2 0x2B5 PUSH1 0x4 DUP1 CALLDATASIZE SUB DUP2 ADD SWAP1 PUSH2 0x2B0 SWAP2 SWAP1 PUSH2 0x950 JUMP JUMPDEST PUSH2 0x429 JUMP JUMPDEST STOP JUMPDEST CALLVALUE DUP1 ISZERO PUSH2 0x2C2 JUMPI PUSH0 PUSH0 REVERT JUMPDEST POP PUSH2 0x2CB PUSH2 0x597 JUMP JUMPDEST PUSH1 0x40 MLOAD PUSH2 0x2D8 SWAP2 SWAP1 PUSH2 0x9AA JUMP JUMPDEST PUSH1 0x40 MLOAD DUP1 SWAP2 SUB SWAP1 RETURN JUMPDEST CALLVALUE DUP1 ISZERO PUSH2 0x2EC JUMPI PUSH0 PUSH0 REVERT JUMPDEST POP PUSH2 0x2F5 PUSH2 0x59D JUMP JUMPDEST PUSH1 0x40 MLOAD PUSH2 0x302 SWAP2 SWAP1 PUSH2 0xA23 JUMP JUMPDEST PUSH1 0x40 MLOAD DUP1 SWAP2 SUB SWAP1 RETURN JUMPDEST CALLER PUSH20 0xFFFFFFFFFFFFFFFFFFFFFFFFFFFFFFFFFFFFFFFF AND PUSH1 0x3 PUSH0 SWAP1 SLOAD SWAP1 PUSH2 0x100 EXP SWAP1 DIV PUSH20 0xFFFFFFFFFFFFFFFFFFFFFFFFFFFFFFFFFFFFFFFF AND PUSH20 0xFFFFFFFFFFFFFFFFFFFFFFFFFFFFFFFFFFFFFFFF AND EQ PUSH2 0x39A JUMPI PUSH1 0x40 MLOAD PUSH32 0x8C379A000000000000000000000000000000000000000000000000000000000 DUP2 MSTORE PUSH1 0x4 ADD PUSH2 0x391 SWAP1 PUSH2 0xA8D JUMP JUMPDEST PUSH1 0x40 MLOAD DUP1 SWAP2 SUB SWAP1 REVERT JUMPDEST CALLER PUSH20 0xFFFFFFFFFFFFFFFFFFFFFFFFFFFFFFFFFFFFFFFF AND PUSH2 0x8FC SELFBALANCE SWAP1 DUP2 ISZERO MUL SWAP1 PUSH1 0x40 MLOAD PUSH0 PUSH1 0x40 MLOAD DUP1 DUP4 SUB DUP2 DUP6 DUP9 DUP9 CALL SWAP4 POP POP POP POP ISZERO DUP1 ISZERO PUSH2 0x3DD JUMPI RETURNDATASIZE PUSH0 PUSH0 RETURNDATACOPY RETURNDATASIZE PUSH0 REVERT JUMPDEST POP JUMP JUMPDEST PUSH0 PUSH0 SWAP1 SLOAD SWAP1 PUSH2 0x100 EXP SWAP1 DIV PUSH20 0xFFFFFFFFFFFFFFFFFFFFFFFFFFFFFFFFFFFFFFFF AND DUP2 JUMP JUMPDEST PUSH1 0x3 PUSH0 SWAP1 SLOAD SWAP1 PUSH2 0x100 EXP SWAP1 DIV PUSH20 0xFFFFFFFFFFFFFFFFFFFFFFFFFFFFFFFFFFFFFFFF AND DUP2 JUMP JUMPDEST CALLER PUSH20 0xFFFFFFFFFFFFFFFFFFFFFFFFFFFFFFFFFFFFFFFF AND PUSH1 0x3 PUSH0 SWAP1 SLOAD SWAP1 PUSH2 0x100 EXP SWAP1 DIV PUSH20 0xFFFFFFFFFFFFFFFFFFFFFFFFFFFFFFFFFFFFFFFF AND PUSH20 0xFFFFFFFFFFFFFFFFFFFFFFFFFFFFFFFFFFFFFFFF AND EQ PUSH2 0x4B8 JUMPI PUSH1 0x40 MLOAD PUSH32 0x8C379A000000000000000000000000000000000000000000000000000000000 DUP2 MSTORE PUSH1 0x4 ADD PUSH2 0x4AF SWAP1 PUSH2 0xA8D JUMP JUMPDEST PUSH1 0x40 MLOAD DUP1 SWAP2 SUB SWAP1 REVERT JUMPDEST PUSH1 0xC CALLVALUE LT ISZERO PUSH2 0x4FC JUMPI PUSH1 0x40 MLOAD PUSH32 0x8C379A000000000000000000000000000000000000000000000000000000000 DUP2 MSTORE PUSH1 0x4 ADD PUSH2 0x4F3 SWAP1 PUSH2 0xB1B JUMP JUMPDEST PUSH1 0x40 MLOAD DUP1 SWAP2 SUB SWAP1 REVERT JUMPDEST DUP2 DUP2 PUSH1 0x1 SWAP2 DUP3 PUSH2 0x50D SWAP3 SWAP2 SWAP1 PUSH2 0xCF5 JUMP JUMPDEST POP PUSH0 PUSH1 0x2 DUP2 SWAP1 SSTORE POP PUSH0 PUSH0 SWAP1 SLOAD SWAP1 PUSH2 0x100 EXP SWAP1 DIV PUSH20 0xFFFFFFFFFFFFFFFFFFFFFFFFFFFFFFFFFFFFFFFF AND PUSH20 0xFFFFFFFFFFFFFFFFFFFFFFFFFFFFFFFFFFFFFFFF AND PUSH4 0x2E64CEC1 PUSH1 0x4 PUSH1 0x40 MLOAD DUP3 PUSH4 0xFFFFFFFF AND PUSH1 0xE0 SHL DUP2 MSTORE PUSH1 0x4 ADD PUSH0 PUSH1 0x40 MLOAD DUP1 DUP4 SUB DUP2 DUP6 DUP9 DUP1 EXTCODESIZE ISZERO DUP1 ISZERO PUSH2 0x57C JUMPI PUSH0 PUSH0 REVERT JUMPDEST POP GAS CALL ISZERO DUP1 ISZERO PUSH2 0x58E JUMPI RETURNDATASIZE PUSH0 PUSH0 RETURNDATACOPY RETURNDATASIZE PUSH0 REVERT JUMPDEST POP POP POP POP POP POP POP JUMP JUMPDEST PUSH1 0x2 SLOAD DUP2 JUMP JUMPDEST PUSH1 0x1 DUP1 SLOAD PUSH2 0x5AA SWAP1 PUSH2 0x788 JUMP JUMPDEST DUP1 PUSH1 0x1F ADD PUSH1 0x20 DUP1 SWAP2 DIV MUL PUSH1 0x20 ADD PUSH1 0x40 MLOAD SWAP1 DUP2 ADD PUSH1 0x40 MSTORE DUP1 SWAP3 SWAP2 SWAP1 DUP2 DUP2 MSTORE PUSH1 0x20 ADD DUP3 DUP1 SLOAD PUSH2 0x5D6 SWAP1 PUSH2 0x788 JUMP JUMPDEST DUP1 ISZERO PUSH2 0x621 JUMPI DUP1 PUSH1 0x1F LT PUSH2 0x5F8 JUMPI PUSH2 0x100 DUP1 DUP4 SLOAD DIV MUL DUP4 MSTORE SWAP2 PUSH1 0x20 ADD SWAP2 PUSH2 0x621 JUMP JUMPDEST DUP3 ADD SWAP2 SWAP1 PUSH0 MSTORE PUSH1 0x20 PUSH0 KECCAK256 SWAP1 JUMPDEST DUP2 SLOAD DUP2 MSTORE SWAP1 PUSH1 0x1 ADD SWAP1 PUSH1 0x20 ADD DUP1 DUP4 GT PUSH2 0x604 JUMPI DUP3 SWAP1 SUB PUSH1 0x1F AND DUP3 ADD SWAP2 JUMPDEST POP POP POP POP POP DUP2 JUMP JUMPDEST PUSH32 0x4E487B7100000000000000000000000000000000000000000000000000000000 PUSH0 MSTORE PUSH1 0x11 PUSH1 0x4 MSTORE PUSH1 0x24 PUSH0 REVERT JUMPDEST PUSH0 DUP2 SWAP1 POP SWAP2 SWAP1 POP JUMP JUMPDEST PUSH0 PUSH2 0x669 DUP3 PUSH2 0x656 JUMP JUMPDEST SWAP2 POP PUSH32 0xFFFFFFFFFFFFFFFFFFFFFFFFFFFFFFFFFFFFFFFFFFFFFFFFFFFFFFFFFFFFFFFF DUP3 SUB PUSH2 0x69B JUMPI PUSH2 0x69A PUSH2 0x629 JUMP JUMPDEST JUMPDEST PUSH1 0x1 DUP3 ADD SWAP1 POP SWAP2 SWAP1 POP JUMP JUMPDEST PUSH0 PUSH20 0xFFFFFFFFFFFFFFFFFFFFFFFFFFFFFFFFFFFFFFFF DUP3 AND SWAP1 POP SWAP2 SWAP1 POP JUMP JUMPDEST PUSH0 PUSH2 0x6CF DUP3 PUSH2 0x6A6 JUMP JUMPDEST SWAP1 POP SWAP2 SWAP1 POP JUMP JUMPDEST PUSH2 0x6DF DUP2 PUSH2 0x6C5 JUMP JUMPDEST DUP3 MSTORE POP POP JUMP JUMPDEST PUSH0 PUSH1 0x20 DUP3 ADD SWAP1 POP PUSH2 0x6F8 PUSH0 DUP4 ADD DUP5 PUSH2 0x6D6 JUMP JUMPDEST SWAP3 SWAP2 POP POP JUMP JUMPDEST PUSH0 PUSH0 REVERT JUMPDEST PUSH0 PUSH0 REVERT JUMPDEST PUSH2 0x70F DUP2 PUSH2 0x656 JUMP JUMPDEST DUP2 EQ PUSH2 0x719 JUMPI PUSH0 PUSH0 REVERT JUMPDEST POP JUMP JUMPDEST PUSH0 DUP2 MLOAD SWAP1 POP PUSH2 0x72A DUP2 PUSH2 0x706 JUMP JUMPDEST SWAP3 SWAP2 POP POP JUMP JUMPDEST PUSH0 PUSH1 0x20 DUP3 DUP5 SUB SLT ISZERO PUSH2 0x745 JUMPI PUSH2 0x744 PUSH2 0x6FE JUMP JUMPDEST JUMPDEST PUSH0 PUSH2 0x752 DUP5 DUP3 DUP6 ADD PUSH2 0x71C JUMP JUMPDEST SWAP2 POP POP SWAP3 SWAP2 POP POP JUMP JUMPDEST PUSH32 0x4E487B7100000000000000000000000000000000000000000000000000000000 PUSH0 MSTORE PUSH1 0x22 PUSH1 0x4 MSTORE PUSH1 0x24 PUSH0 REVERT JUMPDEST PUSH0 PUSH1 0x2 DUP3 DIV SWAP1 POP PUSH1 0x1 DUP3 AND DUP1 PUSH2 0x79F JUMPI PUSH1 0x7F DUP3 AND SWAP2 POP JUMPDEST PUSH1 0x20 DUP3 LT DUP2 SUB PUSH2 0x7B2 JUMPI PUSH2 0x7B1 PUSH2 0x75B JUMP JUMPDEST JUMPDEST POP SWAP2 SWAP1 POP JUMP JUMPDEST PUSH0 DUP3 DUP3 MSTORE PUSH1 0x20 DUP3 ADD SWAP1 POP SWAP3 SWAP2 POP POP JUMP JUMPDEST PUSH0 DUP2 SWAP1 POP DUP2 PUSH0 MSTORE PUSH1 0x20 PUSH0 KECCAK256 SWAP1 POP SWAP2 SWAP1 POP JUMP JUMPDEST PUSH0 DUP2 SLOAD PUSH2 0x7E6 DUP2 PUSH2 0x788 JUMP JUMPDEST PUSH2 0x7F0 DUP2 DUP7 PUSH2 0x7B8 JUMP JUMPDEST SWAP5 POP PUSH1 0x1 DUP3 AND PUSH0 DUP2 EQ PUSH2 0x80A JUMPI PUSH1 0x1 DUP2 EQ PUSH2 0x820 JUMPI PUSH2 0x852 JUMP JUMPDEST PUSH1 0xFF NOT DUP4 AND DUP7 MSTORE DUP2 ISZERO ISZERO PUSH1 0x20 MUL DUP7 ADD SWAP4 POP PUSH2 0x852 JUMP JUMPDEST PUSH2 0x829 DUP6 PUSH2 0x7C8 JUMP JUMPDEST PUSH0 JUMPDEST DUP4 DUP2 LT ISZERO PUSH2 0x84A JUMPI DUP2 SLOAD DUP2 DUP10 ADD MSTORE PUSH1 0x1 DUP3 ADD SWAP2 POP PUSH1 0x20 DUP2 ADD SWAP1 POP PUSH2 0x82B JUMP JUMPDEST DUP1 DUP9 ADD SWAP6 POP POP POP JUMPDEST POP POP POP SWAP3 SWAP2 POP POP JUMP JUMPDEST PUSH0 PUSH1 0x20 DUP3 ADD SWAP1 POP DUP2 DUP2 SUB PUSH0 DUP4 ADD MSTORE PUSH2 0x873 DUP2 DUP5 PUSH2 0x7DA JUMP JUMPDEST SWAP1 POP SWAP3 SWAP2 POP POP JUMP JUMPDEST PUSH0 DUP2 SWAP1 POP SWAP2 SWAP1 POP JUMP JUMPDEST PUSH0 PUSH2 0x89E PUSH2 0x899 PUSH2 0x894 DUP5 PUSH2 0x6A6 JUMP JUMPDEST PUSH2 0x87B JUMP JUMPDEST PUSH2 0x6A6 JUMP JUMPDEST SWAP1 POP SWAP2 SWAP1 POP JUMP JUMPDEST PUSH0 PUSH2 0x8AF DUP3 PUSH2 0x884 JUMP JUMPDEST SWAP1 POP SWAP2 SWAP1 POP JUMP JUMPDEST PUSH0 PUSH2 0x8C0 DUP3 PUSH2 0x8A5 JUMP JUMPDEST SWAP1 POP SWAP2 SWAP1 POP JUMP JUMPDEST PUSH2 0x8D0 DUP2 PUSH2 0x8B6 JUMP JUMPDEST DUP3 MSTORE POP POP JUMP JUMPDEST PUSH0 PUSH1 0x20 DUP3 ADD SWAP1 POP PUSH2 0x8E9 PUSH0 DUP4 ADD DUP5 PUSH2 0x8C7 JUMP JUMPDEST SWAP3 SWAP2 POP POP JUMP JUMPDEST PUSH0 PUSH0 REVERT JUMPDEST PUSH0 PUSH0 REVERT JUMPDEST PUSH0 PUSH0 REVERT JUMPDEST PUSH0 PUSH0 DUP4 PUSH1 0x1F DUP5 ADD SLT PUSH2 0x910 JUMPI PUSH2 0x90F PUSH2 0x8EF JUMP JUMPDEST JUMPDEST DUP3 CALLDATALOAD SWAP1 POP PUSH8 0xFFFFFFFFFFFFFFFF DUP2 GT ISZERO PUSH2 0x92D JUMPI PUSH2 0x92C PUSH2 0x8F3 JUMP JUMPDEST JUMPDEST PUSH1 0x20 DUP4 ADD SWAP2 POP DUP4 PUSH1 0x1 DUP3 MUL DUP4 ADD GT ISZERO PUSH2 0x949 JUMPI PUSH2 0x948 PUSH2 0x8F7 JUMP JUMPDEST JUMPDEST SWAP3 POP SWAP3 SWAP1 POP JUMP JUMPDEST PUSH0 PUSH0 PUSH1 0x20 DUP4 DUP6 SUB SLT ISZERO PUSH2 0x966 JUMPI PUSH2 0x965 PUSH2 0x6FE JUMP JUMPDEST JUMPDEST PUSH0 DUP4 ADD CALLDATALOAD PUSH8 0xFFFFFFFFFFFFFFFF DUP2 GT ISZERO PUSH2 0x983 JUMPI PUSH2 0x982 PUSH2 0x702 JUMP JUMPDEST JUMPDEST PUSH2 0x98F DUP6 DUP3 DUP7 ADD PUSH2 0x8FB JUMP JUMPDEST SWAP3 POP SWAP3 POP POP SWAP3 POP SWAP3 SWAP1 POP JUMP JUMPDEST PUSH2 0x9A4 DUP2 PUSH2 0x656 JUMP JUMPDEST DUP3 MSTORE POP POP JUMP JUMPDEST PUSH0 PUSH1 0x20 DUP3 ADD SWAP1 POP PUSH2 0x9BD PUSH0 DUP4 ADD DUP5 PUSH2 0x99B JUMP JUMPDEST SWAP3 SWAP2 POP POP JUMP JUMPDEST PUSH0 DUP2 MLOAD SWAP1 POP SWAP2 SWAP1 POP JUMP JUMPDEST DUP3 DUP2 DUP4 MCOPY PUSH0 DUP4 DUP4 ADD MSTORE POP POP POP JUMP JUMPDEST PUSH0 PUSH1 0x1F NOT PUSH1 0x1F DUP4 ADD AND SWAP1 POP SWAP2 SWAP1 POP JUMP JUMPDEST PUSH0 PUSH2 0x9F5 DUP3 PUSH2 0x9C3 JUMP JUMPDEST PUSH2 0x9FF DUP2 DUP6 PUSH2 0x7B8 JUMP JUMPDEST SWAP4 POP PUSH2 0xA0F DUP2 DUP6 PUSH1 0x20 DUP7 ADD PUSH2 0x9CD JUMP JUMPDEST PUSH2 0xA18 DUP2 PUSH2 0x9DB JUMP JUMPDEST DUP5 ADD SWAP2 POP POP SWAP3 SWAP2 POP POP JUMP JUMPDEST PUSH0 PUSH1 0x20 DUP3 ADD SWAP1 POP DUP2 DUP2 SUB PUSH0 DUP4 ADD MSTORE PUSH2 0xA3B DUP2 DUP5 PUSH2 0x9EB JUMP JUMPDEST SWAP1 POP SWAP3 SWAP2 POP POP JUMP JUMPDEST PUSH32 0x43616C6C6572206973206E6F7420746865206F776E6572000000000000000000 PUSH0 DUP3 ADD MSTORE POP JUMP JUMPDEST PUSH0 PUSH2 0xA77 PUSH1 0x17 DUP4 PUSH2 0x7B8 JUMP JUMPDEST SWAP2 POP PUSH2 0xA82 DUP3 PUSH2 0xA43 JUMP JUMPDEST PUSH1 0x20 DUP3 ADD SWAP1 POP SWAP2 SWAP1 POP JUMP JUMPDEST PUSH0 PUSH1 0x20 DUP3 ADD SWAP1 POP DUP2 DUP2 SUB PUSH0 DUP4 ADD MSTORE PUSH2 0xAA4 DUP2 PUSH2 0xA6B JUMP JUMPDEST SWAP1 POP SWAP2 SWAP1 POP JUMP JUMPDEST PUSH32 0x496E73756666696369656E74204554483A204E656564206174206C6561737420 PUSH0 DUP3 ADD MSTORE PUSH32 0x3132207765690000000000000000000000000000000000000000000000000000 PUSH1 0x20 DUP3 ADD MSTORE POP JUMP JUMPDEST PUSH0 PUSH2 0xB05 PUSH1 0x26 DUP4 PUSH2 0x7B8 JUMP JUMPDEST SWAP2 POP PUSH2 0xB10 DUP3 PUSH2 0xAAB JUMP JUMPDEST PUSH1 0x40 DUP3 ADD SWAP1 POP SWAP2 SWAP1 POP JUMP JUMPDEST PUSH0 PUSH1 0x20 DUP3 ADD SWAP1 POP DUP2 DUP2 SUB PUSH0 DUP4 ADD MSTORE PUSH2 0xB32 DUP2 PUSH2 0xAF9 JUMP JUMPDEST SWAP1 POP SWAP2 SWAP1 POP JUMP JUMPDEST PUSH0 DUP3 SWAP1 POP SWAP3 SWAP2 POP POP JUMP JUMPDEST PUSH32 0x4E487B7100000000000000000000000000000000000000000000000000000000 PUSH0 MSTORE PUSH1 0x41 PUSH1 0x4 MSTORE PUSH1 0x24 PUSH0 REVERT JUMPDEST PUSH0 PUSH1 0x20 PUSH1 0x1F DUP4 ADD DIV SWAP1 POP SWAP2 SWAP1 POP JUMP JUMPDEST PUSH0 DUP3 DUP3 SHL SWAP1 POP SWAP3 SWAP2 POP POP JUMP JUMPDEST PUSH0 PUSH1 0x8 DUP4 MUL PUSH2 0xBBA PUSH32 0xFFFFFFFFFFFFFFFFFFFFFFFFFFFFFFFFFFFFFFFFFFFFFFFFFFFFFFFFFFFFFFFF DUP3 PUSH2 0xB7F JUMP JUMPDEST PUSH2 0xBC4 DUP7 DUP4 PUSH2 0xB7F JUMP JUMPDEST SWAP6 POP DUP1 NOT DUP5 AND SWAP4 POP DUP1 DUP7 AND DUP5 OR SWAP3 POP POP POP SWAP4 SWAP3 POP POP POP JUMP JUMPDEST PUSH0 PUSH2 0xBF6 PUSH2 0xBF1 PUSH2 0xBEC DUP5 PUSH2 0x656 JUMP JUMPDEST PUSH2 0x87B JUMP JUMPDEST PUSH2 0x656 JUMP JUMPDEST SWAP1 POP SWAP2 SWAP1 POP JUMP JUMPDEST PUSH0 DUP2 SWAP1 POP SWAP2 SWAP1 POP JUMP JUMPDEST PUSH2 0xC0F DUP4 PUSH2 0xBDC JUMP JUMPDEST PUSH2 0xC23 PUSH2 0xC1B DUP3 PUSH2 0xBFD JUMP JUMPDEST DUP5 DUP5 SLOAD PUSH2 0xB8B JUMP JUMPDEST DUP3 SSTORE POP POP POP POP JUMP JUMPDEST PUSH0 PUSH0 SWAP1 POP SWAP1 JUMP JUMPDEST PUSH2 0xC3A PUSH2 0xC2B JUMP JUMPDEST PUSH2 0xC45 DUP2 DUP5 DUP5 PUSH2 0xC06 JUMP JUMPDEST POP POP POP JUMP JUMPDEST JUMPDEST DUP2 DUP2 LT ISZERO PUSH2 0xC68 JUMPI PUSH2 0xC5D PUSH0 DUP3 PUSH2 0xC32 JUMP JUMPDEST PUSH1 0x1 DUP2 ADD SWAP1 POP PUSH2 0xC4B JUMP JUMPDEST POP POP JUMP JUMPDEST PUSH1 0x1F DUP3 GT ISZERO PUSH2 0xCAD JUMPI PUSH2 0xC7E DUP2 PUSH2 0x7C8 JUMP JUMPDEST PUSH2 0xC87 DUP5 PUSH2 0xB70 JUMP JUMPDEST DUP2 ADD PUSH1 0x20 DUP6 LT ISZERO PUSH2 0xC96 JUMPI DUP2 SWAP1 POP JUMPDEST PUSH2 0xCAA PUSH2 0xCA2 DUP6 PUSH2 0xB70 JUMP JUMPDEST DUP4 ADD DUP3 PUSH2 0xC4A JUMP JUMPDEST POP POP JUMPDEST POP POP POP JUMP JUMPDEST PUSH0 DUP3 DUP3 SHR SWAP1 POP SWAP3 SWAP2 POP POP JUMP JUMPDEST PUSH0 PUSH2 0xCCD PUSH0 NOT DUP5 PUSH1 0x8 MUL PUSH2 0xCB2 JUMP JUMPDEST NOT DUP1 DUP4 AND SWAP2 POP POP SWAP3 SWAP2 POP POP JUMP JUMPDEST PUSH0 PUSH2 0xCE5 DUP4 DUP4 PUSH2 0xCBE JUMP JUMPDEST SWAP2 POP DUP3 PUSH1 0x2 MUL DUP3 OR SWAP1 POP SWAP3 SWAP2 POP POP JUMP JUMPDEST PUSH2 0xCFF DUP4 DUP4 PUSH2 0xB39 JUMP JUMPDEST PUSH8 0xFFFFFFFFFFFFFFFF DUP2 GT ISZERO PUSH2 0xD18 JUMPI PUSH2 0xD17 PUSH2 0xB43 JUMP JUMPDEST JUMPDEST PUSH2 0xD22 DUP3 SLOAD PUSH2 0x788 JUMP JUMPDEST PUSH2 0xD2D DUP3 DUP3 DUP6 PUSH2 0xC6C JUMP JUMPDEST PUSH0 PUSH1 0x1F DUP4 GT PUSH1 0x1 DUP2 EQ PUSH2 0xD5A JUMPI PUSH0 DUP5 ISZERO PUSH2 0xD48 JUMPI DUP3 DUP8 ADD CALLDATALOAD SWAP1 POP JUMPDEST PUSH2 0xD52 DUP6 DUP3 PUSH2 0xCDA JUMP JUMPDEST DUP7 SSTORE POP PUSH2 0xDB9 JUMP JUMPDEST PUSH1 0x1F NOT DUP5 AND PUSH2 0xD68 DUP7 PUSH2 0x7C8 JUMP JUMPDEST PUSH0 JUMPDEST DUP3 DUP2 LT ISZERO PUSH2 0xD8F JUMPI DUP5 DUP10 ADD CALLDATALOAD DUP3 SSTORE PUSH1 0x1 DUP3 ADD SWAP2 POP PUSH1 0x20 DUP6 ADD SWAP5 POP PUSH1 0x20 DUP2 ADD SWAP1 POP PUSH2 0xD6A JUMP JUMPDEST DUP7 DUP4 LT ISZERO PUSH2 0xDAC JUMPI DUP5 DUP10 ADD CALLDATALOAD PUSH2 0xDA8 PUSH1 0x1F DUP10 AND DUP3 PUSH2 0xCBE JUMP JUMPDEST DUP4 SSTORE POP JUMPDEST PUSH1 0x1 PUSH1 0x2 DUP9 MUL ADD DUP9 SSTORE POP POP POP JUMPDEST POP POP POP POP POP POP POP JUMP INVALID LOG2 PUSH5 0x6970667358 0x22 SLT KECCAK256 DUP7 CALLER 0xC4 OR 0x24 RJUMP 0x68EA SHR 0xA7 CALLVALUE 0xAC 0xA5 SSTORE 0xA8 PUSH26 0x174E269AC6B6F7EA93A957DAB76C8EF664736F6C634300081E00 CALLER "
		},
		"gasEstimates": {
			"creation": {
				"codeDepositCost": "715200",
				"executionCost": "infinite",
				"totalCost": "infinite"
			},
			"external": {
				"attack(string)": "infinite",
				"grader()": "infinite",
				"owner()": "2530",
				"retrieveCount()": "2491",
				"targetName()": "infinite",
				"withdraw()": "infinite"
			}
		},
		"methodIdentifiers": {
			"attack(string)": "aabb7554",
			"grader()": "5bc05526",
			"owner()": "8da5cb5b",
			"retrieveCount()": "f2ceb75f",
			"targetName()": "fdfd5917",
			"withdraw()": "3ccfd60b"
		}
	},
	"abi": [
		{
			"inputs": [
				{
					"internalType": "address",
					"name": "graderAddress",
					"type": "address"
				}
			],
			"stateMutability": "payable",
			"type": "constructor"
		},
		{
			"inputs": [
				{
					"internalType": "string",
					"name": "name",
					"type": "string"
				}
			],
			"name": "attack",
			"outputs": [],
			"stateMutability": "payable",
			"type": "function"
		},
		{
			"inputs": [],
			"name": "grader",
			"outputs": [
				{
					"internalType": "contract IGrader5",
					"name": "",
					"type": "address"
				}
			],
			"stateMutability": "view",
			"type": "function"
		},
		{
			"inputs": [],
			"name": "owner",
			"outputs": [
				{
					"internalType": "address",
					"name": "",
					"type": "address"
				}
			],
			"stateMutability": "view",
			"type": "function"
		},
		{
			"inputs": [],
			"name": "retrieveCount",
			"outputs": [
				{
					"internalType": "uint256",
					"name": "",
					"type": "uint256"
				}
			],
			"stateMutability": "view",
			"type": "function"
		},
		{
			"inputs": [],
			"name": "targetName",
			"outputs": [
				{
					"internalType": "string",
					"name": "",
					"type": "string"
				}
			],
			"stateMutability": "view",
			"type": "function"
		},
		{
			"inputs": [],
			"name": "withdraw",
			"outputs": [],
			"stateMutability": "nonpayable",
			"type": "function"
		},
		{
			"stateMutability": "payable",
			"type": "receive"
		}
	]
}