{
	"data": {
		"bytecode": {
			"linkReferences": {},
			"object": "6080604052636876c1505f553480156015575f5ffd5b506106ba806100235f395ff3fe608060405234801561000f575f5ffd5b506004361061003f575f3560e01c80631845714a146100435780631ca989cf14610061578063448b21231461006b575b5f5ffd5b61004b610089565b6040516100589190610513565b60405180910390f35b61006961008e565b005b61007361026c565b6040516100809190610513565b60405180910390f35b5f5481565b612a305f5461009d9190610559565b6001819055506100ae600154610272565b60025f60035f60045f60055f60065f60075f8c919050558b919050558a919050558991905055889190505587919050555050505050506101256040518060400160405280600781526020017f20796561723a2000000000000000000000000000000000000000000000000000815250600254610313565b6101666040518060400160405280600881526020017f206d6f6e74683a20000000000000000000000000000000000000000000000000815250600354610313565b6101a76040518060400160405280600581526020017f6461793a20000000000000000000000000000000000000000000000000000000815250600454610313565b6101e86040518060400160405280600781526020017f20686f75723a2000000000000000000000000000000000000000000000000000815250600554610313565b6102296040518060400160405280600981526020017f206d696e7574653a200000000000000000000000000000000000000000000000815250600654610313565b61026a6040518060400160405280600981526020017f207365636f6e643a200000000000000000000000000000000000000000000000815250600754610313565b565b60015481565b5f5f5f5f5f5f61029462015180888161028e5761028d61058c565b5b046103af565b8096508197508298505050505f6201518088816102b4576102b361058c565b5b069050610e1081816102c9576102c861058c565b5b049350610e1081816102de576102dd61058c565b5b069050603c81816102f2576102f161058c565b5b049250603c81816103065761030561058c565b5b0691505091939550919395565b6103ab8282604051602401610329929190610629565b6040516020818303038152906040527fb60e72cc000000000000000000000000000000000000000000000000000000007bffffffffffffffffffffffffffffffffffffffffffffffffffffffff19166020820180517bffffffffffffffffffffffffffffffffffffffffffffffffffffffff83818316178352505050506104ad565b5050565b5f5f5f5f8490505f62253d8c62010bd983010190505f62023ab182600402816103db576103da61058c565b5b059050600460038262023ab10201816103f7576103f661058c565b5b05820391505f62164b0960018401610fa002816104175761041661058c565b5b059050601f6004826105b502816104315761043061058c565b5b0584030192505f61098f846050028161044d5761044c61058c565b5b0590505f60508261098f02816104665761046561058c565b5b0585039050600b828161047c5761047b61058c565b5b05945084600c0260028301039150848360318603606402010192508298508197508096505050505050509193909250565b6104c4816104bc6104c76104e6565b63ffffffff16565b50565b5f6a636f6e736f6c652e6c6f6790505f5f835160208501845afa505050565b6104f1819050919050565b6104f9610657565b565b5f819050919050565b61050d816104fb565b82525050565b5f6020820190506105265f830184610504565b92915050565b7f4e487b71000000000000000000000000000000000000000000000000000000005f52601160045260245ffd5b5f610563826104fb565b915061056e836104fb565b92508282039050818111156105865761058561052c565b5b92915050565b7f4e487b71000000000000000000000000000000000000000000000000000000005f52601260045260245ffd5b5f81519050919050565b5f82825260208201905092915050565b8281835e5f83830152505050565b5f601f19601f8301169050919050565b5f6105fb826105b9565b61060581856105c3565b93506106158185602086016105d3565b61061e816105e1565b840191505092915050565b5f6040820190508181035f83015261064181856105f1565b90506106506020830184610504565b9392505050565b7f4e487b71000000000000000000000000000000000000000000000000000000005f52605160045260245ffdfea2646970667358221220e49513339669192fe524f8b71c515ccbacbe327f2bc0ab95cefdcf0aadf0f0a464736f6c634300081e0033",
			"opcodes": "PUSH1 0x80 PUSH1 0x40 MSTORE PUSH4 0x6876C150 PUSH0 SSTORE CALLVALUE DUP1 ISZERO PUSH1 0x15 JUMPI PUSH0 PUSH0 REVERT JUMPDEST POP PUSH2 0x6BA DUP1 PUSH2 0x23 PUSH0 CODECOPY PUSH0 RETURN INVALID PUSH1 0x80 PUSH1 0x40 MSTORE CALLVALUE DUP1 ISZERO PUSH2 0xF JUMPI PUSH0 PUSH0 REVERT JUMPDEST POP PUSH1 0x4 CALLDATASIZE LT PUSH2 0x3F JUMPI PUSH0 CALLDATALOAD PUSH1 0xE0 SHR DUP1 PUSH4 0x1845714A EQ PUSH2 0x43 JUMPI DUP1 PUSH4 0x1CA989CF EQ PUSH2 0x61 JUMPI DUP1 PUSH4 0x448B2123 EQ PUSH2 0x6B JUMPI JUMPDEST PUSH0 PUSH0 REVERT JUMPDEST PUSH2 0x4B PUSH2 0x89 JUMP JUMPDEST PUSH1 0x40 MLOAD PUSH2 0x58 SWAP2 SWAP1 PUSH2 0x513 JUMP JUMPDEST PUSH1 0x40 MLOAD DUP1 SWAP2 SUB SWAP1 RETURN JUMPDEST PUSH2 0x69 PUSH2 0x8E JUMP JUMPDEST STOP JUMPDEST PUSH2 0x73 PUSH2 0x26C JUMP JUMPDEST PUSH1 0x40 MLOAD PUSH2 0x80 SWAP2 SWAP1 PUSH2 0x513 JUMP JUMPDEST PUSH1 0x40 MLOAD DUP1 SWAP2 SUB SWAP1 RETURN JUMPDEST PUSH0 SLOAD DUP2 JUMP JUMPDEST PUSH2 0x2A30 PUSH0 SLOAD PUSH2 0x9D SWAP2 SWAP1 PUSH2 0x559 JUMP JUMPDEST PUSH1 0x1 DUP2 SWAP1 SSTORE POP PUSH2 0xAE PUSH1 0x1 SLOAD PUSH2 0x272 JUMP JUMPDEST PUSH1 0x2 PUSH0 PUSH1 0x3 PUSH0 PUSH1 0x4 PUSH0 PUSH1 0x5 PUSH0 PUSH1 0x6 PUSH0 PUSH1 0x7 PUSH0 DUP13 SWAP2 SWAP1 POP SSTORE DUP12 SWAP2 SWAP1 POP SSTORE DUP11 SWAP2 SWAP1 POP SSTORE DUP10 SWAP2 SWAP1 POP SSTORE DUP9 SWAP2 SWAP1 POP SSTORE DUP8 SWAP2 SWAP1 POP SSTORE POP POP POP POP POP POP PUSH2 0x125 PUSH1 0x40 MLOAD DUP1 PUSH1 0x40 ADD PUSH1 0x40 MSTORE DUP1 PUSH1 0x7 DUP2 MSTORE PUSH1 0x20 ADD PUSH32 0x20796561723A2000000000000000000000000000000000000000000000000000 DUP2 MSTORE POP PUSH1 0x2 SLOAD PUSH2 0x313 JUMP JUMPDEST PUSH2 0x166 PUSH1 0x40 MLOAD DUP1 PUSH1 0x40 ADD PUSH1 0x40 MSTORE DUP1 PUSH1 0x8 DUP2 MSTORE PUSH1 0x20 ADD PUSH32 0x206D6F6E74683A20000000000000000000000000000000000000000000000000 DUP2 MSTORE POP PUSH1 0x3 SLOAD PUSH2 0x313 JUMP JUMPDEST PUSH2 0x1A7 PUSH1 0x40 MLOAD DUP1 PUSH1 0x40 ADD PUSH1 0x40 MSTORE DUP1 PUSH1 0x5 DUP2 MSTORE PUSH1 0x20 ADD PUSH32 0x6461793A20000000000000000000000000000000000000000000000000000000 DUP2 MSTORE POP PUSH1 0x4 SLOAD PUSH2 0x313 JUMP JUMPDEST PUSH2 0x1E8 PUSH1 0x40 MLOAD DUP1 PUSH1 0x40 ADD PUSH1 0x40 MSTORE DUP1 PUSH1 0x7 DUP2 MSTORE PUSH1 0x20 ADD PUSH32 0x20686F75723A2000000000000000000000000000000000000000000000000000 DUP2 MSTORE POP PUSH1 0x5 SLOAD PUSH2 0x313 JUMP JUMPDEST PUSH2 0x229 PUSH1 0x40 MLOAD DUP1 PUSH1 0x40 ADD PUSH1 0x40 MSTORE DUP1 PUSH1 0x9 DUP2 MSTORE PUSH1 0x20 ADD PUSH32 0x206D696E7574653A200000000000000000000000000000000000000000000000 DUP2 MSTORE POP PUSH1 0x6 SLOAD PUSH2 0x313 JUMP JUMPDEST PUSH2 0x26A PUSH1 0x40 MLOAD DUP1 PUSH1 0x40 ADD PUSH1 0x40 MSTORE DUP1 PUSH1 0x9 DUP2 MSTORE PUSH1 0x20 ADD PUSH32 0x207365636F6E643A200000000000000000000000000000000000000000000000 DUP2 MSTORE POP PUSH1 0x7 SLOAD PUSH2 0x313 JUMP JUMPDEST JUMP JUMPDEST PUSH1 0x1 SLOAD DUP2 JUMP JUMPDEST PUSH0 PUSH0 PUSH0 PUSH0 PUSH0 PUSH0 PUSH2 0x294 PUSH3 0x15180 DUP9 DUP2 PUSH2 0x28E JUMPI PUSH2 0x28D PUSH2 0x58C JUMP JUMPDEST JUMPDEST DIV PUSH2 0x3AF JUMP JUMPDEST DUP1 SWAP7 POP DUP2 SWAP8 POP DUP3 SWAP9 POP POP POP POP PUSH0 PUSH3 0x15180 DUP9 DUP2 PUSH2 0x2B4 JUMPI PUSH2 0x2B3 PUSH2 0x58C JUMP JUMPDEST JUMPDEST MOD SWAP1 POP PUSH2 0xE10 DUP2 DUP2 PUSH2 0x2C9 JUMPI PUSH2 0x2C8 PUSH2 0x58C JUMP JUMPDEST JUMPDEST DIV SWAP4 POP PUSH2 0xE10 DUP2 DUP2 PUSH2 0x2DE JUMPI PUSH2 0x2DD PUSH2 0x58C JUMP JUMPDEST JUMPDEST MOD SWAP1 POP PUSH1 0x3C DUP2 DUP2 PUSH2 0x2F2 JUMPI PUSH2 0x2F1 PUSH2 0x58C JUMP JUMPDEST JUMPDEST DIV SWAP3 POP PUSH1 0x3C DUP2 DUP2 PUSH2 0x306 JUMPI PUSH2 0x305 PUSH2 0x58C JUMP JUMPDEST JUMPDEST MOD SWAP2 POP POP SWAP2 SWAP4 SWAP6 POP SWAP2 SWAP4 SWAP6 JUMP JUMPDEST PUSH2 0x3AB DUP3 DUP3 PUSH1 0x40 MLOAD PUSH1 0x24 ADD PUSH2 0x329 SWAP3 SWAP2 SWAP1 PUSH2 0x629 JUMP JUMPDEST PUSH1 0x40 MLOAD PUSH1 0x20 DUP2 DUP4 SUB SUB DUP2 MSTORE SWAP1 PUSH1 0x40 MSTORE PUSH32 0xB60E72CC00000000000000000000000000000000000000000000000000000000 PUSH28 0xFFFFFFFFFFFFFFFFFFFFFFFFFFFFFFFFFFFFFFFFFFFFFFFFFFFFFFFF NOT AND PUSH1 0x20 DUP3 ADD DUP1 MLOAD PUSH28 0xFFFFFFFFFFFFFFFFFFFFFFFFFFFFFFFFFFFFFFFFFFFFFFFFFFFFFFFF DUP4 DUP2 DUP4 AND OR DUP4 MSTORE POP POP POP POP PUSH2 0x4AD JUMP JUMPDEST POP POP JUMP JUMPDEST PUSH0 PUSH0 PUSH0 PUSH0 DUP5 SWAP1 POP PUSH0 PUSH3 0x253D8C PUSH3 0x10BD9 DUP4 ADD ADD SWAP1 POP PUSH0 PUSH3 0x23AB1 DUP3 PUSH1 0x4 MUL DUP2 PUSH2 0x3DB JUMPI PUSH2 0x3DA PUSH2 0x58C JUMP JUMPDEST JUMPDEST SDIV SWAP1 POP PUSH1 0x4 PUSH1 0x3 DUP3 PUSH3 0x23AB1 MUL ADD DUP2 PUSH2 0x3F7 JUMPI PUSH2 0x3F6 PUSH2 0x58C JUMP JUMPDEST JUMPDEST SDIV DUP3 SUB SWAP2 POP PUSH0 PUSH3 0x164B09 PUSH1 0x1 DUP5 ADD PUSH2 0xFA0 MUL DUP2 PUSH2 0x417 JUMPI PUSH2 0x416 PUSH2 0x58C JUMP JUMPDEST JUMPDEST SDIV SWAP1 POP PUSH1 0x1F PUSH1 0x4 DUP3 PUSH2 0x5B5 MUL DUP2 PUSH2 0x431 JUMPI PUSH2 0x430 PUSH2 0x58C JUMP JUMPDEST JUMPDEST SDIV DUP5 SUB ADD SWAP3 POP PUSH0 PUSH2 0x98F DUP5 PUSH1 0x50 MUL DUP2 PUSH2 0x44D JUMPI PUSH2 0x44C PUSH2 0x58C JUMP JUMPDEST JUMPDEST SDIV SWAP1 POP PUSH0 PUSH1 0x50 DUP3 PUSH2 0x98F MUL DUP2 PUSH2 0x466 JUMPI PUSH2 0x465 PUSH2 0x58C JUMP JUMPDEST JUMPDEST SDIV DUP6 SUB SWAP1 POP PUSH1 0xB DUP3 DUP2 PUSH2 0x47C JUMPI PUSH2 0x47B PUSH2 0x58C JUMP JUMPDEST JUMPDEST SDIV SWAP5 POP DUP5 PUSH1 0xC MUL PUSH1 0x2 DUP4 ADD SUB SWAP2 POP DUP5 DUP4 PUSH1 0x31 DUP7 SUB PUSH1 0x64 MUL ADD ADD SWAP3 POP DUP3 SWAP9 POP DUP2 SWAP8 POP DUP1 SWAP7 POP POP POP POP POP POP POP SWAP2 SWAP4 SWAP1 SWAP3 POP JUMP JUMPDEST PUSH2 0x4C4 DUP2 PUSH2 0x4BC PUSH2 0x4C7 PUSH2 0x4E6 JUMP JUMPDEST PUSH4 0xFFFFFFFF AND JUMP JUMPDEST POP JUMP JUMPDEST PUSH0 PUSH11 0x636F6E736F6C652E6C6F67 SWAP1 POP PUSH0 PUSH0 DUP4 MLOAD PUSH1 0x20 DUP6 ADD DUP5 GAS STATICCALL POP POP POP JUMP JUMPDEST PUSH2 0x4F1 DUP2 SWAP1 POP SWAP2 SWAP1 POP JUMP JUMPDEST PUSH2 0x4F9 PUSH2 0x657 JUMP JUMPDEST JUMP JUMPDEST PUSH0 DUP2 SWAP1 POP SWAP2 SWAP1 POP JUMP JUMPDEST PUSH2 0x50D DUP2 PUSH2 0x4FB JUMP JUMPDEST DUP3 MSTORE POP POP JUMP JUMPDEST PUSH0 PUSH1 0x20 DUP3 ADD SWAP1 POP PUSH2 0x526 PUSH0 DUP4 ADD DUP5 PUSH2 0x504 JUMP JUMPDEST SWAP3 SWAP2 POP POP JUMP JUMPDEST PUSH32 0x4E487B7100000000000000000000000000000000000000000000000000000000 PUSH0 MSTORE PUSH1 0x11 PUSH1 0x4 MSTORE PUSH1 0x24 PUSH0 REVERT JUMPDEST PUSH0 PUSH2 0x563 DUP3 PUSH2 0x4FB JUMP JUMPDEST SWAP2 POP PUSH2 0x56E DUP4 PUSH2 0x4FB JUMP JUMPDEST SWAP3 POP DUP3 DUP3 SUB SWAP1 POP DUP2 DUP2 GT ISZERO PUSH2 0x586 JUMPI PUSH2 0x585 PUSH2 0x52C JUMP JUMPDEST JUMPDEST SWAP3 SWAP2 POP POP JUMP JUMPDEST PUSH32 0x4E487B7100000000000000000000000000000000000000000000000000000000 PUSH0 MSTORE PUSH1 0x12 PUSH1 0x4 MSTORE PUSH1 0x24 PUSH0 REVERT JUMPDEST PUSH0 DUP2 MLOAD SWAP1 POP SWAP2 SWAP1 POP JUMP JUMPDEST PUSH0 DUP3 DUP3 MSTORE PUSH1 0x20 DUP3 ADD SWAP1 POP SWAP3 SWAP2 POP POP JUMP JUMPDEST DUP3 DUP2 DUP4 MCOPY PUSH0 DUP4 DUP4 ADD MSTORE POP POP POP JUMP JUMPDEST PUSH0 PUSH1 0x1F NOT PUSH1 0x1F DUP4 ADD AND SWAP1 POP SWAP2 SWAP1 POP JUMP JUMPDEST PUSH0 PUSH2 0x5FB DUP3 PUSH2 0x5B9 JUMP JUMPDEST PUSH2 0x605 DUP2 DUP6 PUSH2 0x5C3 JUMP JUMPDEST SWAP4 POP PUSH2 0x615 DUP2 DUP6 PUSH1 0x20 DUP7 ADD PUSH2 0x5D3 JUMP JUMPDEST PUSH2 0x61E DUP2 PUSH2 0x5E1 JUMP JUMPDEST DUP5 ADD SWAP2 POP POP SWAP3 SWAP2 POP POP JUMP JUMPDEST PUSH0 PUSH1 0x40 DUP3 ADD SWAP1 POP DUP2 DUP2 SUB PUSH0 DUP4 ADD MSTORE PUSH2 0x641 DUP2 DUP6 PUSH2 0x5F1 JUMP JUMPDEST SWAP1 POP PUSH2 0x650 PUSH1 0x20 DUP4 ADD DUP5 PUSH2 0x504 JUMP JUMPDEST SWAP4 SWAP3 POP POP POP JUMP JUMPDEST PUSH32 0x4E487B7100000000000000000000000000000000000000000000000000000000 PUSH0 MSTORE PUSH1 0x51 PUSH1 0x4 MSTORE PUSH1 0x24 PUSH0 REVERT INVALID LOG2 PUSH5 0x6970667358 0x22 SLT KECCAK256 RETF SWAP6 SGT CALLER SWAP7 PUSH10 0x192FE524F8B71C515CCB 0xAC 0xBE ORIGIN PUSH32 0x2BC0AB95CEFDCF0AADF0F0A464736F6C634300081E0033000000000000000000 "
		},
		"gasEstimates": {
			"creation": {
				"codeDepositCost": "344400",
				"executionCost": "22483",
				"totalCost": "366883"
			},
			"external": {
				"Date()": "infinite",
				"bsasTimestamp()": "2447",
				"storedTimestamp()": "2402"
			},
			"internal": {
				"_daysToDate(uint256)": "482",
				"timestampToDateTime(uint256)": "765"
			}
		},
		"methodIdentifiers": {
			"Date()": "1ca989cf",
			"bsasTimestamp()": "448b2123",
			"storedTimestamp()": "1845714a"
		}
	},
	"abi": [
		{
			"inputs": [],
			"stateMutability": "nonpayable",
			"type": "constructor"
		},
		{
			"inputs": [],
			"name": "Date",
			"outputs": [],
			"stateMutability": "nonpayable",
			"type": "function"
		},
		{
			"inputs": [],
			"name": "bsasTimestamp",
			"outputs": [
				{
					"internalType": "uint256",
					"name": "",
					"type": "uint256"
				}
			],
			"stateMutability": "view",
			"type": "function"
		},
		{
			"inputs": [],
			"name": "storedTimestamp",
			"outputs": [
				{
					"internalType": "uint256",
					"name": "",
					"type": "uint256"
				}
			],
			"stateMutability": "view",
			"type": "function"
		}
	]
}