{
	"data": {
		"bytecode": {
			"linkReferences": {},
			"object": "6080604052636876c1505f553480156015575f5ffd5b50610615806100235f395ff3fe608060405234801561000f575f5ffd5b5060043610610034575f3560e01c80631845714a146100385780631ca989cf14610056575b5f5ffd5b610040610060565b60405161004d91906104ce565b60405180910390f35b61005e610065565b005b5f5481565b61006f5f5461022d565b60015f60025f60035f60045f60055f60065f8c919050558b919050558a919050558991905055889190505587919050555050505050506100e66040518060400160405280600781526020017f20796561723a20000000000000000000000000000000000000000000000000008152506001546102ce565b6101276040518060400160405280600881526020017f206d6f6e74683a200000000000000000000000000000000000000000000000008152506002546102ce565b6101686040518060400160405280600581526020017f6461793a200000000000000000000000000000000000000000000000000000008152506003546102ce565b6101a96040518060400160405280600781526020017f20686f75723a20000000000000000000000000000000000000000000000000008152506004546102ce565b6101ea6040518060400160405280600981526020017f206d696e7574653a2000000000000000000000000000000000000000000000008152506005546102ce565b61022b6040518060400160405280600981526020017f207365636f6e643a2000000000000000000000000000000000000000000000008152506006546102ce565b565b5f5f5f5f5f5f61024f620151808881610249576102486104e7565b5b0461036a565b8096508197508298505050505f62015180888161026f5761026e6104e7565b5b069050610e108181610284576102836104e7565b5b049350610e108181610299576102986104e7565b5b069050603c81816102ad576102ac6104e7565b5b049250603c81816102c1576102c06104e7565b5b0691505091939550919395565b61036682826040516024016102e4929190610584565b6040516020818303038152906040527fb60e72cc000000000000000000000000000000000000000000000000000000007bffffffffffffffffffffffffffffffffffffffffffffffffffffffff19166020820180517bffffffffffffffffffffffffffffffffffffffffffffffffffffffff8381831617835250505050610468565b5050565b5f5f5f5f8490505f62253d8c62010bd983010190505f62023ab18260040281610396576103956104e7565b5b059050600460038262023ab10201816103b2576103b16104e7565b5b05820391505f62164b0960018401610fa002816103d2576103d16104e7565b5b059050601f6004826105b502816103ec576103eb6104e7565b5b0584030192505f61098f8460500281610408576104076104e7565b5b0590505f60508261098f0281610421576104206104e7565b5b0585039050600b8281610437576104366104e7565b5b05945084600c0260028301039150848360318603606402010192508298508197508096505050505050509193909250565b61047f816104776104826104a1565b63ffffffff16565b50565b5f6a636f6e736f6c652e6c6f6790505f5f835160208501845afa505050565b6104ac819050919050565b6104b46105b2565b565b5f819050919050565b6104c8816104b6565b82525050565b5f6020820190506104e15f8301846104bf565b92915050565b7f4e487b71000000000000000000000000000000000000000000000000000000005f52601260045260245ffd5b5f81519050919050565b5f82825260208201905092915050565b8281835e5f83830152505050565b5f601f19601f8301169050919050565b5f61055682610514565b610560818561051e565b935061057081856020860161052e565b6105798161053c565b840191505092915050565b5f6040820190508181035f83015261059c818561054c565b90506105ab60208301846104bf565b9392505050565b7f4e487b71000000000000000000000000000000000000000000000000000000005f52605160045260245ffdfea264697066735822122017021504a8b66cf0e3782ab8cb88d4778d9a48a1e1a8449b9e2ef325e6676e3f64736f6c634300081e0033",
			"opcodes": "PUSH1 0x80 PUSH1 0x40 MSTORE PUSH4 0x6876C150 PUSH0 SSTORE CALLVALUE DUP1 ISZERO PUSH1 0x15 JUMPI PUSH0 PUSH0 REVERT JUMPDEST POP PUSH2 0x615 DUP1 PUSH2 0x23 PUSH0 CODECOPY PUSH0 RETURN INVALID PUSH1 0x80 PUSH1 0x40 MSTORE CALLVALUE DUP1 ISZERO PUSH2 0xF JUMPI PUSH0 PUSH0 REVERT JUMPDEST POP PUSH1 0x4 CALLDATASIZE LT PUSH2 0x34 JUMPI PUSH0 CALLDATALOAD PUSH1 0xE0 SHR DUP1 PUSH4 0x1845714A EQ PUSH2 0x38 JUMPI DUP1 PUSH4 0x1CA989CF EQ PUSH2 0x56 JUMPI JUMPDEST PUSH0 PUSH0 REVERT JUMPDEST PUSH2 0x40 PUSH2 0x60 JUMP JUMPDEST PUSH1 0x40 MLOAD PUSH2 0x4D SWAP2 SWAP1 PUSH2 0x4CE JUMP JUMPDEST PUSH1 0x40 MLOAD DUP1 SWAP2 SUB SWAP1 RETURN JUMPDEST PUSH2 0x5E PUSH2 0x65 JUMP JUMPDEST STOP JUMPDEST PUSH0 SLOAD DUP2 JUMP JUMPDEST PUSH2 0x6F PUSH0 SLOAD PUSH2 0x22D JUMP JUMPDEST PUSH1 0x1 PUSH0 PUSH1 0x2 PUSH0 PUSH1 0x3 PUSH0 PUSH1 0x4 PUSH0 PUSH1 0x5 PUSH0 PUSH1 0x6 PUSH0 DUP13 SWAP2 SWAP1 POP SSTORE DUP12 SWAP2 SWAP1 POP SSTORE DUP11 SWAP2 SWAP1 POP SSTORE DUP10 SWAP2 SWAP1 POP SSTORE DUP9 SWAP2 SWAP1 POP SSTORE DUP8 SWAP2 SWAP1 POP SSTORE POP POP POP POP POP POP PUSH2 0xE6 PUSH1 0x40 MLOAD DUP1 PUSH1 0x40 ADD PUSH1 0x40 MSTORE DUP1 PUSH1 0x7 DUP2 MSTORE PUSH1 0x20 ADD PUSH32 0x20796561723A2000000000000000000000000000000000000000000000000000 DUP2 MSTORE POP PUSH1 0x1 SLOAD PUSH2 0x2CE JUMP JUMPDEST PUSH2 0x127 PUSH1 0x40 MLOAD DUP1 PUSH1 0x40 ADD PUSH1 0x40 MSTORE DUP1 PUSH1 0x8 DUP2 MSTORE PUSH1 0x20 ADD PUSH32 0x206D6F6E74683A20000000000000000000000000000000000000000000000000 DUP2 MSTORE POP PUSH1 0x2 SLOAD PUSH2 0x2CE JUMP JUMPDEST PUSH2 0x168 PUSH1 0x40 MLOAD DUP1 PUSH1 0x40 ADD PUSH1 0x40 MSTORE DUP1 PUSH1 0x5 DUP2 MSTORE PUSH1 0x20 ADD PUSH32 0x6461793A20000000000000000000000000000000000000000000000000000000 DUP2 MSTORE POP PUSH1 0x3 SLOAD PUSH2 0x2CE JUMP JUMPDEST PUSH2 0x1A9 PUSH1 0x40 MLOAD DUP1 PUSH1 0x40 ADD PUSH1 0x40 MSTORE DUP1 PUSH1 0x7 DUP2 MSTORE PUSH1 0x20 ADD PUSH32 0x20686F75723A2000000000000000000000000000000000000000000000000000 DUP2 MSTORE POP PUSH1 0x4 SLOAD PUSH2 0x2CE JUMP JUMPDEST PUSH2 0x1EA PUSH1 0x40 MLOAD DUP1 PUSH1 0x40 ADD PUSH1 0x40 MSTORE DUP1 PUSH1 0x9 DUP2 MSTORE PUSH1 0x20 ADD PUSH32 0x206D696E7574653A200000000000000000000000000000000000000000000000 DUP2 MSTORE POP PUSH1 0x5 SLOAD PUSH2 0x2CE JUMP JUMPDEST PUSH2 0x22B PUSH1 0x40 MLOAD DUP1 PUSH1 0x40 ADD PUSH1 0x40 MSTORE DUP1 PUSH1 0x9 DUP2 MSTORE PUSH1 0x20 ADD PUSH32 0x207365636F6E643A200000000000000000000000000000000000000000000000 DUP2 MSTORE POP PUSH1 0x6 SLOAD PUSH2 0x2CE JUMP JUMPDEST JUMP JUMPDEST PUSH0 PUSH0 PUSH0 PUSH0 PUSH0 PUSH0 PUSH2 0x24F PUSH3 0x15180 DUP9 DUP2 PUSH2 0x249 JUMPI PUSH2 0x248 PUSH2 0x4E7 JUMP JUMPDEST JUMPDEST DIV PUSH2 0x36A JUMP JUMPDEST DUP1 SWAP7 POP DUP2 SWAP8 POP DUP3 SWAP9 POP POP POP POP PUSH0 PUSH3 0x15180 DUP9 DUP2 PUSH2 0x26F JUMPI PUSH2 0x26E PUSH2 0x4E7 JUMP JUMPDEST JUMPDEST MOD SWAP1 POP PUSH2 0xE10 DUP2 DUP2 PUSH2 0x284 JUMPI PUSH2 0x283 PUSH2 0x4E7 JUMP JUMPDEST JUMPDEST DIV SWAP4 POP PUSH2 0xE10 DUP2 DUP2 PUSH2 0x299 JUMPI PUSH2 0x298 PUSH2 0x4E7 JUMP JUMPDEST JUMPDEST MOD SWAP1 POP PUSH1 0x3C DUP2 DUP2 PUSH2 0x2AD JUMPI PUSH2 0x2AC PUSH2 0x4E7 JUMP JUMPDEST JUMPDEST DIV SWAP3 POP PUSH1 0x3C DUP2 DUP2 PUSH2 0x2C1 JUMPI PUSH2 0x2C0 PUSH2 0x4E7 JUMP JUMPDEST JUMPDEST MOD SWAP2 POP POP SWAP2 SWAP4 SWAP6 POP SWAP2 SWAP4 SWAP6 JUMP JUMPDEST PUSH2 0x366 DUP3 DUP3 PUSH1 0x40 MLOAD PUSH1 0x24 ADD PUSH2 0x2E4 SWAP3 SWAP2 SWAP1 PUSH2 0x584 JUMP JUMPDEST PUSH1 0x40 MLOAD PUSH1 0x20 DUP2 DUP4 SUB SUB DUP2 MSTORE SWAP1 PUSH1 0x40 MSTORE PUSH32 0xB60E72CC00000000000000000000000000000000000000000000000000000000 PUSH28 0xFFFFFFFFFFFFFFFFFFFFFFFFFFFFFFFFFFFFFFFFFFFFFFFFFFFFFFFF NOT AND PUSH1 0x20 DUP3 ADD DUP1 MLOAD PUSH28 0xFFFFFFFFFFFFFFFFFFFFFFFFFFFFFFFFFFFFFFFFFFFFFFFFFFFFFFFF DUP4 DUP2 DUP4 AND OR DUP4 MSTORE POP POP POP POP PUSH2 0x468 JUMP JUMPDEST POP POP JUMP JUMPDEST PUSH0 PUSH0 PUSH0 PUSH0 DUP5 SWAP1 POP PUSH0 PUSH3 0x253D8C PUSH3 0x10BD9 DUP4 ADD ADD SWAP1 POP PUSH0 PUSH3 0x23AB1 DUP3 PUSH1 0x4 MUL DUP2 PUSH2 0x396 JUMPI PUSH2 0x395 PUSH2 0x4E7 JUMP JUMPDEST JUMPDEST SDIV SWAP1 POP PUSH1 0x4 PUSH1 0x3 DUP3 PUSH3 0x23AB1 MUL ADD DUP2 PUSH2 0x3B2 JUMPI PUSH2 0x3B1 PUSH2 0x4E7 JUMP JUMPDEST JUMPDEST SDIV DUP3 SUB SWAP2 POP PUSH0 PUSH3 0x164B09 PUSH1 0x1 DUP5 ADD PUSH2 0xFA0 MUL DUP2 PUSH2 0x3D2 JUMPI PUSH2 0x3D1 PUSH2 0x4E7 JUMP JUMPDEST JUMPDEST SDIV SWAP1 POP PUSH1 0x1F PUSH1 0x4 DUP3 PUSH2 0x5B5 MUL DUP2 PUSH2 0x3EC JUMPI PUSH2 0x3EB PUSH2 0x4E7 JUMP JUMPDEST JUMPDEST SDIV DUP5 SUB ADD SWAP3 POP PUSH0 PUSH2 0x98F DUP5 PUSH1 0x50 MUL DUP2 PUSH2 0x408 JUMPI PUSH2 0x407 PUSH2 0x4E7 JUMP JUMPDEST JUMPDEST SDIV SWAP1 POP PUSH0 PUSH1 0x50 DUP3 PUSH2 0x98F MUL DUP2 PUSH2 0x421 JUMPI PUSH2 0x420 PUSH2 0x4E7 JUMP JUMPDEST JUMPDEST SDIV DUP6 SUB SWAP1 POP PUSH1 0xB DUP3 DUP2 PUSH2 0x437 JUMPI PUSH2 0x436 PUSH2 0x4E7 JUMP JUMPDEST JUMPDEST SDIV SWAP5 POP DUP5 PUSH1 0xC MUL PUSH1 0x2 DUP4 ADD SUB SWAP2 POP DUP5 DUP4 PUSH1 0x31 DUP7 SUB PUSH1 0x64 MUL ADD ADD SWAP3 POP DUP3 SWAP9 POP DUP2 SWAP8 POP DUP1 SWAP7 POP POP POP POP POP POP POP SWAP2 SWAP4 SWAP1 SWAP3 POP JUMP JUMPDEST PUSH2 0x47F DUP2 PUSH2 0x477 PUSH2 0x482 PUSH2 0x4A1 JUMP JUMPDEST PUSH4 0xFFFFFFFF AND JUMP JUMPDEST POP JUMP JUMPDEST PUSH0 PUSH11 0x636F6E736F6C652E6C6F67 SWAP1 POP PUSH0 PUSH0 DUP4 MLOAD PUSH1 0x20 DUP6 ADD DUP5 GAS STATICCALL POP POP POP JUMP JUMPDEST PUSH2 0x4AC DUP2 SWAP1 POP SWAP2 SWAP1 POP JUMP JUMPDEST PUSH2 0x4B4 PUSH2 0x5B2 JUMP JUMPDEST JUMP JUMPDEST PUSH0 DUP2 SWAP1 POP SWAP2 SWAP1 POP JUMP JUMPDEST PUSH2 0x4C8 DUP2 PUSH2 0x4B6 JUMP JUMPDEST DUP3 MSTORE POP POP JUMP JUMPDEST PUSH0 PUSH1 0x20 DUP3 ADD SWAP1 POP PUSH2 0x4E1 PUSH0 DUP4 ADD DUP5 PUSH2 0x4BF JUMP JUMPDEST SWAP3 SWAP2 POP POP JUMP JUMPDEST PUSH32 0x4E487B7100000000000000000000000000000000000000000000000000000000 PUSH0 MSTORE PUSH1 0x12 PUSH1 0x4 MSTORE PUSH1 0x24 PUSH0 REVERT JUMPDEST PUSH0 DUP2 MLOAD SWAP1 POP SWAP2 SWAP1 POP JUMP JUMPDEST PUSH0 DUP3 DUP3 MSTORE PUSH1 0x20 DUP3 ADD SWAP1 POP SWAP3 SWAP2 POP POP JUMP JUMPDEST DUP3 DUP2 DUP4 MCOPY PUSH0 DUP4 DUP4 ADD MSTORE POP POP POP JUMP JUMPDEST PUSH0 PUSH1 0x1F NOT PUSH1 0x1F DUP4 ADD AND SWAP1 POP SWAP2 SWAP1 POP JUMP JUMPDEST PUSH0 PUSH2 0x556 DUP3 PUSH2 0x514 JUMP JUMPDEST PUSH2 0x560 DUP2 DUP6 PUSH2 0x51E JUMP JUMPDEST SWAP4 POP PUSH2 0x570 DUP2 DUP6 PUSH1 0x20 DUP7 ADD PUSH2 0x52E JUMP JUMPDEST PUSH2 0x579 DUP2 PUSH2 0x53C JUMP JUMPDEST DUP5 ADD SWAP2 POP POP SWAP3 SWAP2 POP POP JUMP JUMPDEST PUSH0 PUSH1 0x40 DUP3 ADD SWAP1 POP DUP2 DUP2 SUB PUSH0 DUP4 ADD MSTORE PUSH2 0x59C DUP2 DUP6 PUSH2 0x54C JUMP JUMPDEST SWAP1 POP PUSH2 0x5AB PUSH1 0x20 DUP4 ADD DUP5 PUSH2 0x4BF JUMP JUMPDEST SWAP4 SWAP3 POP POP POP JUMP JUMPDEST PUSH32 0x4E487B7100000000000000000000000000000000000000000000000000000000 PUSH0 MSTORE PUSH1 0x51 PUSH1 0x4 MSTORE PUSH1 0x24 PUSH0 REVERT INVALID LOG2 PUSH5 0x6970667358 0x22 SLT KECCAK256 OR MUL ISZERO DIV 0xA8 0xB6 PUSH13 0xF0E3782AB8CB88D4778D9A48A1 RJUMPI 0xA844 SWAP12 SWAP15 0x2E RETURN 0x25 DUPN 0x67 PUSH15 0x3F64736F6C634300081E0033000000 "
		},
		"gasEstimates": {
			"creation": {
				"codeDepositCost": "311400",
				"executionCost": "22452",
				"totalCost": "333852"
			},
			"external": {
				"Date()": "infinite",
				"storedTimestamp()": "2402"
			},
			"internal": {
				"_daysToDate(uint256)": "482",
				"timestampToDateTime(uint256)": "765"
			}
		},
		"methodIdentifiers": {
			"Date()": "1ca989cf",
			"storedTimestamp()": "1845714a"
		}
	},
	"abi": [
		{
			"inputs": [],
			"stateMutability": "nonpayable",
			"type": "constructor"
		},
		{
			"inputs": [],
			"name": "Date",
			"outputs": [],
			"stateMutability": "nonpayable",
			"type": "function"
		},
		{
			"inputs": [],
			"name": "storedTimestamp",
			"outputs": [
				{
					"internalType": "uint256",
					"name": "",
					"type": "uint256"
				}
			],
			"stateMutability": "view",
			"type": "function"
		}
	]
}